:020000040800F2
:1000000000500020D9450008F9370008FF370008E4
:10001000053800080B3800081138000800000000FF
:100020000000000000000000000000001738000879
:1000300023380008000000002F3800083B38000873
:1000400021460008214600082146000821460008F4
:1000500021460008214600082146000821460008E4
:1000600021460008214600082146000821460008D4
:1000700021460008214600082146000821460008C4
:1000800021460008214600082146000821460008B4
:10009000214600082146000821460008493800088A
:1000A0002146000821460008214600082146000894
:1000B0002146000821460008214600082146000884
:1000C0002146000821460008214600082146000874
:1000D0002146000821460008214600082146000864
:1000E00021460008214600082146000800000000C3
:1000F0000000000000000000000000000000000000
:0C01000000000000000000005FF808F1A3
:10010C000348044B834202D0034B03B1184770479A
:10011C007C0000207C0000200000000005480649FF
:10012C000B1AD90F01EBA301491002D0034B03B1F9
:10013C00184770477C0000207C0000200000000065
:10014C0010B5064C237843B9FFF7DAFF044B13B113
:10015C000448AFF300800123237010BD8000002001
:10016C00000000002446000808B5044B1BB10449EC
:10017C000448AFF30080BDE80840CFE70000000062
:10018C0084000020244600080A22002100F094BBC1
:10019C000A23002200F06EBB014B1868704700BFA9
:1001AC000000002070B50D4E0D4D761BB61006D01C
:1001BC00002455F8043B01349847A642F9D1094E66
:1001CC00094D04F029FA761BB61006D0002455F818
:1001DC00043B01349847A642F9D170BDE84B0008A6
:1001EC00E84B0008EC4B0008E84B000888420DD99E
:1001FC008B1883420AD900EB020CBAB1624613F891
:10020C0001CD994202F801CDF9D170470F2A0ED8D1
:10021C00034602F1FF3C4AB10CF1010C013B8C444A
:10022C0011F8012B614503F8012FF9D1704740EA11
:10023C0001039B074FD1A2F1100370B501F1200C03
:10024C0023F00F0501F1100E00F11004AC441B0952
:10025C005EF8105C0EF1100E44F8105C5EF81C5C3D
:10026C00103444F81C5C5EF8185C44F8185C5EF8BA
:10027C00145CE64544F8145CEAD1013312F00C0F1F
:10028C0001EB031102F00F0400EB031327D08E4691
:10029C00043C24F003064FEA940C1E441C1F5EF829
:1002AC00045B44F8045FB442F9D10CF1010402F090
:1002BC00030203EB840301EB840102F1FF3C4AB11E
:1002CC000CF1010C013B8C4411F8012B614503F836
:1002DC00012FF9D170BD034602F1FF3C9CE7224689
:1002EC00EBE700BF830730B548D0541E002A3FD03F
:1002FC000346CAB201E0013C3AD303F8012B9D0737
:10030C00F9D1032C2DD9CDB245EA05250F2C45EAA0
:10031C00054536D9A4F1100222F00F0C03F1200E82
:10032C00E6444FEA121C03F1100242E9045542E97B
:10033C00025510327245F8D10CF1010214F00C0F79
:10034C0003EB021204F00F0C13D0ACF1040323F0F6
:10035C0003030433134442F8045B9342FBD10CF0C7
:10036C0003042CB1CAB21C4403F8012B9C42FBD1F0
:10037C0030BD64461346002CF4D1F9E7034614460D
:10038C00BFE71A46A446E0E70CB430B50C466FF054
:10039C0000459DB00A4A20AB059253F8042B02A9E4
:1003AC00CDE9013407950495069400F07BFB0022FF
:1003BC00029B1A701DB0BDE8304002B0704700BF00
:1003CC000802FFFF0EB430B504466FF000459CB038
:1003DC000B4A1FAB0B49059253F8042B086802A972
:1003EC00CDE9013407950495069400F05BFB0022DF
:1003FC00029B1A701CB0BDE8304003B0704700BFC0
:10040C000802FFFF0000002011F0FF01034644D05A
:10041C00820732D110B5046841EA012E4EEA0E4E25
:10042C008EEA0402A2F1013323EA0203A4F10132A1
:10043C0022EA0402134313F0803F0FD150F8044F0B
:10044C0084EA0E0CA4F10133ACF1013223EA04036B
:10045C0022EA0C02134313F0803FEFD0037823B948
:10046C0036E010F8013F002B32D09942F9D110BD83
:10047C008A4211D09A071846CCD0184613F8012B93
:10048C00002AF5D1104670479907184607D0184630
:10049C0002780133002AF7D170478207F7D102683E
:1004AC00A2F1013323EA020313F0803F08D150F884
:1004BC00042FA2F1013323EA020313F0803FF6D09C
:1004CC000378002BE8D010F8013F002BFBD17047CC
:1004DC00184610BD80EA010C1CF0030F37D110F048
:1004EC00030C20F0030021F0030150F8042B08BF8B
:1004FC0051F8043B0ED08CF0030C6FF07F434FEAA5
:10050C00CC0C23FA0CFC51F8043B42EA0C0243EAF3
:10051C000C0300BFA2F1013C9A4201BF2CEA020C71
:10052C001CF0803F50F8042B51F8043BF2D04FEAFA
:10053C0002604FEA1222012828BFB0EB036F08BFFC
:10054C001B0AF4D003F0FF03000EC01A704710F022
:10055C00030F0AD010F8012B11F8013B012A28BF18
:10056C009A42F4D0A2EB030070474DF8045D50F8AA
:10057C00042B01F0030521F0030151F8043B022D7B
:10058C0026D04DD822F07F45B5EB132FA2F1013CBC
:10059C002CEA020C0DD11CF0803C08BF51F8043B36
:1005AC000AD185EA0205B5EB036F0CD150F8042B88
:1005BC00E8E74FEA13235BE03CF07F4C54D10B7817
:1005CC004FEA126554E04FEA126503F0FF034FE067
:1005DC004FEA0245A2F1013C4FEA15452CEA020C08
:1005EC00B5EB134F18D11CF0803C08BF51F8043BFD
:1005FC0007D185EA0205B5EB034F09D150F8042B5E
:10060C00E6E75FEA0C4C2FD10B884FEA12452FE03E
:10061C004FEA03434FEA12454FEA134328E000BF69
:10062C0002F0FF05B5EB136FA2F1013C2CEA020CB2
:10063C000DD11CF0803C08BF51F8043B0AD185EA6F
:10064C000205B5EB032F0AD150F8042BE8E74FEA6B
:10065C0013630DE012F0FF0F06D051F8043B4FEA84
:10066C00122523F07F4303E04FF0000020BC7047BD
:10067C0005F0FF0203F0FF00012828BF904204BFE1
:10068C002D0A1B0AF4D0A2EB000020BC704700BF5F
:10069C0020F0030110F00300C0F1000051F8043BFE
:1006AC0000F1040C4FEACC0C6FF000021CBF22FAD4
:1006BC000CF213434FF0010C4CEA0C2C4CEA0C4C92
:1006CC00A3EB0C0222EA030212EACC1204BF51F88B
:1006DC00043B0430F4D0C2F1000102EA0102B2FA88
:1006EC0082F2C2F11F0200EBD200704730B540EA33
:1006FC000104A30722D1032A20D90B4684461946AC
:10070C0053F8045BA5F1013424EA050414F0803F8E
:10071C0015D1043A032A19464CF8045BEFD801F1C1
:10072C00FF3E52B163461EF8011F541E03F8011B15
:10073C0041B122469C46002AF4D130BD844601F1D9
:10074C00FF3EEEE76244002CF7D003F8011B934206
:10075C00FBD130BD2DE9F04F81468E46444D70469D
:10076C001EF801CB15F80C4014F00804F7D1BCF1BD
:10077C002D0FE34653D06FF00048BCF12B0F04BF94
:10078C009EF800B000F1020E1BB1102B4FD01F468B
:10079C0004E0BBF1300F55D00A231F460025B8FBEF
:1007AC00F7F6284607FB168A07E0864215D329D0B0
:1007BC00012507FB00C01EF801BBABF1300CBCF1EE
:1007CC00090F06D9ABF1410CBCF1190F08D8ABF1EC
:1007DC00370C63450DDD002DE7DA4FF0FF35EAE706
:1007EC00ABF1610CBCF1190F03D8ABF1570C63459D
:1007FC00F1DC002D0BDB04B140420AB195BB11605A
:10080C00BDE8F08FE245D3DA4FF0FF35D3E7222372
:10081C00C9F800301AB340460EF1FF31EFE79EF8ED
:10082C0000B04FF00048012400F1020EACE7BBF120
:10083C00300FACD19EF8000000F0DF00582807D034
:10084C001F46ABE79EF8003003F0DF03582B0BD1AB
:10085C0010279EF801B03B460EF1020E9EE7404673
:10086C00BDE8F08F8046D6E708231F4696E700BF09
:10087C007D4A0008012B02D0242B00D86AE710B562
:10088C00FFF78AFC16230360002010BD012A10B567
:10089C0009D0242A07D8074C13460A46014620687B
:1008AC00BDE8104056E7FFF777FC162303600020E5
:1008BC0010BD00BF00000020012A10B509D0242A69
:1008CC0007D8074C13460A4601462068BDE810407D
:1008DC0040E7FFF761FC16230360002010BD00BF4A
:1008EC00000000202DE9F0478F680C469F421D4602
:1008FC00164638D88246888910F4906F0ED13D4642
:10090C0008682A463146FFF771FC0020A26823686C
:10091C00D21B2B44A2602360BDE8F0874B690969A8
:10092C0003EB4308236808EBD878A3EB01096B1C95
:10093C004FEA68084B444345424684BF98464246BA
:10094C00430513D51146504600F0D6FC074608B3B4
:10095C004A46216900F0F4FBA38923F4906343F029
:10096C008003A38107E01F460868CAE7504600F0E1
:10097C001FFD074650B107EB0900A8EB09032761DF
:10098C00C4F814802F46A3602060BAE75046216952
:10099C0000F04CFC0C23CAF80030A3894FF0FF3058
:1009AC0043F04003A381B7E72DE9F04F93689146DC
:1009BC0083B0002B6ED0176880460C4608688D6893
:1009CC00083744E0B4F80CC01CF4906F2ED0D4E976
:1009DC000413451A03EB430303EBD373AA194FEA31
:1009EC00630A531C5345524684BF9A4652461CF424
:1009FC00806F36D01146404600F07EFC00283AD07D
:100A0C002A462169019000F09BFBA289019B22F4EC
:100A1C00906242F08002A2815819AAEB0505A560EC
:100A2C00C4F814A03546B24623612060594652469C
:100A3C00FFF7DCFBD9F80830A16820684D1B504447
:100A4C009E1BA5602060C9F808601EB3083757E9E3
:100A5C0002B6002EFAD0B542AA46B3D93546B246F4
:100A6C00E4E7404600F0A4FC03460028D4D14046FD
:100A7C00216900F0DBFB0C2300224FF0FF30C8F89B
:100A8C000030A38943F04003A381C9E9012203B0DC
:100A9C00BDE8F08F00231846C9F8043003B0BDE858
:100AAC00F08F00BF2DE9F04F1C468B890F461D06B9
:100ABC00804692469DB003D50B69002B00F0F38065
:100ACC0000230993302320228DF82A309AF8003025
:100ADC00039401257B4C8DF82920002B76D0D14630
:100AEC0003E019F8013F002B79D0252BF9D1B9EB94
:100AFC000A0B77D199F80020002A67D000234FF019
:100B0C00FF3209F10109CDE90523049307938DF810
:100B1C0053301A9304E0001B05FA00F018430490BC
:100B2C00CA460522204619F8011B00F0C1FA049BA5
:100B3C000028F0D1D80644BF20228DF85320190785
:100B4C0048BF2B229AF8001048BF8DF853202A2951
:100B5C0056D1039A11680432002903927EDB079167
:100B6C009AF801100AF1010A2E295BD0DFF858918E
:100B7C000322484600F09CFA48B14022049BA0EBAB
:100B8C00090002FA00F003430AF1010A04931AF86F
:100B9C00011B06224D488DF8281000F089FA002818
:100BAC0062D04B4B002B52D003A900913A464046E1
:100BBC00484B04A9AFF300800646721C06D0099B73
:100BCC00334409939AF80030002B88D1BB895B061B
:100BDC004CBF4FF0FF3009981DB0BDE8F08FB9EB5A
:100BEC000A0BF3D05B46524639464046FFF77AFE75
:100BFC000130EBD0099B99F800205B4409937BE70B
:100C0C00A1F13002092AAFD8079B1AF8011F03EB98
:100C1C00830302EB4303A1F13002092AF5D92E29F3
:100C2C000793A3D19AF801102A2927D1039B0AF123
:100C3C0002001A680433002A0393B8BF4FF0FF3345
:100C4C009AF8021005928246B8BF05938EE7039B73
:100C5C00073323F0070308330393B0E7494243F00B
:100C6C000203079104937BE703A900913A4640469F
:100C7C00184B04A900F0C6F806469EE70023A1F124
:100C8C003002092A0AF1010A05933FF66FAF1AF8F0
:100C9C00011F03EB830302EB4303A1F13002092A8A
:100CAC00F5D9059362E7402100F026FB38603861E6
:100CBC0010B140237B6103E70C234FF0FF30C8F8E1
:100CCC00003089E7AC4B0008B44B0008B84B000867
:100CDC0000000000F10800082DE9F04791461E467F
:100CEC000A698B680C469A42B8BF1A46C9F80020AC
:100CFC0091F843300546DDF8208013B10132C9F874
:100D0C000020226891065DD5D9F800300233C9F86D
:100D1C000030226812F0060F11461ED1E168CB1A82
:100D2C00002BD8BF114618DD002704F1190A06E084
:100D3C00D9F80030E268A2EB030CBC450CDD0123B2
:100D4C00524631462846C047013007F10107EFD122
:100D5C004FF0FF30BDE8F087216894F84330003B3A
:100D6C0018BF01238A060AD53021E21882F84310F5
:100D7C0094F845105A1C2244023382F84310314631
:100D8C00284604F14302C0470130E1D0236803F048
:100D9C000603042B1DD0A3682269934225DD00278E
:100DAC009B1A1F4404F11A09002401E0BC421CDA0E
:100DBC0001234A4631462846C047013004F101045C
:100DCC00F4D1C5E712F0060F12D0003B18BF012377
:100DDC00D5E7D9F80030E1682269C91AA36821EA7D
:100DEC00E1779342DCDC0029DCDC0020BDE8F087F5
:100DFC00E168D9F80030CB1A002BD8BF114693DC30
:100E0C00ABE700BF2DE9F04317460A7E85B00C46D0
:100E1C00064698460C9D01F1430C002A33D0A2F1F2
:100E2C005803D9B2202967D8202B65D8DFE813F0F6
:100E3C00DD0064006400640064006400640064000D
:100E4C00640064006400A3006E006400640064002D
:100E5C0064006E00640064006400640021007F0084
:100E6C00BF0064006400AE0064007F006400640096
:100E7C00E40023681A0640F102812B686269191D8F
:100E8C0029601B681A600023E14623613B4621461A
:100E9C003046CDF8008003AAFFF71EFF013020D0AA
:100EAC004A46394630462369C047013019D0236879
:100EBC00E0689B07039919D5431A002B16DD002512
:100ECC0004F1190904E0E0680399431AAB420DDD03
:100EDC0001234A4639463046C047013005F1010529
:100EEC00F1D14FF0FF3005B0BDE8F0838842B8BFB8
:100EFC00084605B0BDE8F083012384F8422004F1D4
:100F0C0042092361002384F84330BFE723681906A4
:100F1C0002D45A0600F1BF8029680A68043129609E
:100F2C001146002A6ADB0A25DFF87CE110E0236811
:100F3C00180640F19A802B68191D296019686F2AD0
:100F4C000CBF08250A25DFF860E1002384F8433044
:100F5C006268002AA2607DDB236823F0040323600F
:100F6C00002959D1002A77D1E146082D63D0ACEB8A
:100F7C00090323618AE701222B6804F142091968ED
:100F8C0004332B6084F842102261BBE72B680021EC
:100F9C001A1D2A60D3F800906268484600F088F861
:100FAC0000287FD0A0EB090060602061AAE72368CD
:100FBC0043F0200323607822DFF8F0E084F845202A
:100FCC002A68111D2960190642D45D0640D5118886
:100FDC00D80744BF43F020032360002943D1236882
:100FEC00102523F020032360AFE75823DFF8B8E087
:100FFC0084F845302368E3E72368DCE72D2284F886
:10100C00432062684942002AA26002DB23F00403F9
:10101C0023600A25DFF890E0E146B1FBF5F30A46C0
:10102C0005FB131019461EF80030AA4209F8013DC1
:10103C00F3D2082D9BD12368D90798D56268236910
:10104C009A4294DC302309F1FF3989F800308EE79D
:10105C001168BDE70029DFD19EF8003004F1420988
:10106C0084F8423081E710256FE713F0400F2B68AE
:10107C0003F1040129600CBF196819885FE713F0AC
:10108C00400F2B68626903F1040129601B6814BFCF
:10109C001A801A60F7E62A68B2F9001004322A6046
:1010AC000A463EE7606880E7C04B0008D44B000856
:1010BC005FFA81FC810710D00346511E2AB90AE061
:1010CC009A0718460AD0013905D3184613F8012B94
:1010DC006245F5D1704700207047114603290CD8A2
:1010EC000029F8D00346014401E08B42F3D01846A6
:1010FC0013F8012B6245F8D1ECE7024610B54CEA27
:10110C000C2444EA04441046036804326340A3F1FF
:10111C00013E2EEA030313F0803F04D10439032966
:10112C001046F0D851B10346014401E08B4205D082
:10113C00184613F8012B6245F8D110BD002010BDE4
:10114C00844641EA000313F0030349D1403A23D308
:10115C000B6803604B6843608B688360CB68C3602B
:10116C000B6903614B6943618B698361CB69C36113
:10117C000B6A03624B6A43628B6A8362CB6AC362FB
:10118C000B6B03634B6B43638B6B8363CB6BC363E3
:10119C0040304031403ADBD230320BD30B68036025
:1011AC004B6843608B688360CB68C3601030103130
:1011BC00103AF3D20C3205D351F8043B40F8043BFF
:1011CC00043AF9D2043208D0D2071CBF11F8013B03
:1011DC0000F8013B01D30B8803806046704700BFC9
:1011EC00082A13D38B07B1D010F00303AED0C3F190
:1011FC000403D21ADB071CBF11F8013B00F8013BBA
:10120C00A4D331F8023B20F8023B9FE7043AD9D330
:10121C00013A11F8013B00F8013BF9D20B7803704D
:10122C004B7843708B78837060467047002952D09E
:10123C0038B551F8043C0C1F002BB8BFE418054618
:10124C0000F0F0F82B4A1368002B45D0A3420CD9C0
:10125C0021686018834228D0636028461460BDE87A
:10126C00384000F0E1B8A3420FD81A465B68002B57
:10127C00F9D11168501884421DD034D36360546086
:10128C002846BDE8384000F0CFB811685018A0428D
:10129C0015D028D8216860188342EFD118685B6894
:1012AC000144C4E900135460EAE718685B68014420
:1012BC00C4E90013D1E7236819441160E0E7206802
:1012CC000144501883421160DAD1D3E90003014480
:1012DC00C2E90013D4E77047284663601460BDE888
:1012EC00384000F0A1B80C2328462B60BDE83840EC
:1012FC0000F09AB89C000020F8B5CD1C25F0030531
:10130C0008350C2D38BF0C25002D064623DBA942D1
:10131C0021D8264F00F086F83A6822B3144603E031
:10132C0063682246FBB11C4623685B1BF8D40B2B6D
:10133C0015D8636894420CBF3B605360304600F094
:10134C0073F804F10B00231D20F00700C21A01D022
:10135C001B1AA350F8BD0C2300203360F8BD23608A
:10136C001C442560EAE77968D1B12946304600F083
:10137C0047F8431C01460CD0C41C24F00304A042C3
:10138C0005D03046611A00F03BF8013001D02560E1
:10139C00D4E70C233046336000F046F80020F8BD4B
:1013AC00304600F02DF87860DFE700BF9C0000208D
:1013BC00F8B51446F9B1CAB106460D4600F036F838
:1013CC00A04202D32F463846F8BD21463046FFF7DF
:1013DC0093FF07460028F6D022462946FFF7B0FEB9
:1013EC0030462946FFF722FF3846F8BD2746FFF75F
:1013FC001DFF3846F8BD1146BDE8F840FFF77CBF2D
:10140C00002238B5064D044608462A6002F05AFA06
:10141C00431C00D038BD2B68002BFBD0236038BD9B
:10142C00A4000020704700BF704700BF51F8040CA7
:10143C000028A0F10400BCBF0B58C018704700BFB7
:10144C0080B400AF00BFBD4680BC704780B582B091
:10145C0000AF78607B68002B01D1012341E07B68F1
:10146C0093F83D30DBB2002B06D17B68002283F869
:10147C003C20786802F0BAF87B68022283F83D20A1
:10148C007B681A687B6804331946104600F092F9A1
:10149C007B68012283F846207B68012283F83E207A
:1014AC007B68012283F83F207B68012283F840206F
:1014BC007B68012283F841207B68012283F842205B
:1014CC007B68012283F843207B68012283F8442047
:1014DC007B68012283F845207B68012283F83D203C
:1014EC00002318460837BD4680BD000080B584B087
:1014FC0000AF786039603B68002B09D17B6893F8AA
:10150C003E30DBB2012B14BF01230023DBB222E0FF
:10151C003B68042B09D17B6893F83F30DBB2012B7D
:10152C0014BF01230023DBB215E03B68082B09D163
:10153C007B6893F84030DBB2012B14BF01230023EE
:10154C00DBB208E07B6893F84130DBB2012B14BFAF
:10155C0001230023DBB2002B01D001235EE03B68AA
:10156C00002B04D17B68022283F83E2013E03B68F9
:10157C00042B04D17B68022283F83F200BE03B68EC
:10158C00082B04D17B68022283F8402003E07B689F
:10159C00022283F841207B681B68012239681846B7
:1015AC0000F0FEFA7B681B681E4A934207D17B68E9
:1015BC001B685A6C7B681B6842F400425A647B6857
:1015CC001B68184A93420ED07B681B68B3F1804F9E
:1015DC0009D07B681B68144A934204D07B681B6853
:1015EC00124A934211D17B681B689B6803F0070376
:1015FC00FB60FB68062B10D07B681B681A687B6845
:10160C001B6842F001021A6007E07B681B681A68CD
:10161C007B681B6842F001021A60002318461037E1
:10162C00BD4680BD002C0140000400400008004075
:10163C0080B586B000AFF860B9607A600023FB75A6
:10164C00FB6893F83C30012B01D10223AEE0FB6820
:10165C00012283F83C207B680C2B00F29F8001A2B6
:10166C0052F823F0A5160008A9170008A9170008BE
:10167C00A9170008E5160008A9170008A917000803
:10168C00A917000827170008A9170008A9170008B0
:10169C00A917000867170008FB681B68B96818468B
:1016AC0000F0F6F8FB681B689A69FB681B6842F04F
:1016BC0008029A61FB681B689A69FB681B6822F038
:1016CC0004029A61FB681B689969BB681A69FB681C
:1016DC001B680A439A6164E0FB681B68B96818468A
:1016EC0000F03CF9FB681B689A69FB681B6842F4C4
:1016FC0000629A61FB681B689A69FB681B6822F49C
:10170C0080629A61FB681B689969BB681B691A0245
:10171C00FB681B680A439A6143E0FB681B68B96865
:10172C00184600F085F9FB681B68DA69FB681B68D2
:10173C0042F00802DA61FB681B68DA69FB681B6817
:10174C0022F00402DA61FB681B68D969BB681A696C
:10175C00FB681B680A43DA6123E0FB681B68B96805
:10176C00184600F0CFF9FB681B68DA69FB681B6848
:10177C0042F40062DA61FB681B68DA69FB681B687B
:10178C0022F48062DA61FB681B68D969BB681B694B
:10179C001A02FB681B680A43DA6102E00123FB753D
:1017AC0000BFFB68002283F83C20FB7D18461837ED
:1017BC00BD4680BD80B485B000AF786039607B6871
:1017CC001B68FB607B682F4A93420BD07B68B3F19C
:1017DC00804F07D07B682C4A934203D07B682B4AFE
:1017EC00934208D1FB6823F07003FB603B685B6895
:1017FC00FA681343FB607B68224A93420BD07B68E8
:10180C00B3F1804F07D07B681F4A934203D07B68AB
:10181C001E4A934208D1FB6823F44073FB603B687B
:10182C00DB68FA681343FB60FB6823F080023B68BB
:10183C005B691343FB607B68FA681A603B689A68C3
:10184C007B68DA623B681A687B689A627B680D4A2F
:10185C00934203D13B681A697B681A637B68012247
:10186C005A617B681B6903F00103002B05D07B6870
:10187C001B6923F001027B681A6100BF1437BD4657
:10188C0080BC7047002C0140000400400008004060
:10189C0080B487B000AF786039607B681B6A7B616D
:1018AC007B681B6A23F001027B681A627B685B68A9
:1018BC003B617B689B69FB60FB6823F07003FB60FA
:1018CC00FB6823F00303FB603B681B68FA68134357
:1018DC00FB607B6923F002037B613B689B687A6940
:1018EC0013437B617B681C4A93420CD17B6923F0C8
:1018FC0008037B613B68DB687A6913437B617B6916
:10190C0023F004037B617B68134A934211D13B693A
:10191C0023F480733B613B6923F400733B613B68A8
:10192C005B693A6913433B613B689B693A691343B2
:10193C003B617B683A695A607B68FA689A613B68DC
:10194C005A687B685A637B687A691A6200BF1C37D5
:10195C00BD4680BC704700BF002C014080B487B0EE
:10196C0000AF786039607B681B6A7B617B681B6A9F
:10197C0023F010027B681A627B685B683B617B68B2
:10198C009B69FB60FB6823F4E043FB60FB6823F47A
:10199C004073FB603B681B681B02FA681343FB60D7
:1019AC007B6923F020037B613B689B681B017A6990
:1019BC0013437B617B681D4A93420DD17B6923F0F5
:1019CC0080037B613B68DB681B017A6913437B6195
:1019DC007B6923F040037B617B68144A934213D1EB
:1019EC003B6923F480633B613B6923F400633B61F7
:1019FC003B685B699B003A6913433B613B689B699D
:101A0C009B003A6913433B617B683A695A607B6877
:101A1C00FA689A613B685A687B689A637B687A6952
:101A2C001A6200BF1C37BD4680BC7047002C0140B9
:101A3C0080B487B000AF786039607B681B6A7B61CB
:101A4C007B681B6A23F480727B681A627B685B6814
:101A5C003B617B68DB69FB60FB6823F07003FB6018
:101A6C00FB6823F00303FB603B681B68FA681343B5
:101A7C00FB607B6923F400737B613B689B681B02F2
:101A8C007A6913437B617B681D4A93420DD17B6954
:101A9C0023F400637B613B68DB681B027A691343A8
:101AAC007B617B6923F480637B617B68144A93427E
:101ABC0013D13B6923F480533B613B6923F40053FE
:101ACC003B613B685B691B013A6913433B613B68B3
:101ADC009B691B013A6913433B617B683A695A6005
:101AEC007B68FA68DA613B685A687B68DA637B6802
:101AFC007A691A6200BF1C37BD4680BC704700BFB4
:101B0C00002C014080B487B000AF786039607B68EE
:101B1C001B6A3B617B681B6A23F480527B681A62E8
:101B2C007B685B687B617B68DB69FB60FB6823F42B
:101B3C00E043FB60FB6823F44073FB603B681B686D
:101B4C001B02FA681343FB603B6923F400533B61AF
:101B5C003B689B681B033A6913433B617B680F4AE4
:101B6C00934209D17B6923F480437B613B685B69B9
:101B7C009B017A6913437B617B687A695A607B6845
:101B8C00FA68DA613B685A687B681A647B683A6960
:101B9C001A6200BF1C37BD4680BC7047002C014048
:101BAC0080B487B000AFF860B9607A60BB6803F0AE
:101BBC001F03012202FA03F37B61FB681A6A7B693B
:101BCC00DB431A40FB681A62FB681A6ABB6803F0B5
:101BDC001F03796801FA03F31A43FB681A6200BF0A
:101BEC001C37BD4680BC704780B485B000AF7860B0
:101BFC0039607B6893F83C30012B01D1022346E01D
:101C0C007B68012283F83C207B68022283F83D200C
:101C1C007B681B685B68FB607B681B689B68BB60B0
:101C2C00FB6823F07003FB603B681B68FA68134386
:101C3C00FB607B681B68FA685A607B681B68164AF5
:101C4C0093420ED07B681B68B3F1804F09D07B6840
:101C5C001B68124A934204D07B681B68104A93425B
:101C6C000CD1BB6823F08003BB603B685B68BA682F
:101C7C001343BB607B681B68BA689A607B6801225F
:101C8C0083F83D207B68002283F83C200023184613
:101C9C001437BD4680BC7047002C01400004004046
:101CAC000008004080B500AF084B1B68074A43F0A2
:101CBC0010031360032000F009FF0F2000F008F858
:101CCC0001F0CEFD0023184680BD00BF002002406D
:101CDC0080B582B000AF7860124B1A68124B1B783B
:101CEC0019464FF47A73B3FBF1F3B2FBF3F31846D6
:101CFC0000F021FF0346002B01D001230EE07B688E
:101D0C000F2B0AD8002279684FF0FF3000F0E9FE63
:101D1C00064A7B681360002300E00123184608374D
:101D2C00BD4680BD640000206C00002068000020CF
:101D3C0080B400AF054B1B781A46054B1B68134447
:101D4C00034A136000BFBD4680BC70476C00002086
:101D5C00A800002080B400AF024B1B681846BD469B
:101D6C0080BC7047A800002080B586B000AF7860BA
:101D7C007B68002B01D1012372E27B681B6803F0A6
:101D8C000103002B00F08780924B5B6803F00C037F
:101D9C00042B0CD08F4B5B6803F00C03082B12D177
:101DAC008C4B5B6803F48033B3F5803F0BD1894BCC
:101DBC001B6803F40033002B6CD07B685B68002B32
:101DCC0068D101234CE27B685B68B3F5803F06D198
:101DDC00804B1B687F4A43F4803313602EE07B6892
:101DEC005B68002B0CD17B4B1B687A4A23F4803345
:101DFC001360784B1B68774A23F4802313601DE033
:101E0C007B685B68B3F5A02F0CD1724B1B68714AD1
:101E1C0043F4802313606F4B1B686E4A43F480338A
:101E2C0013600BE06B4B1B686A4A23F4803313601E
:101E3C00684B1B68674A23F4802313607B685B68DC
:101E4C00002B13D0FFF786FF386108E0FFF782FF05
:101E5C0002463B69D31A642B01D9032300E25D4B84
:101E6C001B6803F40033002BF0D014E0FFF772FF73
:101E7C00386108E0FFF76EFF02463B69D31A642B0A
:101E8C0001D90323ECE1534B1B6803F40033002B03
:101E9C00F0D100E000BF7B681B6803F00203002B4D
:101EAC0063D04C4B5B6803F00C03002B0BD0494BFD
:101EBC005B6803F00C03082B1CD1464B5B6803F4E6
:101ECC008033002B16D1434B1B6803F00203002B0D
:101EDC0005D07B681B69012B01D00123C0E13D4B70
:101EEC001B6823F0F8027B685B69DB0039491343FC
:101EFC000B603AE07B681B69002B20D0364B01222B
:101F0C001A60FFF727FF386108E0FFF723FF02464E
:101F1C003B69D31A022B01D90323A1E12D4B1B687A
:101F2C0003F00203002BF0D02A4B1B6823F0F802BD
:101F3C007B685B69DB00274913430B6015E0264B7C
:101F4C0000221A60FFF706FF386108E0FFF702FF76
:101F5C0002463B69D31A022B01D9032380E11D4BA6
:101F6C001B6803F00203002BF0D17B681B6803F0A5
:101F7C000803002B3AD07B689B69002B19D0174BB8
:101F8C0001221A60FFF7E6FE386108E0FFF7E2FE77
:101F9C0002463B69D31A022B01D9032360E10D4B96
:101FAC005B6A03F00203002BF0D0012000F0CEFAA4
:101FBC001CE00A4B00221A60FFF7CCFE38610FE0E0
:101FCC00FFF7C8FE02463B69D31A022B08D903233C
:101FDC0046E100BF00100240000042428004424231
:101FEC00924B5B6A03F00203002BE9D17B681B6800
:101FFC0003F00403002B00F0A6800023FB758B4B31
:10200C00DB6903F08053002B0DD1884BDB69874AC9
:10201C0043F08053D361854BDB6903F08053BB6085
:10202C00BB680123FB75824B1B6803F48073002B88
:10203C0018D17F4B1B687E4A43F480731360FFF703
:10204C0089FE386108E0FFF785FE02463B69D31A2A
:10205C00642B01D9032303E1754B1B6803F48073D4
:10206C00002BF0D07B68DB68012B06D16F4B1B6A11
:10207C006E4A43F0010313622DE07B68DB68002B92
:10208C000CD16A4B1B6A694A23F001031362674B3C
:10209C001B6A664A23F0040313621CE07B68DB684E
:1020AC00052B0CD1614B1B6A604A43F0040313628D
:1020BC005E4B1B6A5D4A43F0010313620BE05B4B02
:1020CC001B6A5A4A23F001031362584B1B6A574A86
:1020DC0023F0040313627B68DB68002B15D0FFF739
:1020EC0039FE38610AE0FFF735FE02463B69D31A28
:1020FC0041F28832934201D90323B1E04B4B1B6A66
:10210C0003F00203002BEED014E0FFF723FE38613E
:10211C000AE0FFF71FFE02463B69D31A41F28832F0
:10212C00934201D903239BE0404B1B6A03F002034B
:10213C00002BEED1FB7D012B05D13C4BDB693B4ADF
:10214C0023F08053D3617B68DB69002B00F0878020
:10215C00364B5B6803F00C03082B61D07B68DB69A2
:10216C00022B46D1334B00221A60FFF7F3FD386186
:10217C0008E0FFF7EFFD02463B69D31A022B01D9A9
:10218C0003236DE0294B1B6803F00073002BF0D187
:10219C007B681B6AB3F5803F08D1244B5B6823F442
:1021AC0000327B689B68214913434B601F4B5B6873
:1021BC0023F474127B68196A7B685B6A0B431B49B6
:1021CC0013434B601B4B01221A60FFF7C3FD3861B0
:1021DC0008E0FFF7BFFD02463B69D31A022B01D979
:1021EC0003233DE0114B1B6803F00073002BF0D070
:1021FC0035E0104B00221A60FFF7ACFD386108E0A7
:10220C00FFF7A8FD02463B69D31A022B01D9032321
:10221C0026E0064B1B6803F00073002BF0D11EE088
:10222C007B68DB69012B07D1012319E00010024008
:10223C0000700040600042420B4B5B68FB60FB6827
:10224C0003F480327B681B6A9A4206D1FB6803F464
:10225C0070127B685B6A9A4201D0012300E0002374
:10226C0018461837BD4680BD0010024080B584B0BA
:10227C0000AF786039607B68002B01D10123D0E07E
:10228C006A4B1B6803F007033A689A4210D9674BF4
:10229C001B6823F0070265493B6813430B60634BD3
:1022AC001B6803F007033A689A4201D00123B8E097
:1022BC007B681B6803F00203002B20D07B681B6833
:1022CC0003F00403002B05D0594B5B68584A43F4C8
:1022DC00E06353607B681B6803F00803002B05D098
:1022EC00534B5B68524A43F460535360504B5B68EA
:1022FC0023F0F0027B689B684D4913434B607B686D
:10230C001B6803F00103002B40D07B685B68012B3A
:10231C0007D1474B1B6803F40033002B15D1012365
:10232C007FE07B685B68022B07D1414B1B6803F095
:10233C000073002B09D1012373E03D4B1B6803F0A4
:10234C000203002B01D101236BE0394B5B6823F0B6
:10235C0003027B685B68364913434B60FFF7FAFC5A
:10236C00F8600AE0FFF7F6FC0246FB68D31A41F26C
:10237C008832934201D9032353E02D4B5B6803F061
:10238C000C027B685B689B009A42EBD1274B1B6865
:10239C0003F007033A689A4210D2244B1B6823F0CF
:1023AC00070222493B6813430B60204B1B6803F068
:1023BC0007033A689A4201D0012332E07B681B681C
:1023CC0003F00403002B08D0194B5B6823F4E06284
:1023DC007B68DB68164913434B607B681B6803F012
:1023EC000803002B09D0124B5B6823F460527B6806
:1023FC001B69DB000E4913434B6000F021F80246C9
:10240C000B4B5B681B0903F00F030A49CB5C22FAE8
:10241C0003F3094A1360094B1B681846FFF758FC75
:10242C00002318461037BD4680BD00BF0020024077
:10243C0000100240804B000864000020680000205F
:10244C0080B487B000AF0023FB600023BB60002387
:10245C007B6100237B6000233B611E4B5B68FB6050
:10246C00FB6803F00C03042B02D0082B03D027E0ED
:10247C00194B3B6127E0FB689B0C03F00F03174AD9
:10248C00D35C7B60FB6803F48033002B10D0114BC2
:10249C005B685B0C03F00103114AD35CBB607B6887
:1024AC000D4A03FB02F2BB68B2FBF3F37B6104E061
:1024BC007B680C4A02FB03F37B617B693B6102E0A6
:1024CC00054B3B6100BF3B6918461C37BD4680BCC1
:1024DC00704700BF0010024000127A00984B0008B1
:1024EC00A84B000800093D0080B400AF024B1B68EC
:1024FC001846BD4680BC70476400002080B500AF14
:10250C00FFF7F2FF0246054B5B681B0A03F007035B
:10251C000349CB5C22FA03F3184680BD001002403D
:10252C00904B000880B500AFFFF7DEFF0246054B6D
:10253C005B68DB0A03F007030349CB5C22FA03F365
:10254C00184680BD00100240904B000880B485B046
:10255C0000AF78600A4B1B680A4AA2FB03235B0A94
:10256C007A6802FB03F3FB6000BFFB685A1EFA603B
:10257C00002BF9D100BF00BF1437BD4680BC70479B
:10258C0064000020D34D621080B48BB000AF786033
:10259C00396000237B6200233B6269E101227B6A84
:1025AC0002FA03F3FB613B681B68FA691340BB61D9
:1025BC00BA69FB699A4240F058813B685B689A4A59
:1025CC0093425ED0984A934275D8984A934258D019
:1025DC00964A93426FD8964A934252D0944A934269
:1025EC0069D8944A93424CD0924A934263D8924A07
:1025FC00934246D0904A93425DD8122B2AD8122B84
:10260C0059D801A252F823F08F2600086926000839
:10261C007B260008BD260008C3260008C326000838
:10262C00C3260008C3260008C3260008C3260008DA
:10263C00C3260008C3260008C3260008C3260008CA
:10264C00C3260008C3260008C3260008712600080C
:10265C0085260008794A934213D02CE03B68DB684E
:10266C003B6229E03B68DB6804333B6224E03B6857
:10267C00DB6808333B621FE03B68DB680C333B6272
:10268C001AE03B689B68002B02D104233B6213E0E9
:10269C003B689B68012B05D108233B627B68FA6978
:1026AC001A6109E008233B627B68FA695A6103E00E
:1026BC0000233B6200E000BFBB69FF2B01D87B68A5
:1026CC0001E07B6804337B61BB69FF2B02D87B6A1A
:1026DC009B0002E07B6A083B9B003B617B691A68AC
:1026EC000F213B6901FA03F3DB431A40396A3B695A
:1026FC0001FA03F31A437B691A603B685B6803F0C9
:10270C008053002B00F0B1804D4B9B694C4A43F039
:10271C00010393614A4B9B6903F00103BB60BB68E7
:10272C00484A7B6A9B08023352F82330FB607B6A71
:10273C0003F003039B000F2202FA03F3DB43FA6856
:10274C001340FB607B68404A934213D07B683F4A3E
:10275C0093420DD07B683E4A934207D07B683D4A3A
:10276C00934201D1032306E0042304E0022302E098
:10277C00012300E000237A6A02F0030292009340E6
:10278C00FA681343FB602F497B6A9B080233FA6893
:10279C0041F823203B685B6803F48013002B06D0C0
:1027AC002D4B9A682C49BB6913438B6006E02A4B6E
:1027BC009A68BB69DB43284913408B603B685B68B4
:1027CC0003F40013002B06D0234BDA682249BB69B3
:1027DC001343CB6006E0204BDA68BB69DB431E4930
:1027EC001340CB603B685B6803F40033002B06D0CE
:1027FC00194B5A681849BB6913434B6006E0164BDA
:10280C005A68BB69DB43144913404B603B685B68F7
:10281C0003F48033002B21D00F4B1A680E49BB698F
:10282C0013430B6021E000BF000032100000311098
:10283C0000002210000021100000121000001110E6
:10284C00001002400000014000080140000C014053
:10285C000010014000140140000401400B4B1A68A9
:10286C00BB69DB43094913400B607B6A01337B6214
:10287C003B681A687B6A22FA03F3002B7FF48EAE56
:10288C0000BF00BF2C37BD4680BC70470004014020
:10289C0080B485B000AF78600B467B807B689A680B
:1028AC007B881340002B02D00123FB7301E0002333
:1028BC00FB73FB7B18461437BD4680BC704780B455
:1028CC0083B000AF78600B467B8013467B707B78BF
:1028DC00002B03D07A887B681A6103E07B881A048A
:1028EC007B681A6100BF0C37BD4680BC7047000086
:1028FC0080B582B000AF0346FB80084B5A69FB8859
:10290C001340002B06D0054AFB885361FB88184600
:10291C0000F006F800BF0837BD4680BD000401403A
:10292C0080B483B000AF0346FB8000BF0C37BD46BC
:10293C0080BC704780B485B000AF78607B6803F0D2
:10294C000703FB600C4BDB68BB60BA684FF6FF03F8
:10295C001340BB60FB681A02BB68134343F0BF63B0
:10296C0043F40033BB60044ABB68D36000BF143728
:10297C00BD4680BC704700BF00ED00E080B400AFE6
:10298C00044BDB681B0A03F007031846BD4680BCEA
:10299C00704700BF00ED00E080B483B000AF034689
:1029AC00FB7197F90730002B0BDBFB7903F01F024F
:1029BC00064997F907305B09012000FA02F241F849
:1029CC00232000BF0C37BD4680BC704700E100E0FF
:1029DC0080B483B000AF03463960FB7197F90730C0
:1029EC00002B0ADB3B68DAB20C4997F9073012016D
:1029FC00D2B20B4483F800230AE03B68DAB20849F0
:102A0C00FB7903F00F03043B1201D2B20B441A768C
:102A1C0000BF0C37BD4680BC704700BF00E100E032
:102A2C0000ED00E080B489B000AFF860B9607A6066
:102A3C00FB6803F00703FB61FB69C3F10703042B7D
:102A4C0028BF0423BB61FB690433062B02D9FB6945
:102A5C00033B00E000237B614FF0FF32BB6902FABD
:102A6C0003F3DA43BB681A407B699A404FF0FF319D
:102A7C007B6901FA03F3D9437B680B401343184677
:102A8C002437BD4680BC704780B582B000AF7860FB
:102A9C007B68013BB3F1807F01D301230FE00A4A2D
:102AAC007B68013B53600F214FF0FF30FFF790FF25
:102ABC00054B00229A60044B07221A60002318462B
:102ACC000837BD4680BD00BF10E000E080B582B085
:102ADC0000AF78607868FFF72DFF00BF0837BD4660
:102AEC0080BD80B586B000AF0346B9607A60FB73D9
:102AFC0000237B61FFF742FF78617A68B9687869D7
:102B0C00FFF790FF024697F90F3011461846FFF772
:102B1C005FFF00BF1837BD4680BD80B582B000AFE7
:102B2C000346FB7197F907301846FFF735FF00BFD6
:102B3C000837BD4680BD80B582B000AF786078683C
:102B4C00FFF7A2FF034618460837BD4680BD0000BC
:102B5C00F0B587B000AFF860B960C7E90023012376
:102B6C00FB750023BB7500237B752F4B1B7E012B44
:102B7C0001D1022354E02C4B01221A764CF2503036
:102B8C0000F0A8F80346FB75FB7D002B44D1FB68D5
:102B9C00012B02D101237B7507E0FB68022B02D1CC
:102BAC0002237B7501E004237B750023BB752DE0AC
:102BBC00BB7D5A00BB6802EB030CBB7D1901D7E946
:102BCC000023C1F12006A1F1200022FA01F403FA3E
:102BDC0006F6344323FA00F0044323FA01F5A3B2BA
:102BEC001946604600F05AF84CF2503000F072F87A
:102BFC000346FB750D4B1B690C4A23F00103136153
:102C0C00FB7D002B07D1BB7D0133BB75BA7D7B7D72
:102C1C009A42CDD300E000BF034B00221A76FB7D15
:102C2C0018461C37BD46F0BDB00000200020024005
:102C3C0080B483B000AF0023FB710D4B1B6903F014
:102C4C008003002B0DD00A4B0A4A5A60084B0A4AE3
:102C5C005A60074B1B6903F08003002B01D0012342
:102C6C00FB71FB7918460C37BD4680BC704700BF22
:102C7C000020024023016745AB89EFCD80B400AF43
:102C8C00054B1B69044A43F080031361002318466B
:102C9C00BD4680BC704700BF0020024080B483B0AA
:102CAC0000AF78600B467B80084B0022DA61084B42
:102CBC001B69074A43F0010313617B687A881A8009
:102CCC0000BF0C37BD4680BC704700BFB000002071
:102CDC000020024080B584B000AF7860FFF73AF86E
:102CEC00F86010E07B68B3F1FF3F0CD07B68002BE1
:102CFC0007D0FFF72FF80246FB68D31A7A689A427E
:102D0C0001D2032325E0154BDB6803F00103002BF4
:102D1C00E8D1124BDB6803F02003002B02D00F4BE1
:102D2C002022DA600D4BDB6803F01003002B0BD173
:102D3C000A4BDB6903F00103002B05D1074BDB6861
:102D4C0003F00403002B03D000F00AF8012300E089
:102D5C00002318461037BD4680BD00BF002002403E
:102D6C0080B483B000AF00237B60234BDB6803F09F
:102D7C001003002B09D0214BDB6943F002031F4ADF
:102D8C00D3617B6843F010037B601B4BDB6803F063
:102D9C000403002B09D0194BDB6943F00103174ADC
:102DAC00D3617B6843F004037B60134BDB6903F056
:102DBC000103002B0BD0114BDB6943F004030F4ACA
:102DCC00D3610D4BDB690C4A23F00103D3617B68A3
:102DDC0040F20112934206D1074BDB69064A23F0FD
:102DEC000103D36102E0044A7B68D36000BF0C3757
:102DFC00BD4680BC704700BF00200240B0000020E0
:102E0C0080B584B000AF786039600123FB73002378
:102E1C00BB602F4B1B7E012B01D1022353E02C4BAB
:102E2C0001221A767B681B68022B16D14CF25030AB
:102E3C00FFF750FF0346002B41D1012000F04CF866
:102E4C004CF25030FFF746FF0346FB73214B1B69D6
:102E5C00204A23F00403136131E04CF25030FFF7A9
:102E6C0039FF0346002B2AD13B684FF0FF321A6022
:102E7C007B689B68BB6019E0B86800F049F84CF2BD
:102E8C005030FFF727FF0346FB73124B1B69114AA7
:102E9C0023F002031361FB7B002B03D03B68BA6861
:102EAC001A600CE0BB6803F58063BB607B68DB6871
:102EBC009A027B689B681344BA689A42DCD3044B31
:102ECC0000221A76FB7B18461037BD4680BD00BF2A
:102EDC00B00000200020024080B483B000AF7860C6
:102EEC00094B0022DA61094B1B69084A43F00403C1
:102EFC001361064B1B69054A43F04003136100BF85
:102F0C000C37BD4680BC7047B0000020002002404A
:102F1C0080B483B000AF78600B4B0022DA610B4BAE
:102F2C001B690A4A43F002031361084A7B68536128
:102F3C00064B1B69054A43F04003136100BF0C3775
:102F4C00BD4680BC704700BFB0000020002002408E
:102F5C0080B582B000AF78607B68002B01D1012373
:102F6C0042E07B6893F84130DBB2002B06D17B68E2
:102F7C00002283F84020786800F0B4FB7B682422A0
:102F8C0083F841207B681B68DA687B681B6822F435
:102F9C000052DA60786800F071F97B681B681A6976
:102FAC007B681B6822F490421A617B681B685A6923
:102FBC007B681B6822F02A025A617B681B68DA68FE
:102FCC007B681B6842F40052DA607B6800225A640A
:102FDC007B68202283F841207B68202283F84220E2
:102FEC007B6800225A63002318460837BD4680BD13
:102FFC0080B58AB002AFF860B9603B601346FB80C5
:10300C0000237B61FB6893F84130DBB2202B75D138
:10301C00BB68002B02D0FB88002B01D101236EE092
:10302C00FB6800225A64FB68212283F84120FEF7DA
:10303C0091FE7861FB68FA889A84FB68FA88DA84D6
:10304C00FB689B68B3F5805F08D1FB681B69002B9C
:10305C0004D10023FB61BB68BB6103E0BB68FB616F
:10306C000023BB612EE03B6800937B69002280212A
:10307C00F86800F048F80346002B05D0FB682022C6
:10308C0083F8412003233AE0FB69002B0BD1BB6989
:10309C001B881A46FB681B68C2F308025A60BB699E
:1030AC000233BB6107E0FB691A78FB681B685A6046
:1030BC00FB690133FB61FB68DB8C9BB2013B9AB271
:1030CC00FB68DA84FB68DB8C9BB2002BCBD13B68B2
:1030DC0000937B6900224021F86800F014F8034645
:1030EC00002B05D0FB68202283F84120032306E047
:1030FC00FB68202283F84120002300E002231846BD
:10310C002037BD4680BD80B586B000AFF860B96091
:10311C003B601346FB713BE03B6AB3F1FF3F37D09A
:10312C00FEF718FE02463B68D31A3A6A9A4202D35B
:10313C003B6A002B01D103233AE0FB681B68DB6878
:10314C0003F00403002B23D0BB68802B20D0BB687A
:10315C00402B1DD0FB681B681B6803F00803082B71
:10316C0016D100237B61FB681B681B687B61FB68C5
:10317C001B685B687B617B69F86800F01DF8FB6875
:10318C0008225A64FB68002283F8402001230FE0D8
:10319C00FB681B681A68BB681340BA689A420CBF7C
:1031AC0001230023DBB21A46FB799A42B4D00023E8
:1031BC0018461837BD4680BD80B495B000AF786016
:1031CC007B681B680C337B637B6B53E8003F3B6372
:1031DC003B6B23F49073FB647B681B680C33FA6CB9
:1031EC003A64FB63F96B3A6C41E80023BB63BB6B3D
:1031FC00002BE5D17B681B6814333B623B6A53E8B8
:10320C00003FFB61FB6923F00103BB647B681B6817
:10321C001433BA6CFA62BB62B96AFA6A41E80023E9
:10322C007B627B6A002BE5D17B681B6B012B19D170
:10323C007B681B680C33FB60FB6853E8003FBB608A
:10324C00BB6823F010037B647B681B680C337A6CBF
:10325C00BA617B617969BA6941E800233B613B69DA
:10326C00002BE5D17B68202283F842207B6800226A
:10327C001A6300BF5437BD4680BC704780B584B01C
:10328C0000AF78607B681B681B6923F440517B6836
:10329C00DA687B681B680A431A617B689A687B68EA
:1032AC001B691A437B685B691343BB607B681B68B3
:1032BC00DB6823F4B05323F00C037A681268B96806
:1032CC000B43D3607B681B685B6923F440717B689C
:1032DC009A697B681B680A435A617B681B682C4A95
:1032EC00934203D1FFF71EF9F86002E0FFF706F9ED
:1032FC00F860FA6813469B0013449A001A447B68E2
:10330C005B689B00B2FBF3F3224AA2FB03235B092D
:10331C001901FA6813469B0013449A001A447B68FF
:10332C005B689B00B2FBF3F21A4BA3FB02035B0935
:10333C00642000FB03F3D31A1B013233154AA2FBA2
:10334C0003235B0903F0F0031944FA6813469B004E
:10335C0013449A001A447B685B689B00B2FBF3F23F
:10336C000C4BA3FB02035B09642000FB03F3D31A91
:10337C001B013233074AA2FB03235B0903F00F0244
:10338C007B681B680A449A6000BF1037BD4680BD3D
:10339C00003801401F85EB5180B500AFFEF782FC71
:1033AC0000F012F800F05AF800F0C6F800F070F9CE
:1033BC0000F0BEFA034800F071FC00F001FB00F0D5
:1033CC00E5FFFAE71801002080B590B000AF07F1D7
:1033DC001803282200211846FCF784FF3B1D00220D
:1033EC001A605A609A60DA601A610123BB614FF46B
:1033FC008033FB6100233B620123BB6202237B63AE
:10340C004FF48033BB634FF4E013FB6307F11803F5
:10341C001846FEF7A9FC0346002B01D000F019F862
:10342C000F237B600223BB600023FB604FF480639F
:10343C003B6100237B613B1D02211846FEF716FF02
:10344C000346002B01D000F004F800BF4037BD4606
:10345C0080BD80B400AF72B600BFFEE780B588B007
:10346C0000AF07F1100300221A605A609A60DA600C
:10347C002E4B9B692D4A43F0100393612B4B9B6998
:10348C0003F01003FB60FB68284B9B69274A43F051
:10349C0020039361254B9B6903F02003BB60BB6841
:1034AC00224B9B69214A43F0040393611F4B9B6998
:1034BC0003F004037B607B681C4B9B691B4A43F045
:1034CC0008039361194B9B6903F008033B603B684D
:1034DC0000224FF480711648FFF7F1F980233B610D
:1034EC00144B7B610223BB6107F110031946104892
:1034FC00FFF74AF84FF480733B6101237B61022391
:10350C00BB610123FB6107F1100319460848FFF763
:10351C003BF8002200211720FFF7E3FA1720FFF7F2
:10352C00FCFA00BF2037BD4680BD00BF0010024032
:10353C00000C01400000111080B58AB000AF07F1FB
:10354C00200300221A605A603B1D00221A605A6048
:10355C009A60DA601A615A619A61224B224A1A60A7
:10356C00204B47225A601F4B00229A601D4B40F2A1
:10357C00F312DA601B4B00221A611A4B80229A61FB
:10358C001848FDF763FF0346002B01D0FFF761FFDE
:10359C0000233B6200237B6207F12003194611488C
:1035AC00FEF722FB0346002B01D0FFF752FF6023EE
:1035BC007B600023BB600023FB6000237B613B1D11
:1035CC000C2219460748FEF733F80346002B01D0AE
:1035DC00FFF73FFF034800F027F800BF2837BD4630
:1035EC0080BD00BFD00000200008004080B485B032
:1035FC0000AF78607B681B68094A93420BD1094B7A
:10360C00DB69084A43F00403D361064BDB6903F022
:10361C000403FB60FB6800BF1437BD4680BC7047D9
:10362C00000800400010024080B588B000AF786000
:10363C0007F1100300221A605A609A60DA607B6806
:10364C001B68104A934218D10F4B9B690E4A43F0EA
:10365C00080393610C4B9B6903F00803FB60FB6848
:10366C004FF400733B6102237B610223FB6107F182
:10367C00100319460548FEF787FF00BF2037BD46EB
:10368C0080BD00BF0008004000100240000C01404B
:10369C0080B500AF114B124A1A60104B4FF4E13257
:1036AC005A600E4B00229A600C4B0022DA600B4BD6
:1036BC0000221A61094B0C225A61084B00229A61B4
:1036CC00064B0022DA610548FFF742FC0346002B4B
:1036DC0001D0FFF7BEFE00BF80BD00BF1801002067
:1036EC000038014080B58AB000AF786007F118034C
:1036FC0000221A605A609A60DA607B681B68374A4D
:10370C00934232D1364B9B69354A43F480439361E3
:10371C00334B9B6903F480437B617B69304B9B6922
:10372C002F4A43F0040393612D4B9B6903F0040370
:10373C003B613B694FF40073BB610223FB610323C4
:10374C007B6207F1180319462648FEF71DFF4FF45C
:10375C008063BB610023FB6100233B6207F118030C
:10376C0019462048FEF710FF34E07B681B681E4AA0
:10377C0093422FD11A4BDB69194A43F40033D361BE
:10378C00174BDB6903F40033FB60FB68144B9B693C
:10379C00134A43F004039361114B9B6903F0040338
:1037AC00BB60BB680423BB610223FB6103237B6208
:1037BC0007F1180319460B48FEF7E6FE0823BB6118
:1037CC000023FB6100233B6207F1180319460548EF
:1037DC00FEF7DAFE00BF2837BD4680BD0038014039
:1037EC0000100240000801400044004080B400AFCB
:1037FC00FEE780B400AFFEE780B400AFFEE780B414
:10380C0000AFFEE780B400AFFEE780B400AF00BFAE
:10381C00BD4680BC704780B400AF00BFBD4680BCC5
:10382C00704780B400AF00BFBD4680BC704780B508
:10383C0000AFFEF77DFA00BF80BD000080B500AF81
:10384C0080210648FFF724F80346012B01D100F034
:10385C00ABF88020FFF74CF800BF80BD000C014096
:10386C0080B485B000AF154B9B69144A43F001033B
:10387C009361124B9B6903F00103BB60BB680F4B58
:10388C00DB690E4A43F08053D3610C4BDB6903F0C8
:10389C0080537B607B680A4B5B68FB60FB6823F0A2
:1038AC00E063FB60FB6843F00073FB60044AFB6859
:1038BC00536000BF1437BD4680BC704700100240F7
:1038CC000000014080B586B000AF7860144A154BFB
:1038DC00D31A7B617B693B61134B1B68002B02D1B4
:1038EC00114B124A1A60104B1A687B6813443A69E0
:1038FC009A4207D2FCF750FC03460C221A604FF098
:10390C00FF3309E0084B1B68FB60074B1A687B68A8
:10391C001344054A1360FB6818461837BD4680BD32
:10392C0000500020000400006001002088070020E7
:10393C0080B584B000AF0C211648FDF7D7FD154BB0
:10394C001B68154A12681A643B1D184600F088FD66
:10395C000346002B0DD13B1D184600F005FE034617
:10396C00002B06D07B680D4A1360BB680C4A1360B1
:10397C0009E00A4B1B687B60094B1B68BB603B1D55
:10398C00184600F089FD074B00221A7000BF103753
:10399C00BD4680BDD00000207800002070000020C3
:1039AC00740000206401002080B400AF034B01229E
:1039BC001A7000BFBD4680BC704700BF6C01002070
:1039CC0080B582B000AFFEF7C5F97860214B1B784B
:1039DC00022B29D0022B39DC002B02D0012B17D063
:1039EC0034E01D4B1B78DBB2002B2CD01A4B002281
:1039FC001A701A4B1B681A4A12681A64194B012266
:103A0C001A70194A7B681360124B01221A701AE063
:103A1C00154B1B687A68D21A144B1B689A4214D344
:103A2C000C4B02221A7010E00C4B1B68104A1268E7
:103A3C001A640C4B00221A70074B00221A70054BAB
:103A4C0000221A7002E000BF00E000BF00BF083780
:103A5C00BD4680BD640100206C010020D000002018
:103A6C00740000206D01002068010020700000200F
:103A7C007800002080B584B000AF074B1B687B60DA
:103A8C00064B1B68BB603B1D184600F005FD03464A
:103A9C0018461037BD4680BD700000207400002011
:103AAC0080B485B000AF0346FB71104B1B889BB2F2
:103ABC0001335A42C3F30803C2F3080258BF5342FE
:103ACC00FB810B4B1B889BB2FA899A4209D0074B9E
:103ADC001B889BB21946074AFB795354034AFB894E
:103AEC00138000BF1437BD4680BC7047780400209B
:103AFC007A0400207802002080B483B000AF786094
:103B0C00124B1B889AB2124B1B889BB29A4201D162
:103B1C00002316E00E4B1B889BB21A460D4B9A5C89
:103B2C007B681A700A4B1B889BB201335A42C3F351
:103B3C000803C2F3080258BF53429AB2044B1A80CE
:103B4C00012318460C37BD4680BC70477804002012
:103B5C007A0400207802002080B485B000AF0346C0
:103B6C00FB710F4B1B889BB201335A42DBB2D2B2B2
:103B7C0058BF5342FB810B4B1B889BB2FA899A426C
:103B8C0009D0074B1B889BB21946074AFB79535443
:103B9C00034AFB89138000BF1437BD4680BC7047B5
:103BAC007C0500207E0500207C04002080B483B0BE
:103BBC0000AF7860114B1B889AB2114B1B889BB2DB
:103BCC009A4201D1002314E00D4B1B889BB21A467C
:103BDC000C4B9A5C7B681A70094B1B889BB20133A7
:103BEC005A42DBB2D2B258BF53429AB2044B1A803B
:103BFC00012318460C37BD4680BC70477C0500205D
:103C0C007E0500207C04002080B582B000AF034606
:103C1C00FB71FB791846FFF79FFF00BF0837BD46C5
:103C2C0080BD80B582B000AF78607B68002B0CD073
:103C3C0006E07B685A1C7A601B781846FFF78CFFED
:103C4C007B681B78002BF4D100E000BF0837BD4621
:103C5C0080BD000080B582B000AF0F4B1B68002BFD
:103C6C0014D00D4B1B681B681B6803F08003802B62
:103C7C000ED1FB1D1846FFF799FF0346002B08D009
:103C8C00FA79054B1B681B685A6002E000BF00E024
:103C9C0000BF0837BD4680BD7001002080B582B0E2
:103CAC0000AF78601D4A7B6813601C4B002283F8C0
:103CBC0006211B4B00221A801A4B00221A804FF44B
:103CCC00007200211848FCF70DFB184B00221A80DB
:103CDC00174B00221A804FF4807200211548FCF714
:103CEC0001FB154B00221A804FF40072002113487F
:103CFC00FCF7F8FA124800F02DF8124800F02AF8F8
:103D0C00114800F027F8114800F024F8104800F092
:103D1C0021F800BF0837BD4680BD00BF70010020F0
:103D2C00780400207A040020780200207C05002012
:103D3C007E0500207C0400208007002080050020E8
:103D4C003C460008644600087C4600089C46000877
:103D5C00C046000890B583B000AF78607B68002B3C
:103D6C0011D00B4B1B68002B0DD0094B1C687868CD
:103D7C00FCF78EFC03469AB24FF0FF33796820466D
:103D8C00FFF736F900E000BF0C37BD4690BD00BF11
:103D9C007001002080B584B000AF78607B68002B88
:103DAC0044D07868FCF774FC0346FB6007E0FB68C2
:103DBC00013BFB60FB687A68134400221A70FB68B5
:103DCC00002B0CDDFB68013B7A6813441B78013334
:103DDC00184A13441B7803F00803002BE7D1002387
:103DEC00BB6002E0BB680133BB60BB687A681344FC
:103DFC001B78002B0BD0BB687A6813441B780133FB
:103E0C000C4A13441B7803F00803002BEAD1BB685F
:103E1C00002B0CDDBB687A68D118FA68BB68D31A22
:103E2C0001331A467868FCF7E1F900E000BF10375F
:103E3C00BD4680BD7C4A000880B588B000AFF860F4
:103E4C00B9607A60BB6806221A707B6800221A601F
:103E5C00F868FFF79FFFFB681B78002B02D14FF02F
:103E6C00FF33A3E02021F868FCF7CEFAF861FB6978
:103E7C00002B0BD0FB6900221A70FB695A1C7B6863
:103E8C001A607B681B681846FFF784FF4949F8687D
:103E9C00FCF720FB0346002B03D1BB6800221A70F1
:103EAC007CE04549F868FCF715FB0346002B06D06F
:103EBC004249F868FCF70EFB0346002B03D1BB68A4
:103ECC0005221A706AE03E49F868FCF703FB0346CA
:103EDC00002B26D17B681B68002B02D14FF0FF33DF
:103EEC0064E07B681B6837491846FCF7F3FA034615
:103EFC00002B06D1BB6803221A707B6800221A6063
:103F0C004CE07B681B6830491846FCF7E3FA034623
:103F1C00002B43D1BB6804221A707B6800221A6004
:103F2C003CE02A49F868FCF7D5FA0346002B35D15A
:103F3C007B681B68002B02D14FF0FF3336E07B68A7
:103F4C001B68BB612021B869FCF75EFA78617B695C
:103F5C00002B23D07B6900221A707B6901337B61B3
:103F6C007869FFF717FF1749B869FCF7B3FA0346EE
:103F7C00002B06D1BB6801221A707B687A691A6023
:103F8C000CE01149B869FCF7A5FA0346002B05D1E2
:103F9C00BB6802221A707B687A691A60BB681B784E
:103FAC00062B02D14FF0FF3300E0002318462037D8
:103FBC00BD4680BDC4460008CC460008D446000867
:103FCC00D8460008DC460008EC460008F846000815
:103FDC0080B5A4B000AF03463960FB71FB79052BAB
:103FEC0000F2C68001A252F823F000BF1140000875
:103FFC001D40000899400008134100082F4100089B
:10400C004B410008FFF7D0FC5D48FFF7A3FEB3E07F
:10401C003B68002B03D03B681B78002B03D159481D
:10402C00FFF798FEA8E03868FCF7AEF8C7F88C00EC
:10403C00D7F88C30002B25DDD7F88C304EF660226B
:10404C0093421FDCD7F88C304F4A1360FFF712FDF8
:10405C000346002B08D1D7F88C2007F10C034B49F1
:10406C001846FCF7AFF907E0D7F88C2007F10C03E2
:10407C0047491846FCF7A6F907F10C031846FFF759
:10408C0069FE79E04348FFF765FE75E03B68002B5D
:10409C0003D03B681B78002B03D13F48FFF75AFE37
:1040AC006AE03868FCF770F8C7F88C00D7F88C30E9
:1040BC00002B24DBD7F88C30B3F57A7F1FDCD7F8D4
:1040CC008C30364A1360FFF7D5FC0346002B08D121
:1040DC00D7F88C2007F10C0331491846FCF772F91C
:1040EC0007E0D7F88C2007F10C032E491846FCF793
:1040FC0069F907F10C031846FFF72CFE3CE02A483F
:10410C00FFF728FE38E0204B1A6807F10C0327490B
:10411C001846FCF757F907F10C031846FFF71AFE7F
:10412C002AE01E4B1A6807F10C0321491846FCF7CC
:10413C0049F907F10C031846FFF70CFE1CE01D486B
:10414C00FFF708FE1C48FFF705FE1C48FFF702FEB0
:10415C001B48FFF7FFFD1B48FFF7FCFD1A48FFF754
:10416C00F9FD1A48FFF7F6FD1948FFF7F3FD03E0D8
:10417C001848FFF7EFFD00BF00BF9037BD4680BD6C
:10418C00FC46000814470008700000204C4700084B
:10419C007C470008B0470008DC470008740000208A
:1041AC00144800083C48000868480008904800087B
:1041BC00B4480008CC480008E44800081849000836
:1041CC005849000894490008D04900080C4A0008D6
:1041DC003C4A0008404A000880B400AF0A4B1B68F8
:1041EC00002B01D100230AE0074B1B681B681B68DE
:1041FC0003F02003202B0CBF01230023DBB2184655
:10420C00BD4680BC704700BF7001002080B400AF79
:10421C00074B1B68002B01D1002304E0044B1B68E7
:10422C001B685B68DBB21846BD4680BC704700BF9C
:10423C007001002080B582B000AF07E0FFF7E6FF09
:10424C000346FB71FB791846FFF72AFCFFF7C4FF06
:10425C000346002BF2D100BF00BF0837BD4680BD1E
:10426C0080B582B000AF0346FB71FB790D2B02D0F9
:10427C00FB790A2B03D10E48FFF7D3FC14E0FB7932
:10428C00082B02D0FB797F2B03D10A48FFF7C9FC1E
:10429C000AE0FB791F2B07D9FB797E2B04D8FB791D
:1042AC001846FFF7B1FCFFE700BF0837BD4680BDDD
:1042BC003C4A0008784A000880B500AF0A4B1B88BE
:1042CC00002B0ED0084B1B88013B9AB2064B1A8070
:1042DC00054B1B881A46054B002199540820FFF703
:1042EC00BFFF00BF80BD00BF8007002080050020FD
:1042FC0080B582B000AF0346FB71FB790D2B02D069
:10430C00FB790A2B0DD11F4B1B88002B07D01D4BA3
:10431C001B881A461C4B0021995401232DE00023C5
:10432C002BE0FB79082B02D0FB797F2B03D1FFF715
:10433C00C3FF002321E0FB791F2B02D9FB797E2BD5
:10434C0001D9002319E00F4B1B88B3F5FF7F13D85D
:10435C000C4B1B885A1C91B20A4A118019460A4A06
:10436C00FB795354074B1B881A46074B0021995471
:10437C00FB791846FFF774FF002318460837BD4633
:10438C0080BD00BF800700208005002080B5ADF502
:10439C00027D00AFFFF74EFFFFF75CFC3DE097F8A6
:1043AC0007321846FFF7A4FF0346002B35D0002335
:1043BC00C7F800323B4640F2FF121F491846FCF783
:1043CC0095F907F50273A3F50273002283F8FF2118
:1043DC0007F5007207F206213B461846FFF72CFD45
:1043EC000346002B08D197F80632D7F80022114665
:1043FC001846FFF7EDFD03E000210620FFF7E8FD6E
:10440C000E4B00221A804FF4007200210A48FBF771
:10441C0069FF0B48FFF705FC07E007F20723184676
:10442C00FFF76AFB0346002BB9D1FFF713FC00BF63
:10443C0007F50277BD4680BD80050020800700206F
:10444C00C046000880B483B000AF78607B681A68FF
:10445C007B685B68134418460C37BD4680BC7047BC
:10446C0080B483B000AF7860084B1A687B681A6020
:10447C00074B1A687B685A60064B1A687B689A600F
:10448C00002318460C37BD4680BC704700FC000862
:10449C0004FC000808FC00082DE9B04F88B000AF00
:1044AC0078607868FFF7CEFF02467B689A60FEF76B
:1044BC00BFFB0023BB60294B3B6101237B6107F1F0
:1044CC00180207F1080311461846FEF799FC03463B
:1044DC00FB77FB7F002B03D0FEF7D0FBFB7F37E095
:1044EC007B681B6800229A46934652465B461B49E2
:1044FC000220FEF72DFB0346FB77FB7F002B03D03E
:10450C00FEF7BCFBFB7F23E07B685B6800229846D0
:10451C00914642464B4612490220FEF719FB0346D0
:10452C00FB77FB7F002B03D0FEF7A8FBFB7F0FE094
:10453C007B689B6800221C46154622462B4609497F
:10454C000220FEF705FB0346FB77FEF797FBFB7F8C
:10455C0018462037BD46BDE8B08F00BF00FC0008F0
:10456C0004FC000808FC000890B583B000AF78602C
:10457C007B681B68B3F1FF3F04D07B685B68B3F1C9
:10458C00FF3F01D100231DE07B681B68002B05D089
:10459C007B681B684EF66022934201D9002311E020
:1045AC007B685B68B3F57A7F01D900230AE07B68EE
:1045BC009C687868FFF746FF03469C4201D00023B5
:1045CC0000E0012318460C37BD4690BDFCF738FFC0
:1045DC000B480C490C4A002302E0D458C450043355
:1045EC00C4188C42F9D3094A094C002301E013602A
:1045FC000432A242FBD3FBF7D5FDFEF7CDFE70478C
:10460C00000000207C000020F04B00087C00002003
:10461C0084070020FEE70000F8B500BFF8BC08BC1A
:10462C009E467047F8B500BFF8BC08BC9E46704764
:10463C000D0A3D3D3D3D3D3D3D3D3D3D3D3D3D3D01
:10464C003D3D3D3D3D3D3D3D3D3D3D3D3D3D3D3D8E
:10465C003D3D0D0A000000002020434C4920696EAE
:10466C00697469616C697A65642E0D0A000000003A
:10467C00202054797065202768656C702720666F40
:10468C007220636F6D6D616E64732E0D0A000000F5
:10469C003D3D3D3D3D3D3D3D3D3D3D3D3D3D3D3D3E
:1046AC003D3D3D3D3D3D3D3D3D3D3D3D3D3D3D3D2E
:1046BC000D0A00003E20000073746172740000004B
:1046CC0068656C70000000003F00000067657400B6
:1046DC00646972656374696F6E5F74696D650000FF
:1046EC0070776D5F647574790000000073657400F9
:1046FC00507573686572206D6F746F72207374617E
:10470C00727465642E0D0A004572726F723A204DF8
:10471C00697373696E672076616C75652E205573AD
:10472C006167653A207365742064697265637469A6
:10473C006F6E5F74696D65203C6D733E0D0A0000F1
:10474C00446972656374696F6E2074696D6520735A
:10475C00657420746F20256C75206D73202873612F
:10476C0076656420746F20466C617368290D0A00AD
:10477C00446972656374696F6E2074696D6520732A
:10478C00657420746F20256C75206D732028466C21
:10479C006173682073617665206661696C65642954
:1047AC000D0A00004572726F723A20496E76616C88
:1047BC0069642076616C75652E2052616E67653A6E
:1047CC0020312D3630303030206D730D0A00000052
:1047DC004572726F723A204D697373696E672076F9
:1047EC00616C75652E2055736167653A207365742D
:1047FC002070776D5F64757479203C302D313030CA
:10480C00303E0D0A0000000050574D20647574793D
:10481C002073657420746F20256C75202873617665
:10482C00656420746F20466C617368290D0A000062
:10483C0050574D20647574792073657420746F2003
:10484C00256C752028466C61736820736176652031
:10485C006661696C6564290D0A0000004572726F0F
:10486C00723A20496E76616C69642076616C75656C
:10487C002E2052616E67653A20302D313030300D6C
:10488C000A00000043757272656E7420646972656B
:10489C006374696F6E2074696D653A20256C7520A0
:1048AC006D730D0A0000000043757272656E742002
:1048BC0050574D20647574793A20256C750D0A009B
:1048CC000D0A417661696C61626C6520636F6D6D78
:1048DC00616E64733A0D0A00202073746172742047
:1048EC0020202020202020202020202020202020BC
:1048FC002020202D205374617274207075736865AC
:10490C0072206D6F746F720D0A00000020207365A9
:10491C007420646972656374696F6E5F74696D6528
:10492C00203C6D733E20202D2053657420646972E9
:10493C00656374696F6E2074696D652028312D363E
:10494C0030303030206D73290D0A00002020736543
:10495C00742070776D5F64757479203C76616C752A
:10496C00653E20202020202D205365742050574D6B
:10497C002064757479206379636C652028302D313F
:10498C00303030290D0A00002020676574206469DE
:10499C0072656374696F6E5F74696D652020202089
:1049AC002020202D204765742063757272656E740B
:1049BC0020646972656374696F6E2074696D650D2E
:1049CC000A00000020206765742070776D5F6475A5
:1049DC007479202020202020202020202020202D11
:1049EC00204765742063757272656E742050574D44
:1049FC002064757479206379636C650D0A0000007E
:104A0C00202068656C70202F203F20202020202043
:104A1C0020202020202020202020202D2053686FB3
:104A2C007720746869732068656C700D0A0000004B
:104A3C000D0A0000556E6B6E6F776E20636F6D6D97
:104A4C00616E642E2054797065202768656C702720
:104A5C0020666F7220617661696C61626C6520639F
:104A6C006F6D6D616E64732E0D0A000008200800D6
:104A7C000020202020202020202028282828282022
:104A8C00202020202020202020202020202020201A
:104A9C002088101010101010101010101010101082
:104AAC001004040404040404040404101010101072
:104ABC00101041414141414101010101010101013C
:104ACC00010101010101010101010101101010108E
:104ADC00101042424242424202020202020202020E
:104AEC000202020202020202020202021010101062
:104AFC00200000000000000000000000000000008A
:104B0C000000000000000000000000000000000099
:104B1C000000000000000000000000000000000089
:104B2C000000000000000000000000000000000079
:104B3C000000000000000000000000000000000069
:104B4C000000000000000000000000000000000059
:104B5C000000000000000000000000000000000049
:104B6C000000000000000000000000000000000039
:104B7C00000000000000000000000000010203041F
:104B8C0006070809000000000102030402030405E3
:104B9C00060708090A0B0C0D0E0F1010010200007D
:104BAC00232D302B20000000686C4C006566674597
:104BBC0046470000303132333435363738394142CC
:104BCC00434445460000000030313233343536372B
:0C4BDC0038396162636465660000000007
:044BE800750100084B
:044BEC004D0100086F
:104BF0000400002000000000000000000000000091
:104C000000000000000000000000000000000000A4
:104C10000000000000000000000000000000000094
:104C20000000000000000000000000000000000084
:104C30000000000000000000000000000000000074
:104C40000000000000000000000000000000000064
:104C50000000000000127A001000000001000000B7
:0C4C6000C4090000FA000000F40100008C
:04000005080045D9D1
:00000001FF
