:020000040800F2
:1000000000500020FD600008BD3E0008C53E00080D
:10001000CD3E0008D53E0008DD3E0008000000008F
:10002000000000000000000000000000E53E0008A5
:10003000F13E000800000000FD3E0008093F0008F6
:1000400045610008456100084561000845610008F8
:1000500045610008456100084561000845610008E8
:1000600045610008456100084561000845610008D8
:1000700045610008456100084561000845610008C8
:1000800045610008456100084561000845610008B8
:10009000456100084561000845610008153F0008FA
:1000A0004561000845610008456100084561000898
:1000B0004561000845610008456100084561000888
:1000C0004561000845610008456100084561000878
:1000D00045610008393F0008456100084561000896
:1000E0004561000845610008456100080000000006
:1000F0000000000000000000000000000000000000
:0C01000000000000000000005FF808F1A3
:10010C000348044B834202D0034B03B1184770479A
:10011C009400002094000020000000000548064BCD
:10012C001B1AD90F01EBA301491002D0034B03B1E9
:10013C001847704794000020940000200000000035
:10014C0010B5064C237843B9FFF7DAFF044B13B113
:10015C000448AFF300800123237010BD98000020E9
:10016C00000000004861000808B5044B1BB10449AD
:10017C000448AFF30080BDE80840CFE70000000062
:10018C009C0000204861000880F0004002E000BFA5
:10019C0081F0004142001FBF5FEA410392EA030F66
:1001AC007FEA226C7FEA236C6AD04FEA1262D2EBB0
:1001BC001363C1BFD218414048404140B8BF5B42B5
:1001CC00192B88BF704710F0004F40F4000020F04E
:1001DC007F4018BF404211F0004F41F4000121F064
:1001EC007F4118BF494292EA030F3FD0A2F10102AE
:1001FC0041FA03FC10EB0C00C3F1200301FA03F1EC
:10020C0000F0004302D5494260EB4000B0F5000F0E
:10021C0013D3B0F1807F06D340084FEA310102F1CD
:10022C000102FE2A51D2B1F1004F40EBC25008BF7F
:10023C0020F0010040EA03007047490040EB000049
:10024C00013A28BFB0F5000FEDD2B0FA80FCACF14A
:10025C00080CB2EB0C0200FA0CF0AABF00EBC25077
:10026C0052421843BCBFD0401843704792F0000F65
:10027C0081F4000106BF80F400000132013BB5E7B8
:10028C004FEA41037FEA226C18BF7FEA236C21D02E
:10029C0092EA030F04D092F0000F08BF0846704793
:1002AC0090EA010F1CBF0020704712F07F4F04D161
:1002BC00400028BF40F00040704712F100723CBF74
:1002CC0000F50000704700F0004343F0FE4040F49E
:1002DC00000070477FEA226216BF08467FEA23635C
:1002EC000146420206BF5FEA412390EA010F40F447
:1002FC00800070474FF0000304E000BF10F0004393
:10030C0048BF40425FEA000C08BF704743F0964379
:10031C0001464FF000001CE050EA010208BF704794
:10032C004FF000030AE000BF50EA010208BF70471B
:10033C0011F0004302D5404261EB41015FEA010C30
:10034C0002BF84460146002043F0B64308BFA3F128
:10035C008053A3F50003BCFA8CF2083AA3EBC2530A
:10036C0010DB01FA02FC634400FA02FCC2F1200229
:10037C00BCF1004F20FA02F243EB020008BF20F060
:10038C000100704702F1200201FA02FCC2F12002C6
:10039C0050EA4C0021FA02F243EB020008BF20EABB
:1003AC00DC7070474FF0FF0C1CEAD0521EBF1CEAE9
:1003BC00D15392EA0C0F93EA0C0F6FD01A4480EAD7
:1003CC00010C400218BF5FEA41211ED04FF00063C0
:1003DC0043EA501043EA5111A0FB01310CF00040EC
:1003EC00B1F5000F3EBF490041EAD3715B0040EA12
:1003FC00010062F17F02FD2A1DD8B3F1004F40EBE2
:10040C00C25008BF20F00100704790F0000F0CF0B4
:10041C00004C08BF49024CEA502040EA51207F3A78
:10042C00C2BFD2F1FF0340EAC250704740F4000053
:10043C004FF00003013A5DDC12F1190FDCBF00F044
:10044C0000407047C2F10002410021FA02F1C2F1F2
:10045C00200200FA02FC5FEA310040F1000053EA8E
:10046C004C0308BF20EADC70704792F0000F00F0DC
:10047C00004C02BF400010F4000F013AF9D040EAE2
:10048C000C0093F0000F01F0004C02BF490011F476
:10049C00000F013BF9D041EA0C018FE70CEAD15374
:1004AC0092EA0C0F18BF93EA0C0F0AD030F0004CF4
:1004BC0018BF31F0004CD8D180EA010000F00040A8
:1004CC00704790F0000F17BF90F0004F084691F066
:1004DC00000F91F0004F14D092EA0C0F01D14202A0
:1004EC000FD193EA0C0F03D14B0218BF084608D169
:1004FC0080EA010000F0004040F0FE4040F40000B3
:10050C00704740F0FE4040F4400070474FF0FF0C45
:10051C001CEAD0521EBF1CEAD15392EA0C0F93EA8C
:10052C000C0F69D0A2EB030280EA010C49024FEADE
:10053C00402037D04FF0805343EA111143EA101397
:10054C000CF000408B4238BF5B0042F17D024FF44F
:10055C00000C8B4224BF5B1A40EA0C00B3EB510F2A
:10056C0024BFA3EB510340EA5C00B3EB910F24BF13
:10057C00A3EB910340EA9C00B3EBD10F24BFA3EB98
:10058C00D10340EADC001B0118BF5FEA1C1CE0D160
:10059C00FD2A3FF650AF8B4240EBC25008BF20F013
:1005AC00010070470CF0004C4CEA50207F32C2BF67
:1005BC00D2F1FF0340EAC250704740F400004FF004
:1005CC000003013A37E792F0000F00F0004C02BF35
:1005DC00400010F4000F013AF9D040EA0C0093F0FF
:1005EC00000F01F0004C02BF490011F4000F013B59
:1005FC00F9D041EA0C0195E70CEAD15392EA0C0FC1
:10060C0008D142027FF47DAF93EA0C0F7FF470AFF8
:10061C00084676E793EA0C0F04D14B023FF44CAF3B
:10062C0008466EE730F0004C18BF31F0004CCAD1D0
:10063C0030F000427FF45CAF31F000437FF43CAF0C
:10064C005FE700BF4FF0FF3C06E000BF4FF0010C2E
:10065C0002E000BF4FF0010C4DF804CD4FEA400210
:10066C004FEA41037FEA226C18BF7FEA236C11D05A
:10067C0001B052EA530C18BF90EA010F58BFB2EB0D
:10068C00030088BFC81738BF6FEAE17018BF40F08D
:10069C00010070477FEA226C02D15FEA402C05D141
:1006AC007FEA236CE4D15FEA412CE1D05DF8040BC6
:1006BC00704700BF844608466146FFE70FB5FFF759
:1006CC00C9FF002848BF10F1000F0FBD4DF808ED11
:1006DC00FFF7F4FF0CBF012000205DF808FB00BF02
:1006EC004DF808EDFFF7EAFF34BF012000205DF85C
:1006FC0008FB00BF4DF808EDFFF7E0FF94BF0120A9
:10070C0000205DF808FB00BF4DF808EDFFF7D2FFA5
:10071C0094BF012000205DF808FB00BF4DF808EDE8
:10072C00FFF7C8FF34BF012000205DF808FB00BFB5
:10073C0042000ED2B2F1FE4F0BD34FF09E03B3EB3F
:10074C00126209D44FEA002343F0004323FA02F06B
:10075C0070474FF00000704712F1610F01D1420257
:10076C0002D14FF0FF3070474FF00000704700BFD0
:10077C0011F0FF01034600F0030239D08ABB026876
:10078C0010B501EB012E0EEB0E4E8EEA0204A2F117
:10079C00013323EA0203A4F1013222EA04021343D7
:1007AC0013F0803F0FD150F8044F84EA0E0CA4F1E3
:1007BC000133ACF1013223EA040322EA0C021343A5
:1007CC0013F0803FEFD0037823B936E010F8013FE7
:1007DC00002B32D09942F9D110BD8A4228D09A0709
:1007EC0029D01A7818460133002AF6D110467047E2
:1007FC00CAB90268A2F1013323EA020313F0803F65
:10080C0008D150F8042FA2F1013323EA020313F0AC
:10081C00803FF6D003785BB110F8013F002BFBD181
:10082C007047990705D0184613F8012B002AF8D108
:10083C0070471846DDE71846A1E7184610BD00BF03
:10084C0020F0030110F00300C0F1000051F8043B4C
:10085C0000F1040C4FEACC0C6FF000021CBF22FA22
:10086C000CF213434FF0010C4CEA0C2C4CEA0C4CE0
:10087C00A3EB0C0222EA030212EACC1204BF51F8D9
:10088C00043B0430F4D0C2F1000102EA0102B2FAD6
:10089C0082F2C2F11F0200EBD200704770B50F4B11
:1008AC000F4DAB42A3EB050607D00024B61055F84C
:1008BC00043B01349847A642F9D805F03FFC094D9A
:1008CC00094B5E1BAB424FEAA60606D0002455F836
:1008DC00043B01349847A642F9D870BD80720008D9
:1008EC0080720008807200088472000870B5860758
:1008FC0047D0541E002A3ED00346CAB201E0013C48
:10090C0039D303F8012B9D07F9D1032C2CD9CDB287
:10091C0005EB05250F2C1A4605EB054534D9A4F13A
:10092C00100C2CF00F0603F1100EB6444FEA1C1CF1
:10093C00C2E90055C2E9025510327245F8D10CF1EA
:10094C00010214F00C0F03EB021204F00F0C13D085
:10095C00ACF1040323F003030433134442F8045BA7
:10096C009342FBD10CF003042CB1C9B21C4403F824
:10097C00011BA342FBD170BD64461346002CF4D17D
:10098C00F9E703461446C0E7A446E1E7014B1868B3
:10099C00704700BF0000002088420ED98B1883429C
:1009AC000BD900EB020C002A6DD0624613F801CD76
:1009BC00994202F801CDF9D170470F2A0FD803469E
:1009CC0002F1FF3C002A5ED00CF1010C013B8C447F
:1009DC0011F8012B614503F8012FF9D1704740EA5A
:1009EC0001039B0750D1A2F1100370B501F1200C4B
:1009FC0023F00F0501F1100E00F11004AC441B099B
:100A0C005EF8105C0EF1100E44F8105C5EF81C5C85
:100A1C00103444F81C5C5EF8185C44F8185C5EF802
:100A2C00145CE64544F8145CEAD1013312F00C0F67
:100A3C0001EB031102F00F0400EB031328D08E46D8
:100A4C00043C24F003064FEA940C1E441C1F5EF871
:100A5C00045B44F8045FB442F9D10CF1010402F0D8
:100A6C00030203EB840301EB840102F1FF3C4AB166
:100A7C000CF1010C013B8C4411F8012B614503F87E
:100A8C00012FF9D170BD7047034602F1FF3C9BE783
:100A9C002246EAE70A22002100F0B0B80A2300221D
:100AAC0000F09CB8242B2DE9F84F42D8012B40D0F4
:100ABC001F468E468046484875461EF801BB10F806
:100ACC000B4014F00804F7D1BBF12D0F6FD06FF071
:100ADC000049BBF12B0F04BF9EF800B005F1020ECC
:100AEC007BBBBBF1300F4CD00A273B460025B9FB32
:100AFC00F7F6284607FB169A05E03BD0012507FBC5
:100B0C0000C01EF801BBABF1300CBCF1090F06D9CB
:100B1C00ABF1410CBCF1190F1AD8ABF1370C634592
:100B2C001FDDB5F1FF3FECD08642E6D24FF0FF352A
:100B3C00E7E7FFF72BFF1622034600201A60BDE8FB
:100B4C00F88F102BD2D1BBF1300F23D01F46CDE73D
:100B5C00ABF1610CBCF1190F03D8ABF1570C634529
:100B6C00DFDC6B1C2BD054B9002AE8D085BB11609C
:100B7C00BDE8F88FE245C1DA4FF0FF35C1E74042DE
:100B8C00F2E79EF8003003F0DF03582B08D008275B
:100B9C003B46ABE79EF8000000F0DF005828D5D1AB
:100BAC0010279EF801B03B460EF1020E9EE79EF810
:100BBC0000B04FF00049012405F1020E90E722230A
:100BCC00C8F8003032B10EF1FF3148461160CFE762
:100BDC008146F8E74846B2E70D71000862E700BFAE
:100BEC008C4600B586461346034A714610685DF87C
:100BFC0004EB624656E700BF000000208C4600B5AF
:100C0C0086461346034A714610685DF804EB62464B
:100C1C0048E700BF0000002040EA01039B0710B525
:100C2C0024D1032A22D98E468446DEF80040714630
:100C3C00A4F1013323EA040313F0803F0EF1040EF8
:100C4C0015D1043A032A4CF8044BEED8714601F145
:100C5C00FF3E52B163461EF8011F541E03F8011BE0
:100C6C0041B122469C46002AF4D110BD844601F1C4
:100C7C00FF3EEEE79444002CF7D003F8011B6345CC
:100C8C00FBD110BD80EA010C1CF0030F37D110F022
:100C9C00030C20F0030021F0030150F8042B08BFD3
:100CAC0051F8043B0ED08CF0030C6FF07F434FEAED
:100CBC00CC0C23FA0CFC51F8043B42EA0C0243EA3C
:100CCC000C0300BFA2F1013C9A4201BF2CEA020CBA
:100CDC001CF0803F50F8042B51F8043BF2D04FEA43
:100CEC0002604FEA1222012828BFB0EB036F08BF45
:100CFC001B0AF4D003F0FF03000EC01A704710F06B
:100D0C00030F0AD010F8012B11F8013B012A28BF60
:100D1C009A42F4D0A2EB030070474DF8045D50F8F2
:100D2C00042B01F0030521F0030151F8043B022DC3
:100D3C0026D04DD822F07F45B5EB132FA2F1013C04
:100D4C002CEA020C0DD11CF0803C08BF51F8043B7E
:100D5C000AD185EA0205B5EB036F0CD150F8042BD0
:100D6C00E8E74FEA13235BE03CF07F4C54D10B785F
:100D7C004FEA126554E04FEA126503F0FF034FE0AF
:100D8C004FEA0245A2F1013C4FEA15452CEA020C50
:100D9C00B5EB134F18D11CF0803C08BF51F8043B45
:100DAC0007D185EA0205B5EB034F09D150F8042BA6
:100DBC00E6E75FEA0C4C2FD10B884FEA12452FE087
:100DCC004FEA03434FEA12454FEA134328E000BFB2
:100DDC0002F0FF05B5EB136FA2F1013C2CEA020CFB
:100DEC000DD11CF0803C08BF51F8043B0AD185EAB8
:100DFC000205B5EB032F0AD150F8042BE8E74FEAB4
:100E0C0013630DE012F0FF0F06D051F8043B4FEACC
:100E1C00122523F07F4303E04FF0000020BC704705
:100E2C0005F0FF0203F0FF00012828BF904204BF29
:100E3C002D0A1B0AF4D0A2EB000020BC704700BFA7
:100E4C0008B410B5002A04469DB034DB4FF4027C84
:100E5C004FF00003ADF814C01B934FF6FF7C0291CA
:100E6C00069120AB15D0013A0492079202A91F9A61
:100E7C000193ADF816C000F051F9421C01DA8B2336
:100E8C0023600022029B1A701DB0BDE8104001B017
:100E9C0070470492079202A91F9A0193ADF816C0ED
:100EAC0000F03CF9431C01DA8B2323601DB0BDE834
:100EBC00104001B070478B234FF0FF302360F5E7F3
:100ECC000CB410B5204B00291C689CB036DB4FF0DD
:100EDC0000034FF402721B934FF6FF7C02900690B6
:100EEC00ADF814201FAB16D001391E9A049107914E
:100EFC00204602A90193ADF816C000F00FF9421C70
:100F0C0001DA8B2323600022029B1A701CB0BDE80F
:100F1C00104002B070470491079120461E9A02A916
:100F2C000193ADF816C000F0F9F8431C01DA8B23DD
:100F3C0023601CB0BDE8104002B070478B234FF00B
:100F4C00FF302360F5E700BF000000202DE9F047DB
:100F5C001D468F680C46AF4216460B6836D8B1F961
:100F6C000CC01CF4906F0ED13D46184631462A46F3
:100F7C00FFF712FD0020A368DF1B2368A7602B443A
:100F8C002360BDE8F0874A69096902EB42025F1AE7
:100F9C0002EBD2726B1C52103B44934292BF9146AF
:100FAC0099461A461CF4806F804611D0114600F009
:100FBC00F3F9824600B33A46216900F0CBFAA389D3
:100FCC0023F4906343F08003A38105E02F46CCE724
:100FDC0000F036FB824658B10AEB0703A9EB070772
:100FEC00A760C4F810A02F46C4F814902360BCE787
:100FFC004046216900F050FA0C22A3894FF0FF30D3
:10100C0043F04003C8F80020A381BAE72DE9F04F64
:10101C00936883B0924617680190002B76D04FF0FE
:10102C00000B0C465D468B680A6848E0B4F90CC0AE
:10103C001CF4906F2FD0D4E90403A2EB000803EB4F
:10104C00430202EBD27208F1010152102944914281
:10105C0092BF914689460A461CF4806F39D01146DE
:10106C00019800F099F9064600283DD042462169C6
:10107C0000F070FAA28922F4906242F08002A28100
:10108C0006EB0800A9EB08022661A8462E46A260D2
:10109C002060C4F8149032465946FFF77DFCDAF80C
:1010AC000810A3682268A3EB08033244491BA36011
:1010BC002260CAF8081049B3D7E900B5083798463A
:1010CC001046002DF8D09D421E46AFD2A8462E46A3
:1010DC00E1E70146019800F0B3FA06460028CFD1AB
:1010EC000198216900F0D8F90C21A389019D43F0E6
:1010FC00400329600022A3814FF0FF300023CAF87F
:10110C000820CAF8043003B0BDE8F08F002000239B
:10111C00CAF8043003B0BDE8F08F00BF2DE9F04FE2
:10112C001C468B8989461D06824693469DB003D585
:10113C000B69002B00F0EE80002343F22002099390
:10114C009BF8003001277C4E0394ADF82920002B2E
:10115C0071D05D4603E015F8013F002B73D0252BB1
:10116C00F9D1B5EB0B0471D12A78002A63D0002396
:10117C004FF0FF320135CDE90523049307938DF829
:10118C0053301A9306E02546049B801B07FA00F0A7
:10119C00034304932C46052214F8011B304600F03F
:1011AC0059FCA3460028EED1049BD90644BF20224B
:1011BC008DF853201A0748BF2B22297848BF8DF889
:1011CC0053202A294FD1039A116804320029039223
:1011DC007BDB079169782E295BD0584C0322204683
:1011EC0000F038FC38B14022049B001B82401343B2
:1011FC000BF1010B04931BF8011B062250488DF8D0
:10120C00281000F027FC002865D04E4B002B55D041
:10121C0003A900914A4650464B4B04A9AFF30080FA
:10122C008046B8F1FF3F06D0099B434409939BF8D5
:10123C000030002B8DD1B9F80C305B0679D40998AD
:10124C001DB0BDE8F08FB5EB0B04F4D023465A4625
:10125C0049465046FFF77AFE0130ECD0099B2A78BC
:10126C002344099381E7A1F13002092A88BFAB46D8
:10127C00B1D8079B00E00134217803EB830302EB28
:10128C004303A1F13002092AF5D92E29A34607936D
:10129C00A3D19BF801102A2927D1039B0BF1020043
:1012AC001A680433002A0393B8BF4FF0FF339BF83E
:1012BC00021005928346B8BF05938EE7039B073354
:1012CC0023F0070308330393AEE7494243F00203CC
:1012DC00079104937EE703A900914A4650461A4BA6
:1012EC0004A900F071FA80469BE70023A1F13002BB
:1012FC00092A0BF1010B05933FF66FAF1BF8011F89
:10130C0003EB830302EB4303A1F13002092AF5D965
:10131C00059362E7402100F03FF8C9F80000C9F8D6
:10132C00100018B14023C9F8143005E70C23CAF893
:10133C0000304FF0FF3083E73C7200084472000825
:10134C004872000800000000590F000870B5114EDB
:10135C00054633680C46BBB12146284600F0C6FB57
:10136C00431C01460CD0C41C24F00304A04205D03D
:10137C002846611A00F0BAFB013001D0204670BD3E
:10138C004FF0FF34204670BD194600F0AFFB3060C3
:10139C00E2E700BFF00100202DE9F843CD1C25F059
:1013AC00030508350C2D38BF0C25002D064618DB1F
:1013BC00A94216D8DFF8DC8000F048FBD8F80420EE
:1013CC00A2B1144603E0636822467BB11C46236835
:1013DC005B1BF8D40B2B1FD89442636854D053601A
:1013EC000CE00C2333600020BDE8F883294630461E
:1013FC00FFF7ACFF431C044619D00560304600F0E3
:10140C0027FB04F10B00231D20F00700C21A1CBFA0
:10141C001B1AA350BDE8F88361199442256014BFD0
:10142C005160C8F80410635163684B60E6E7D8F864
:10143C0004701FB33C467F68002FFBD123683946EC
:10144C00304604EB030900F051FB814516D12368AB
:10145C003046ED1A2946FFF779FF01300ED023688C
:10146C00D8F804202B442360536883B1A34203D0E3
:10147C001A465B689C42FBD10023B0E70C23304634
:10148C00336000F0E5FAAEE7C8F80430B6E7C8F808
:10149C000470B3E7F0010020002950D038B551F8A2
:1014AC00043C0C1F002BB8BFE418054600F0CEFA24
:1014BC00274A13682BB1A3420CD9216860188342C8
:1014CC002CD0284663601460BDE8384000F0C0BAE8
:1014DC00A3420FD81A465B68002BF9D1116850183B
:1014EC00844217D02CD3636054602846BDE8384042
:1014FC0000F0AEBA11685018A04214D020D8216860
:10150C0060188342EFD118685B680844C4E9000393
:10151C005460EAE723680B441360E6E718685B68DD
:10152C0008442060CDE720680144501883421160C4
:10153C00DBD1D3E900040144C2E90014D5E77047BC
:10154C000C2328462B60BDE8384000F081BA00BF60
:10155C00F4010020844641EA000313F0030349D14F
:10156C00403A23D30B6803604B6843608B688360FD
:10157C00CB68C3600B6903614B6943618B69836101
:10158C00CB69C3610B6A03624B6A43628B6A8362E9
:10159C00CB6AC3620B6B03634B6B43638B6B8363D1
:1015AC00CB6BC36340304031403ADBD230320BD38B
:1015BC000B6803604B6843608B688360CB68C360C7
:1015CC0010301031103AF3D20C3205D351F8043BE1
:1015DC0040F8043B043AF9D2043208D0D2071CBFBD
:1015EC0011F8013B00F8013B01D30B8803806046E6
:1015FC00704700BF082A13D38B07B1D010F0030338
:10160C00AED0C3F10403D21ADB071CBF11F8013BA7
:10161C0000F8013BA4D331F8023B20F8023B9FE7D2
:10162C00043AD9D3013A11F8013B00F8013BF9D245
:10163C000B7803704B7843708B78837060467047DF
:10164C002DE9F041144641B30AB306460D4600F0AD
:10165C005FFA8442074602D8B4EB500F13D82146E8
:10166C003046FFF799FE804650B1BC4222462946CF
:10167C0028BF3A46FFF76EFF29463046FFF70CFFAE
:10168C004046BDE8F081A8464046BDE8F081A04642
:10169C00FFF702FF4046BDE8F0811146BDE8F0417E
:1016AC00FFF77ABE2DE9F84F92461F460A698B6800
:1016BC000C469A42B8BF1A46CAF8002091F843303B
:1016CC000646DDF8289013B10132CAF800202268D2
:1016DC0091065FD5DAF800300233CAF80030226880
:1016EC0012F0060F11461DD1E1689942D8BF114680
:1016FC0018DD4FF0000804F1190B05E0E568DAF885
:10170C000030ED1A45450CDD01235A46394630466A
:10171C00C847013008F10108F0D14FF0FF30BDE8A7
:10172C00F88F216894F84330003B18BF01238A06D8
:10173C000AD53021E21882F8431094F845105A1C4F
:10174C002244023382F843103946304604F14302F6
:10175C00C8470130E1D0D4E902202368DAF8005000
:10176C0003F00603042B21691BD08A4220DD4FF0C5
:10177C000008521A904400251A3401E0454517DA46
:10178C000123224639463046C847013005F1010590
:10179C00F4D1C2E712F0060F0DD0003B18BF0123A5
:1017AC00D2E7401B8A4220EAE078E2DC0028E2DC47
:1017BC000020BDE8F88FE168DAF800309942D8BF14
:1017CC00114696DCAEE700BF2DE9F04717460A7EBE
:1017DC0084B00C46064698460C9D01F1430C002A39
:1017EC0035D0A2F15803D9B2202969D8202B67D85B
:1017FC00DFE813F0E600660066006600660066002F
:10180C0066006600660066006600AC00700066004C
:10181C006600660066007000660066006600660082
:10182C0021008300C60066006600B60066008300D7
:10183C0066006600EC002B682268181D6169286040
:10184C0010061B6802D4520600F1E08019600023D8
:10185C00E14623613B4621463046CDF8008003AA81
:10186C00FFF720FF013020D04A4639463046236925
:10187C00C047013019D02368E0689B07DDF80C9055
:10188C0018D5484516DD002504F1190A04E0E06876
:10189C00A0EB0903AB420DDD01235246394630461D
:1018AC00C047013005F10105F1D14FF0FF3004B014
:1018BC00BDE8F0874845B8BF484604B0BDE8F0879E
:1018CC00012084F8422004F142090023206184F8AD
:1018DC004330BFE72A682368111D1806296002D41B
:1018EC00590600F195801068014600286268C0F224
:1018FC0093804FF00A0E534815E020682B6810F0C7
:10190C00800F53F8041B02D1400648BF89B26F2ADE
:10191C0014BF4FF00A0E4FF0080E4A482B600023FC
:10192C00626884F84330002AA26051DB236823F0FC
:10193C000403236000294BD1002A7BD1E146BEF180
:10194C00080F56D0ACEB0903236183E72A6801200A
:10195C00116804322A6004F1420984F84210B4E799
:10196C002B6800211A1D2A60D3F800906268484643
:10197C0000F070F8002863D0A0EB09006060A4E7C9
:10198C00236843F02003236078222F4884F84520F5
:10199C002A6813F0800F52F8041B03D113F0400F88
:1019AC0018BF89B22A60DA0744BF43F020032360D2
:1019BC0019B9236823F0200323604FF0100EAEE713
:1019CC005823204884F845302368E1E72368DBE797
:1019DC007546E146B1FBF5F30A4605FB131A1946A9
:1019EC0010F80A30AA4209F8013DF3D2BEF1080FF3
:1019FC00A8D12368DD07A5D5626823699A42A1DCCA
:101A0C00302309F1FF3989F800309BE719801EE774
:101A1C00B2F90010084668E72D20002AA26084F86D
:101A2C00430002DB23F0040323600A250548AE467D
:101A3C004942CEE7037804F1420984F842307EE74C
:101A4C00606842E75072000864720008704700BF7B
:101A5C00704700BF5FFA81FC810744D00346511EDA
:101A6C0022B909E09A0709D0013905D31846027842
:101A7C0001336245F6D170470020704718460329A0
:101A8C000CD80029F8D00346014401E08B42F3D076
:101A9C00184613F8012B6245F8D1704710B50CEBC2
:101AAC000C24024604EB044402E00439032915D942
:101ABC00104652F8043B6340A3F1013E2EEA0303A7
:101ACC0013F0803FF1D00346014401E08B4208D073
:101ADC00184613F8012B6245F8D110BD10460029A9
:101AEC00F1D1002010BD1146C9E700BF002238B566
:101AFC00064D044608462A6002F054FA431C00D0F6
:101B0C0038BD2B68002BFBD0236038BDF8010020BA
:101B1C0051F8043C181F002BBCBF0B58C018704761
:101B2C0080B400AF00BFBD4680BC704780B582B0AA
:101B3C0000AF78607B68002B01D1012341E07B680A
:101B4C0093F83D30DBB2002B06D17B68002283F882
:101B5C003C20786802F0DCF87B68022283F83D2098
:101B6C007B681A687B6804331946104600F092F9BA
:101B7C007B68012283F846207B68012283F83E2093
:101B8C007B68012283F83F207B68012283F8402088
:101B9C007B68012283F841207B68012283F8422074
:101BAC007B68012283F843207B68012283F8442060
:101BBC007B68012283F845207B68012283F83D2055
:101BCC00002318460837BD4680BD000080B584B0A0
:101BDC0000AF786039603B68002B09D17B6893F8C3
:101BEC003E30DBB2012B14BF01230023DBB222E019
:101BFC003B68042B09D17B6893F83F30DBB2012B97
:101C0C0014BF01230023DBB215E03B68082B09D17C
:101C1C007B6893F84030DBB2012B14BF0123002307
:101C2C00DBB208E07B6893F84130DBB2012B14BFC8
:101C3C0001230023DBB2002B01D001235EE03B68C3
:101C4C00002B04D17B68022283F83E2013E03B6812
:101C5C00042B04D17B68022283F83F200BE03B6805
:101C6C00082B04D17B68022283F8402003E07B68B8
:101C7C00022283F841207B681B68012239681846D0
:101C8C0000F0FEFA7B681B681E4A934207D17B6802
:101C9C001B685A6C7B681B6842F400425A647B6870
:101CAC001B68184A93420ED07B681B68B3F1804FB7
:101CBC0009D07B681B68144A934204D07B681B686C
:101CCC00124A934211D17B681B689B6803F007038F
:101CDC00FB60FB68062B10D07B681B681A687B685E
:101CEC001B6842F001021A6007E07B681B681A68E7
:101CFC007B681B6842F001021A60002318461037FB
:101D0C00BD4680BD002C014000040040000800408E
:101D1C0080B586B000AFF860B9607A600023FB75BF
:101D2C00FB6893F83C30012B01D10223AEE0FB6839
:101D3C00012283F83C207B680C2B00F29F8001A2CF
:101D4C0052F823F0851D0008891E0008891E000822
:101D5C00891E0008C51D0008891E0008891E000880
:101D6C00891E0008071E0008891E0008891E00082D
:101D7C00891E0008471E0008FB681B68B9681846D6
:101D8C0000F0F6F8FB681B689A69FB681B6842F068
:101D9C0008029A61FB681B689A69FB681B6822F051
:101DAC0004029A61FB681B689969BB681A69FB6835
:101DBC001B680A439A6164E0FB681B68B9681846A3
:101DCC0000F03CF9FB681B689A69FB681B6842F4DD
:101DDC0000629A61FB681B689A69FB681B6822F4B5
:101DEC0080629A61FB681B689969BB681B691A025F
:101DFC00FB681B680A439A6143E0FB681B68B9687F
:101E0C00184600F085F9FB681B68DA69FB681B68EB
:101E1C0042F00802DA61FB681B68DA69FB681B6830
:101E2C0022F00402DA61FB681B68D969BB681A6985
:101E3C00FB681B680A43DA6123E0FB681B68B9681E
:101E4C00184600F0CFF9FB681B68DA69FB681B6861
:101E5C0042F40062DA61FB681B68DA69FB681B6894
:101E6C0022F48062DA61FB681B68D969BB681B6964
:101E7C001A02FB681B680A43DA6102E00123FB7556
:101E8C0000BFFB68002283F83C20FB7D1846183706
:101E9C00BD4680BD80B485B000AF786039607B688A
:101EAC001B68FB607B682F4A93420BD07B68B3F1B5
:101EBC00804F07D07B682C4A934203D07B682B4A17
:101ECC00934208D1FB6823F07003FB603B685B68AE
:101EDC00FA681343FB607B68224A93420BD07B6801
:101EEC00B3F1804F07D07B681F4A934203D07B68C5
:101EFC001E4A934208D1FB6823F44073FB603B6895
:101F0C00DB68FA681343FB60FB6823F080023B68D4
:101F1C005B691343FB607B68FA681A603B689A68DC
:101F2C007B68DA623B681A687B689A627B680D4A48
:101F3C00934203D13B681A697B681A637B68012260
:101F4C005A617B681B6903F00103002B05D07B6889
:101F5C001B6923F001027B681A6100BF1437BD4670
:101F6C0080BC7047002C0140000400400008004079
:101F7C0080B487B000AF786039607B681B6A7B6186
:101F8C007B681B6A23F001027B681A627B685B68C2
:101F9C003B617B689B69FB60FB6823F07003FB6013
:101FAC00FB6823F00303FB603B681B68FA68134370
:101FBC00FB607B6923F002037B613B689B687A6959
:101FCC0013437B617B681C4A93420CD17B6923F0E1
:101FDC0008037B613B68DB687A6913437B617B692F
:101FEC0023F004037B617B68134A934211D13B6954
:101FFC0023F480733B613B6923F400733B613B68C2
:10200C005B693A6913433B613B689B693A691343CB
:10201C003B617B683A695A607B68FA689A613B68F5
:10202C005A687B685A637B687A691A6200BF1C37EE
:10203C00BD4680BC704700BF002C014080B487B007
:10204C0000AF786039607B681B6A7B617B681B6AB8
:10205C0023F010027B681A627B685B683B617B68CB
:10206C009B69FB60FB6823F4E043FB60FB6823F493
:10207C004073FB603B681B681B02FA681343FB60F0
:10208C007B6923F020037B613B689B681B017A69A9
:10209C0013437B617B681D4A93420DD17B6923F00E
:1020AC0080037B613B68DB681B017A6913437B61AE
:1020BC007B6923F040037B617B68144A934213D104
:1020CC003B6923F480633B613B6923F400633B6110
:1020DC003B685B699B003A6913433B613B689B69B6
:1020EC009B003A6913433B617B683A695A607B6891
:1020FC00FA689A613B685A687B689A637B687A696C
:10210C001A6200BF1C37BD4680BC7047002C0140D2
:10211C0080B487B000AF786039607B681B6A7B61E4
:10212C007B681B6A23F480727B681A627B685B682D
:10213C003B617B68DB69FB60FB6823F07003FB6031
:10214C00FB6823F00303FB603B681B68FA681343CE
:10215C00FB607B6923F400737B613B689B681B020B
:10216C007A6913437B617B681D4A93420DD17B696D
:10217C0023F400637B613B68DB681B027A691343C1
:10218C007B617B6923F480637B617B68144A934297
:10219C0013D13B6923F480533B613B6923F4005317
:1021AC003B613B685B691B013A6913433B613B68CC
:1021BC009B691B013A6913433B617B683A695A601E
:1021CC007B68FA68DA613B685A687B68DA637B681B
:1021DC007A691A6200BF1C37BD4680BC704700BFCD
:1021EC00002C014080B487B000AF786039607B6808
:1021FC001B6A3B617B681B6A23F480527B681A6202
:10220C007B685B687B617B68DB69FB60FB6823F444
:10221C00E043FB60FB6823F44073FB603B681B6886
:10222C001B02FA681343FB603B6923F400533B61C8
:10223C003B689B681B033A6913433B617B680F4AFD
:10224C00934209D17B6923F480437B613B685B69D2
:10225C009B017A6913437B617B687A695A607B685E
:10226C00FA68DA613B685A687B681A647B683A6979
:10227C001A6200BF1C37BD4680BC7047002C014061
:10228C0080B487B000AFF860B9607A60BB6803F0C7
:10229C001F03012202FA03F37B61FB681A6A7B6954
:1022AC00DB431A40FB681A62FB681A6ABB6803F0CE
:1022BC001F03796801FA03F31A43FB681A6200BF23
:1022CC001C37BD4680BC704780B485B000AF7860C9
:1022DC0039607B6893F83C30012B01D1022346E036
:1022EC007B68012283F83C207B68022283F83D2026
:1022FC007B681B685B68FB607B681B689B68BB60CA
:10230C00FB6823F07003FB603B681B68FA6813439F
:10231C00FB607B681B68FA685A607B681B68164A0E
:10232C0093420ED07B681B68B3F1804F09D07B6859
:10233C001B68124A934204D07B681B68104A934274
:10234C000CD1BB6823F08003BB603B685B68BA6848
:10235C001343BB607B681B68BA689A607B68012278
:10236C0083F83D207B68002283F83C20002318462C
:10237C001437BD4680BC7047002C0140000400405F
:10238C000008004080B500AF084B1B68074A43F0BB
:10239C0010031360032000F009FF0F2000F008F871
:1023AC0001F0CEFD0023184680BD00BF0020024086
:1023BC0080B582B000AF7860124B1A68124B1B7854
:1023CC0019464FF47A73B3FBF1F3B2FBF3F31846EF
:1023DC0000F021FF0346002B01D001230EE07B68A7
:1023EC000F2B0AD8002279684FF0FF3000F0E9FE7D
:1023FC00064A7B681360002300E001231846083767
:10240C00BD4680BD50000020580000205400002024
:10241C0080B400AF054B1B781A46054B1B68134460
:10242C00034A136000BFBD4680BC704758000020B3
:10243C00FC01002080B400AF024B1B681846BD465F
:10244C0080BC7047FC01002080B586B000AF78607E
:10245C007B68002B01D1012372E27B681B6803F0BF
:10246C000103002B00F08780924B5B6803F00C0398
:10247C00042B0CD08F4B5B6803F00C03082B12D190
:10248C008C4B5B6803F48033B3F5803F0BD1894BE5
:10249C001B6803F40033002B6CD07B685B68002B4B
:1024AC0068D101234CE27B685B68B3F5803F06D1B1
:1024BC00804B1B687F4A43F4803313602EE07B68AB
:1024CC005B68002B0CD17B4B1B687A4A23F480335E
:1024DC001360784B1B68774A23F4802313601DE04C
:1024EC007B685B68B3F5A02F0CD1724B1B68714AEB
:1024FC0043F4802313606F4B1B686E4A43F48033A4
:10250C0013600BE06B4B1B686A4A23F48033136037
:10251C00684B1B68674A23F4802313607B685B68F5
:10252C00002B13D0FFF786FF386108E0FFF782FF1E
:10253C0002463B69D31A642B01D9032300E25D4B9D
:10254C001B6803F40033002BF0D014E0FFF772FF8C
:10255C00386108E0FFF76EFF02463B69D31A642B23
:10256C0001D90323ECE1534B1B6803F40033002B1C
:10257C00F0D100E000BF7B681B6803F00203002B66
:10258C0063D04C4B5B6803F00C03002B0BD0494B16
:10259C005B6803F00C03082B1CD1464B5B6803F4FF
:1025AC008033002B16D1434B1B6803F00203002B26
:1025BC0005D07B681B69012B01D00123C0E13D4B89
:1025CC001B6823F0F8027B685B69DB003949134315
:1025DC000B603AE07B681B69002B20D0364B012244
:1025EC001A60FFF727FF386108E0FFF723FF024668
:1025FC003B69D31A022B01D90323A1E12D4B1B6894
:10260C0003F00203002BF0D02A4B1B6823F0F802D6
:10261C007B685B69DB00274913430B6015E0264B95
:10262C0000221A60FFF706FF386108E0FFF702FF8F
:10263C0002463B69D31A022B01D9032380E11D4BBF
:10264C001B6803F00203002BF0D17B681B6803F0BE
:10265C000803002B3AD07B689B69002B19D0174BD1
:10266C0001221A60FFF7E6FE386108E0FFF7E2FE90
:10267C0002463B69D31A022B01D9032360E10D4BAF
:10268C005B6A03F00203002BF0D0012000F0CEFABD
:10269C001CE00A4B00221A60FFF7CCFE38610FE0F9
:1026AC00FFF7C8FE02463B69D31A022B08D9032355
:1026BC0046E100BF0010024000004242800442424A
:1026CC00924B5B6A03F00203002BE9D17B681B6819
:1026DC0003F00403002B00F0A6800023FB758B4B4A
:1026EC00DB6903F08053002B0DD1884BDB69874AE3
:1026FC0043F08053D361854BDB6903F08053BB609F
:10270C00BB680123FB75824B1B6803F48073002BA1
:10271C0018D17F4B1B687E4A43F480731360FFF71C
:10272C0089FE386108E0FFF785FE02463B69D31A43
:10273C00642B01D9032303E1754B1B6803F48073ED
:10274C00002BF0D07B68DB68012B06D16F4B1B6A2A
:10275C006E4A43F0010313622DE07B68DB68002BAB
:10276C000CD16A4B1B6A694A23F001031362674B55
:10277C001B6A664A23F0040313621CE07B68DB6867
:10278C00052B0CD1614B1B6A604A43F004031362A6
:10279C005E4B1B6A5D4A43F0010313620BE05B4B1B
:1027AC001B6A5A4A23F001031362584B1B6A574A9F
:1027BC0023F0040313627B68DB68002B15D0FFF752
:1027CC0039FE38610AE0FFF735FE02463B69D31A41
:1027DC0041F28832934201D90323B1E04B4B1B6A7F
:1027EC0003F00203002BEED014E0FFF723FE386158
:1027FC000AE0FFF71FFE02463B69D31A41F288320A
:10280C00934201D903239BE0404B1B6A03F0020364
:10281C00002BEED1FB7D012B05D13C4BDB693B4AF8
:10282C0023F08053D3617B68DB69002B00F0878039
:10283C00364B5B6803F00C03082B61D07B68DB69BB
:10284C00022B46D1334B00221A60FFF7F3FD38619F
:10285C0008E0FFF7EFFD02463B69D31A022B01D9C2
:10286C0003236DE0294B1B6803F00073002BF0D1A0
:10287C007B681B6AB3F5803F08D1244B5B6823F45B
:10288C0000327B689B68214913434B601F4B5B688C
:10289C0023F474127B68196A7B685B6A0B431B49CF
:1028AC0013434B601B4B01221A60FFF7C3FD3861C9
:1028BC0008E0FFF7BFFD02463B69D31A022B01D992
:1028CC0003233DE0114B1B6803F00073002BF0D089
:1028DC0035E0104B00221A60FFF7ACFD386108E0C0
:1028EC00FFF7A8FD02463B69D31A022B01D903233B
:1028FC0026E0064B1B6803F00073002BF0D11EE0A2
:10290C007B68DB69012B07D1012319E00010024021
:10291C0000700040600042420B4B5B68FB60FB6840
:10292C0003F480327B681B6A9A4206D1FB6803F47D
:10293C0070127B685B6A9A4201D0012300E000238D
:10294C0018461837BD4680BD0010024080B584B0D3
:10295C0000AF786039607B68002B01D10123D0E097
:10296C006A4B1B6803F007033A689A4210D9674B0D
:10297C001B6823F0070265493B6813430B60634BEC
:10298C001B6803F007033A689A4201D00123B8E0B0
:10299C007B681B6803F00203002B20D07B681B684C
:1029AC0003F00403002B05D0594B5B68584A43F4E1
:1029BC00E06353607B681B6803F00803002B05D0B1
:1029CC00534B5B68524A43F460535360504B5B6803
:1029DC0023F0F0027B689B684D4913434B607B6886
:1029EC001B6803F00103002B40D07B685B68012B54
:1029FC0007D1474B1B6803F40033002B15D101237F
:102A0C007FE07B685B68022B07D1414B1B6803F0AE
:102A1C000073002B09D1012373E03D4B1B6803F0BD
:102A2C000203002B01D101236BE0394B5B6823F0CF
:102A3C0003027B685B68364913434B60FFF7FAFC73
:102A4C00F8600AE0FFF7F6FC0246FB68D31A41F285
:102A5C008832934201D9032353E02D4B5B6803F07A
:102A6C000C027B685B689B009A42EBD1274B1B687E
:102A7C0003F007033A689A4210D2244B1B6823F0E8
:102A8C00070222493B6813430B60204B1B6803F081
:102A9C0007033A689A4201D0012332E07B681B6835
:102AAC0003F00403002B08D0194B5B6823F4E0629D
:102ABC007B68DB68164913434B607B681B6803F02B
:102ACC000803002B09D0124B5B6823F460527B681F
:102ADC001B69DB000E4913434B6000F021F80246E2
:102AEC000B4B5B681B0903F00F030A49CB5C22FA02
:102AFC0003F3094A1360094B1B681846FFF758FC8F
:102B0C00002318461037BD4680BD00BF0020024090
:102B1C0000100240107200085000002054000020E9
:102B2C0080B487B000AF0023FB600023BB600023A0
:102B3C007B6100237B6000233B611E4B5B68FB6069
:102B4C00FB6803F00C03042B02D0082B03D027E006
:102B5C00194B3B6127E0FB689B0C03F00F03174AF2
:102B6C00D35C7B60FB6803F48033002B10D0114BDB
:102B7C005B685B0C03F00103114AD35CBB607B68A0
:102B8C000D4A03FB02F2BB68B2FBF3F37B6104E07A
:102B9C007B680C4A02FB03F37B617B693B6102E0BF
:102BAC00054B3B6100BF3B6918461C37BD4680BCDA
:102BBC00704700BF0010024000127A002872000813
:102BCC003872000800093D0080B400AF024B1B684E
:102BDC001846BD4680BC70475000002080B500AF41
:102BEC00FFF7F2FF0246054B5B681B0A03F0070375
:102BFC000349CB5C22FA03F3184680BD0010024057
:102C0C002072000880B500AFFFF7DEFF0246054BCF
:102C1C005B68DB0A03F007030349CB5C22FA03F37E
:102C2C00184680BD001002402072000880B485B0A8
:102C3C0000AF78600A4B1B680A4AA2FB03235B0AAD
:102C4C007A6802FB03F3FB6000BFFB685A1EFA6054
:102C5C00002BF9D100BF00BF1437BD4680BC7047B4
:102C6C0050000020D34D621080B48BB000AF786060
:102C7C00396000237B6200233B6269E101227B6A9D
:102C8C0002FA03F3FB613B681B68FA691340BB61F2
:102C9C00BA69FB699A4240F058813B685B689A4A72
:102CAC0093425ED0984A934275D8984A934258D032
:102CBC00964A93426FD8964A934252D0944A934282
:102CCC0069D8944A93424CD0924A934263D8924A20
:102CDC00934246D0904A93425DD8122B2AD8122B9D
:102CEC0059D801A252F823F06F2D0008492D000885
:102CFC005B2D00089D2D0008A32D0008A32D0008B6
:102D0C00A32D0008A32D0008A32D0008A32D000857
:102D1C00A32D0008A32D0008A32D0008A32D000847
:102D2C00A32D0008A32D0008A32D0008512D000889
:102D3C00652D0008794A934213D02CE03B68DB6880
:102D4C003B6229E03B68DB6804333B6224E03B6870
:102D5C00DB6808333B621FE03B68DB680C333B628B
:102D6C001AE03B689B68002B02D104233B6213E002
:102D7C003B689B68012B05D108233B627B68FA6991
:102D8C001A6109E008233B627B68FA695A6103E027
:102D9C0000233B6200E000BFBB69FF2B01D87B68BE
:102DAC0001E07B6804337B61BB69FF2B02D87B6A33
:102DBC009B0002E07B6A083B9B003B617B691A68C5
:102DCC000F213B6901FA03F3DB431A40396A3B6973
:102DDC0001FA03F31A437B691A603B685B6803F0E2
:102DEC008053002B00F0B1804D4B9B694C4A43F053
:102DFC00010393614A4B9B6903F00103BB60BB6801
:102E0C00484A7B6A9B08023352F82330FB607B6A8A
:102E1C0003F003039B000F2202FA03F3DB43FA686F
:102E2C001340FB607B68404A934213D07B683F4A57
:102E3C0093420DD07B683E4A934207D07B683D4A53
:102E4C00934201D1032306E0042304E0022302E0B1
:102E5C00012300E000237A6A02F0030292009340FF
:102E6C00FA681343FB602F497B6A9B080233FA68AC
:102E7C0041F823203B685B6803F48013002B06D0D9
:102E8C002D4B9A682C49BB6913438B6006E02A4B87
:102E9C009A68BB69DB43284913408B603B685B68CD
:102EAC0003F40013002B06D0234BDA682249BB69CC
:102EBC001343CB6006E0204BDA68BB69DB431E4949
:102ECC001340CB603B685B6803F40033002B06D0E7
:102EDC00194B5A681849BB6913434B6006E0164BF3
:102EEC005A68BB69DB43144913404B603B685B6811
:102EFC0003F48033002B21D00F4B1A680E49BB69A9
:102F0C0013430B6021E000BF0000321000003110B1
:102F1C0000002210000021100000121000001110FF
:102F2C00001002400000014000080140000C01406C
:102F3C000010014000140140000401400B4B1A68C2
:102F4C00BB69DB43094913400B607B6A01337B622D
:102F5C003B681A687B6A22FA03F3002B7FF48EAE6F
:102F6C0000BF00BF2C37BD4680BC70470004014039
:102F7C0080B485B000AF78600B467B807B689A6824
:102F8C007B881340002B02D00123FB7301E000234C
:102F9C00FB73FB7B18461437BD4680BC704780B46E
:102FAC0083B000AF78600B467B8013467B707B78D8
:102FBC00002B03D07A887B681A6103E07B881A04A3
:102FCC007B681A6100BF0C37BD4680BC704700009F
:102FDC0080B582B000AF0346FB80084B5A69FB8872
:102FEC001340002B06D0054AFB885361FB8818461A
:102FFC0000F006F800BF0837BD4680BD0004014054
:10300C0080B483B000AF0346FB8000BF0C37BD46D5
:10301C0080BC704780B485B000AF78607B6803F0EB
:10302C000703FB600C4BDB68BB60BA684FF6FF0311
:10303C001340BB60FB681A02BB68134343F0BF63C9
:10304C0043F40033BB60044ABB68D36000BF143741
:10305C00BD4680BC704700BF00ED00E080B400AFFF
:10306C00044BDB681B0A03F007031846BD4680BC03
:10307C00704700BF00ED00E080B483B000AF0346A2
:10308C00FB7197F90730002B0BDBFB7903F01F0268
:10309C00064997F907305B09012000FA02F241F862
:1030AC00232000BF0C37BD4680BC704700E100E018
:1030BC0080B483B000AF03463960FB7197F90730D9
:1030CC00002B0ADB3B68DAB20C4997F90730120186
:1030DC00D2B20B4483F800230AE03B68DAB2084909
:1030EC00FB7903F00F03043B1201D2B20B441A76A6
:1030FC0000BF0C37BD4680BC704700BF00E100E04C
:10310C0000ED00E080B489B000AFF860B9607A607F
:10311C00FB6803F00703FB61FB69C3F10703042B96
:10312C0028BF0423BB61FB690433062B02D9FB695E
:10313C00033B00E000237B614FF0FF32BB6902FAD6
:10314C0003F3DA43BB681A407B699A404FF0FF31B6
:10315C007B6901FA03F3D9437B680B401343184690
:10316C002437BD4680BC704780B582B000AF786014
:10317C007B68013BB3F1807F01D301230FE00A4A46
:10318C007B68013B53600F214FF0FF30FFF790FF3E
:10319C00054B00229A60044B07221A600023184644
:1031AC000837BD4680BD00BF10E000E080B582B09E
:1031BC0000AF78607868FFF72DFF00BF0837BD4679
:1031CC0080BD80B586B000AF0346B9607A60FB73F2
:1031DC0000237B61FFF742FF78617A68B9687869F0
:1031EC00FFF790FF024697F90F3011461846FFF78C
:1031FC005FFF00BF1837BD4680BD80B582B000AF01
:10320C000346FB7197F907301846FFF735FF00BFEF
:10321C000837BD4680BD80B582B000AF7860786855
:10322C00FFF7A2FF034618460837BD4680BD0000D5
:10323C00F0B587B000AFF860B960C7E9002301238F
:10324C00FB750023BB7500237B752F4B1B7E012B5D
:10325C0001D1022354E02C4B01221A764CF250304F
:10326C0000F0A8F80346FB75FB7D002B44D1FB68EE
:10327C00012B02D101237B7507E0FB68022B02D1E5
:10328C0002237B7501E004237B750023BB752DE0C5
:10329C00BB7D5A00BB6802EB030CBB7D1901D7E95F
:1032AC000023C1F12006A1F1200022FA01F403FA57
:1032BC0006F6344323FA00F0044323FA01F5A3B2D3
:1032CC001946604600F05AF84CF2503000F072F893
:1032DC000346FB750D4B1B690C4A23F0010313616C
:1032EC00FB7D002B07D1BB7D0133BB75BA7D7B7D8C
:1032FC009A42CDD300E000BF034B00221A76FB7D2F
:10330C0018461C37BD46F0BD0002002000200240CC
:10331C0080B483B000AF0023FB710D4B1B6903F02D
:10332C008003002B0DD00A4B0A4A5A60084B0A4AFC
:10333C005A60074B1B6903F08003002B01D001235B
:10334C00FB71FB7918460C37BD4680BC704700BF3B
:10335C000020024023016745AB89EFCD80B400AF5C
:10336C00054B1B69044A43F0800313610023184684
:10337C00BD4680BC704700BF0020024080B483B0C3
:10338C0000AF78600B467B80084B0022DA61084B5B
:10339C001B69074A43F0010313617B687A881A8022
:1033AC0000BF0C37BD4680BC704700BF0002002038
:1033BC000020024080B584B000AF7860FFF73AF887
:1033CC00F86010E07B68B3F1FF3F0CD07B68002BFA
:1033DC0007D0FFF72FF80246FB68D31A7A689A4297
:1033EC0001D2032325E0154BDB6803F00103002B0E
:1033FC00E8D1124BDB6803F02003002B02D00F4BFB
:10340C002022DA600D4BDB6803F01003002B0BD18C
:10341C000A4BDB6903F00103002B05D1074BDB687A
:10342C0003F00403002B03D000F00AF8012300E0A2
:10343C00002318461037BD4680BD00BF0020024057
:10344C0080B483B000AF00237B60234BDB6803F0B8
:10345C001003002B09D0214BDB6943F002031F4AF8
:10346C00D3617B6843F010037B601B4BDB6803F07C
:10347C000403002B09D0194BDB6943F00103174AF5
:10348C00D3617B6843F004037B60134BDB6903F06F
:10349C000103002B0BD0114BDB6943F004030F4AE3
:1034AC00D3610D4BDB690C4A23F00103D3617B68BC
:1034BC0040F20112934206D1074BDB69064A23F016
:1034CC000103D36102E0044A7B68D36000BF0C3770
:1034DC00BD4680BC704700BF0020024000020020A7
:1034EC0080B584B000AF786039600123FB73002392
:1034FC00BB602F4B1B7E012B01D1022353E02C4BC5
:10350C0001221A767B681B68022B16D14CF25030C4
:10351C00FFF750FF0346002B41D1012000F04CF87F
:10352C004CF25030FFF746FF0346FB73214B1B69EF
:10353C00204A23F00403136131E04CF25030FFF7C2
:10354C0039FF0346002B2AD13B684FF0FF321A603B
:10355C007B689B68BB6019E0B86800F049F84CF2D6
:10356C005030FFF727FF0346FB73124B1B69114AC0
:10357C0023F002031361FB7B002B03D03B68BA687A
:10358C001A600CE0BB6803F58063BB607B68DB688A
:10359C009A027B689B681344BA689A42DCD3044B4A
:1035AC0000221A76FB7B18461037BD4680BD00BF43
:1035BC00000200200020024080B483B000AF78608D
:1035CC00094B0022DA61094B1B69084A43F00403DA
:1035DC001361064B1B69054A43F04003136100BF9E
:1035EC000C37BD4680BC7047000200200020024012
:1035FC0080B483B000AF78600B4B0022DA610B4BC8
:10360C001B690A4A43F002031361084A7B68536141
:10361C00064B1B69054A43F04003136100BF0C378E
:10362C00BD4680BC704700BF000200200020024055
:10363C0080B582B000AF78607B68002B01D101238C
:10364C0042E07B6893F84130DBB2002B06D17B68FB
:10365C00002283F84020786800F0D6FB7B68242297
:10366C0083F841207B681B68DA687B681B6822F44E
:10367C000052DA60786800F071F97B681B681A698F
:10368C007B681B6822F490421A617B681B685A693C
:10369C007B681B6822F02A025A617B681B68DA6817
:1036AC007B681B6842F40052DA607B6800225A6423
:1036BC007B68202283F841207B68202283F84220FB
:1036CC007B6800225A63002318460837BD4680BD2C
:1036DC0080B58AB002AFF860B9603B601346FB80DE
:1036EC0000237B61FB6893F84130DBB2202B75D152
:1036FC00BB68002B02D0FB88002B01D101236EE0AC
:10370C00FB6800225A64FB68212283F84120FEF7F3
:10371C0091FE7861FB68FA889A84FB68FA88DA84EF
:10372C00FB689B68B3F5805F08D1FB681B69002BB5
:10373C0004D10023FB61BB68BB6103E0BB68FB6188
:10374C000023BB612EE03B6800937B690022802143
:10375C00F86800F048F80346002B05D0FB682022DF
:10376C0083F8412003233AE0FB69002B0BD1BB69A2
:10377C001B881A46FB681B68C2F308025A60BB69B7
:10378C000233BB6107E0FB691A78FB681B685A605F
:10379C00FB690133FB61FB68DB8C9BB2013B9AB28A
:1037AC00FB68DA84FB68DB8C9BB2002BCBD13B68CB
:1037BC0000937B6900224021F86800F014F803465E
:1037CC00002B05D0FB68202283F84120032306E060
:1037DC00FB68202283F84120002300E002231846D6
:1037EC002037BD4680BD80B586B000AFF860B960AB
:1037FC003B601346FB713BE03B6AB3F1FF3F37D0B4
:10380C00FEF718FE02463B68D31A3A6A9A4202D374
:10381C003B6A002B01D103233AE0FB681B68DB6891
:10382C0003F00403002B23D0BB68802B20D0BB6893
:10383C00402B1DD0FB681B681B6803F00803082B8A
:10384C0016D100237B61FB681B681B687B61FB68DE
:10385C001B685B687B617B69F86800F01DF8FB688E
:10386C0008225A64FB68002283F8402001230FE0F1
:10387C00FB681B681A68BB681340BA689A420CBF95
:10388C0001230023DBB21A46FB799A42B4D0002301
:10389C0018461837BD4680BD80B495B000AF78602F
:1038AC007B681B680C337B637B6B53E8003F3B638B
:1038BC003B6B23F49073FB647B681B680C33FA6CD2
:1038CC003A64FB63F96B3A6C41E80023BB63BB6B56
:1038DC00002BE5D17B681B6814333B623B6A53E8D1
:1038EC00003FFB61FB6923F00103BB647B681B6831
:1038FC001433BA6CFA62BB62B96AFA6A41E8002303
:10390C007B627B6A002BE5D17B681B6B012B19D189
:10391C007B681B680C33FB60FB6853E8003FBB60A3
:10392C00BB6823F010037B647B681B680C337A6CD8
:10393C00BA617B617969BA6941E800233B613B69F3
:10394C00002BE5D17B68202283F842207B68002283
:10395C001A6300BF5437BD4680BC704780B584B035
:10396C0000AF78607B681B681B6923F440517B684F
:10397C00DA687B681B680A431A617B689A687B6803
:10398C001B691A437B685B691343BB607B681B68CC
:10399C00DB6823F4B05323F00C037A681268B9681F
:1039AC000B43D3607B681B685B6923F440717B68B5
:1039BC009A697B681B680A435A617B681B682C4AAE
:1039CC00934203D1FFF71EF9F86002E0FFF706F906
:1039DC00F860FA6813469B0013449A001A447B68FB
:1039EC005B689B00B2FBF3F3224AA2FB03235B0947
:1039FC001901FA6813469B0013449A001A447B6819
:103A0C005B689B00B2FBF3F21A4BA3FB02035B094E
:103A1C00642000FB03F3D31A1B013233154AA2FBBB
:103A2C0003235B0903F0F0031944FA6813469B0067
:103A3C0013449A001A447B685B689B00B2FBF3F258
:103A4C000C4BA3FB02035B09642000FB03F3D31AAA
:103A5C001B013233074AA2FB03235B0903F00F025D
:103A6C007B681B680A449A6000BF1037BD4680BD56
:103A7C00003801401F85EB5180B500AFFEF782FC8A
:103A8C0000F018F800F078F800F0E8F800F092F97F
:103A9C0001F048FF064800F05BFE00F041FB0120FE
:103AAC0001F058FF01F0D8FE00F0A6FB00BFF9E7CB
:103ABC006802002080B590B000AF07F118032822EF
:103ACC0000211846FCF712FF3B1D00221A605A60B9
:103ADC009A60DA601A610123BB614FF48033FB6199
:103AEC0000233B620123BB6202237B634FF48033D0
:103AFC00BB634FF4E013FB6307F118031846FEF7A2
:103B0C00A3FC0346002B18D00223BB610023FB61EE
:103B1C0000233B620123BB6202237B630023BB6354
:103B2C004FF46013FB6307F118031846FEF78CFC87
:103B3C000346002B01D000F019F80F237B60022301
:103B4C00BB600023FB604FF480633B6100237B610F
:103B5C003B1D02211846FEF7F9FE0346002B01D04F
:103B6C0000F004F800BF4037BD4680BD80B400AF04
:103B7C0072B600BF00BFFDE780B588B000AF07F19B
:103B8C00100300221A605A609A60DA60304B9B690D
:103B9C002F4A43F0100393612D4B9B6903F01003E4
:103BAC00FB60FB682A4B9B69294A43F02003936115
:103BBC00274B9B6903F02003BB60BB68244B9B69BC
:103BCC00234A43F004039361214B9B6903F00403E4
:103BDC007B607B681E4B9B691D4A43F00803936115
:103BEC001B4B9B6903F008033B603B680022802160
:103BFC001848FFF7D4F901224FF480711548FFF7EC
:103C0C00CEF940233B61144B7B610223BB6107F16E
:103C1C00100319460F48FFF727F84FF4C0733B61A8
:103C2C0001237B610223BB610123FB6107F11003BC
:103C3C0019460848FFF718F8002200211720FFF753
:103C4C00C0FA1720FFF7D9FA00BF2037BD4680BD58
:103C5C0000100240000C01400000111080B58AB029
:103C6C0000AF07F1200300221A605A603B1D0022AE
:103C7C001A605A609A60DA601A615A619A61224B32
:103C8C00224A1A60204B47225A601F4B00229A602E
:103C9C001D4B40F2F312DA601B4B00221A611A4BD7
:103CAC0080229A611848FDF741FF0346002B01D092
:103CBC00FFF75CFF00233B6200237B6207F12003CC
:103CCC0019461148FEF700FB0346002B01D0FFF705
:103CDC004DFF60237B600023BB600023FB6000234F
:103CEC007B613B1D0C2219460748FEF711F8034671
:103CFC00002B01D0FFF73AFF034800F027F800BF74
:103D0C002837BD4680BD00BF2002002000080040BF
:103D1C0080B485B000AF78607B681B68094A934219
:103D2C000BD1094BDB69084A43F00403D361064B02
:103D3C00DB6903F00403FB60FB6800BF1437BD466E
:103D4C0080BC7047000800400010024080B588B06D
:103D5C0000AF786007F1100300221A605A609A6075
:103D6C00DA607B681B68104A934218D10F4B9B6931
:103D7C000E4A43F0080393610C4B9B6903F0080354
:103D8C00FB60FB684FF400733B6102237B610223F1
:103D9C00FB6107F1100319460548FEF765FF00BFEC
:103DAC002037BD4680BD00BF000800400010024017
:103DBC00000C014080B500AF114B124A1A60104B39
:103DCC004FF4E1325A600E4B00229A600C4B0022E9
:103DDC00DA600B4B00221A61094B0C225A61084B1A
:103DEC0000229A61064B0022DA610548FFF720FC9D
:103DFC000346002B01D0FFF7B9FE00BF80BD00BF0A
:103E0C00680200200038014080B588B000AF7860AF
:103E1C0007F1100300221A605A609A60DA607B681E
:103E2C001B68204A934239D11F4B9B691E4A43F4AD
:103E3C00804393611C4B9B6903F48043FB60FB68DC
:103E4C00194B9B69184A43F004039361164B9B6909
:103E5C0003F00403BB60BB684FF400733B610223A7
:103E6C007B610323FB6107F1100319460F48FEF732
:103E7C00FBFE4FF480633B6100237B610123BB613C
:103E8C0007F1100319460948FEF7EEFE0022012146
:103E9C002520FFF796F92520FFF7AFF900BF203753
:103EAC00BD4680BD003801400010024000080140B2
:103EBC0080B400AF00BFFDE780B400AF00BFFDE7EA
:103ECC0080B400AF00BFFDE780B400AF00BFFDE7DA
:103EDC0080B400AF00BFFDE780B400AF00BFBD46AB
:103EEC0080BC704780B400AF00BFBD4680BC70473B
:103EFC0080B400AF00BFBD4680BC704780B500AF3A
:103F0C00FEF786FA00BF80BD80B500AF40210648A1
:103F1C00FFF72EF80346012B01D100F037F94020B2
:103F2C00FFF756F800BF80BD000C014080B500AF14
:103F3C00024801F03BFC00BF80BD00BF68020020BE
:103F4C0080B485B000AF154B9B69144A43F0010354
:103F5C009361124B9B6903F00103BB60BB680F4B71
:103F6C00DB690E4A43F08053D3610C4BDB6903F0E1
:103F7C0080537B607B680A4B5B68FB60FB6823F0BB
:103F8C00E063FB60FB6843F00073FB60044AFB6872
:103F9C00536000BF1437BD4680BC70470010024010
:103FAC000000014080B586B000AF7860144A154B14
:103FBC00D31A7B617B693B61134B1B68002B02D1CD
:103FCC00114B124A1A60104B1A687B6813443A69F9
:103FDC009A4207D2FCF7DAFC03460C221A604FF027
:103FEC00FF3309E0084B1B68FB60074B1A687B68C2
:103FFC001344054A1360FB6818461837BD4680BD4C
:10400C000050002000040000B0020020D007002067
:10401C0080B483B000AF78607B68B3F5FA7F02D9C7
:10402C004FF4FA737B60084B1B687A689A4206D08F
:10403C00054A7B681360054B1B687A681A6400BFDD
:10404C000C37BD4680BC70475C000020200200206D
:10405C0080B588B000AF78601B4B1B78002B2FD13C
:10406C001A4BDB68FB61194B9B68BB61184B1B68D7
:10407C007A68D31A7B61BB69002B07D07A69BB695C
:10408C009A4203D2FB69B3F5FA7F06D3F869FFF7BE
:10409C00BFFF0D4B01221A7013E0FB69C3F5FA73D5
:1040AC003B613B697A6903FB02F2BB69B2FBF3F338
:1040BC00FB60FB68C3F5FA731846FFF7A9FF00E035
:1040CC0000BF2037BD4680BD60000020640000208A
:1040DC00B802002080B500AF01F0E4FE0346094AA7
:1040EC00136001F01FFF0346064A536001F03AFFCC
:1040FC000346044A936001F0F5FE0346014AD3607F
:10410C0000BF80BD6400002080B500AF01F06AFCE8
:10411C000346002B01D0002300E00223184680BD8B
:10412C0080B500AF01F09DFE0C211348FDF74EFD4C
:10413C00124B4FF4FA721A600F4B1B684FF4FA7261
:10414C001A6401F055FF0346DBB21A464FF4807136
:10415C000B48FEF724FF01F06DFF0346DBB21A4655
:10416C0080210748FEF71BFF064B00221A70064BF6
:10417C0001221A7000BF80BD200200205C000020CC
:10418C00000C0140B40200206000002080B500AF9C
:10419C0001F03CFC0346002B01D101230BE0022073
:1041AC0001F0D8FB0346002B01D0012303E0034BA5
:1041BC0001221A700023184680BD00BFBC020020EB
:1041CC0080B500AF4FF4FA70FFF722FF064B0122C7
:1041DC001A70064B00221A70054B00221A70054B00
:1041EC0000221A7000BF80BD60000020BD020020BC
:1041FC00BC020020B402002080B582B000AFFEF7F4
:10420C0019F97860344B1B78032B60D801A252F853
:10421C0023F000BF31420008534200088B420008D3
:10422C00A94200082D4B1B78DBB2002B4AD02B4B3C
:10423C0000221A70FFF74EFF294A7B681360264B49
:10424C0001221A703EE0264B1B687A68D21A254B65
:10425C005B689A4238D34FF4FA70FFF7D9FE224BC1
:10426C0000221A70214B01221A701D4A7B681360C0
:10427C00194B02221A707868FFF7EAFE24E078687E
:10428C00FFF7E6FE164B1B687A68D21A154B1B68B3
:10429C009A421BD3104B03221A7017E04FF4FA709A
:1042AC00FFF7B6FE104B01221A70104B00221A7049
:1042BC000A4B00221A70084B00221A70012001F0E0
:1042CC0049FB04E000BF02E000BF00E000BF00BFFC
:1042DC000837BD4680BD00BFB4020020BC020020E0
:1042EC00B80200206400002060000020BD02002005
:1042FC0090B587B000AF78602A4B3B617868FBF7CC
:10430C00F9FF034639691846FCF700F90346FB60D0
:10431C004FF00001F868FCF7EDF90346002B02D0D2
:10432C004FF4FA733AE001F041FE03461846FBF7EE
:10433C00E1FF03461946F868FCF7E6F90346002B43
:10434C0001D000232AE001F031FE03461846FBF7AA
:10435C00D1FF0346F9681846FBF71AFF03461C46C3
:10436C0001F024FE03461846FBF7C4FF034619462A
:10437C002046FCF7CBF803460B491846FCF712F81D
:10438C0003461846FCF7D4F903467B617B69B3F509
:10439C00FA7F02D94FF4FA737B617B6918461C379C
:1043AC00BD4690BDDCCB96410000FA4380B582B08F
:1043BC0000AF7860FFF7A8FE0346002B01D0022364
:1043CC000AE0786801F0D8FD0346002B01D00123E8
:1043DC0002E001F039FE034618460837BD4680BDA1
:1043EC0080B584B000AF7860FFF78EFE0346002BDB
:1043FC0001D002230EE07868FFF77AFFF860F868C6
:10440C0001F05AFD0346002B01D0012302E001F01C
:10441C001BFE034618461037BD4680BD90B585B0CF
:10442C0000AF1D4BBB6001F05DFD03461846FBF76A
:10443C0061FF034619491846FCF768F8034619460C
:10444C004FF07E50FBF7A4FE03461C4601F0AEFD78
:10445C0003461846FBF74EFF034619462046FBF76A
:10446C00A1FF03467B60B9687868FBF79BFF0346A6
:10447C00FB604FF00001F868FCF732F90346002BA3
:10448C0002D04FF00003FB60F868FCF751F90346CB
:10449C0018461437BD4690BDDCCB96410000FA435C
:1044AC0080B582B000AF7860FFF72EFE0346002B7C
:1044BC0001D002230AE0786801F0DAFC0346002BF5
:1044CC0001D0012302E001F0BFFD03461846083776
:1044DC00BD4680BD80B582B000AF7860FFF714FE9A
:1044EC000346002B01D002230AE0786801F004FD9A
:1044FC000346002B01D0012302E001F0A5FD034689
:10450C0018460837BD4680BD80B582B000AF7860D4
:10451C00FFF7FAFD0346002B01D002230AE078686E
:10452C0001F00AFD0346002B01D0012302E001F04B
:10453C008BFD034618460837BD4680BD80B582B05A
:10454C0000AF7860FFF7E0FD0346002B01D002239B
:10455C000AE0786801F0B0FC0346002B01D001237F
:10456C0002E001F071FD034618460837BD4680BDD8
:10457C0080B582B000AF786001F054FA0346002B8E
:10458C0001D1022309E07B68B3F5FA7F01D901233D
:10459C0003E07868FFF73CFD002318460837BD465A
:1045AC0080BD000080B582B000AF7860FFF7ACFD35
:1045BC000346002B01D0022312E0786801F000FDC5
:1045CC000346002B01D001230AE07B68DBB21A46BC
:1045DC004FF480710448FEF7E2FC01F035FD034610
:1045EC0018460837BD4680BD000C014080B582B02E
:1045FC0000AF7860FFF788FD0346002B01D0022343
:10460C0011E0786801F0FEFC0346002B01D0012379
:10461C0009E07B68DBB21A4680210548FEF7BFFC37
:10462C0001F012FD034618460837BD4680BD00BF99
:10463C00000C014080B500AF01F034FC0346184675
:10464C0080BD80B500AF01F06DFC0346184680BDFF
:10465C0080B500AF01F086FC0346184680BD80B5DE
:10466C0000AF01F03FFC0346184680BD80B500AF9B
:10467C0001F09CFC0346184680BD80B500AF01F0EC
:10468C00B7FC0346184680BD80B500AF01F0D2FCE4
:10469C000346184680BD000080B485B000AF0346C9
:1046AC00FB71104B1B889BB201335A42C3F30803B6
:1046BC00C2F3080258BF5342FB810B4B1B889BB2C1
:1046CC00FA899A4209D0074B1B889BB21946074AB4
:1046DC00FB795354034AFB89138000BF1437BD4642
:1046EC0080BC7047C8050020CA050020C803002004
:1046FC0080B483B000AF7860124B1B889AB2124B17
:10470C001B889BB29A4201D1002316E00E4B1B88EA
:10471C009BB21A460D4B9A5C7B681A700A4B1B882D
:10472C009BB201335A42C3F30803C2F3080258BFC9
:10473C0053429AB2044B1A80012318460C37BD46DB
:10474C0080BC7047C8050020CA050020C8030020A3
:10475C0080B586B000AF7860404A7B6813603F4BF1
:10476C00002283F806213E4B00221A803D4B00228A
:10477C001A804FF4007200213B48FCF7B7F83B4B12
:10478C0000221A804FF4007200213948FCF7AEF871
:10479C0000237B61314B1B681B681B687B612F4BB3
:1047AC001B681B685B687B617B6900233B612B4B3F
:1047BC001B681B681B683B61284B1B681B685B688C
:1047CC003B613B690023FB60244B1B681B681B6827
:1047DC00FB60224B1B681B685B68FB60FB6800235B
:1047EC00BB601E4B1B681B681B68BB601B4B1B68AC
:1047FC001B685B68BB60BB68184B1B681B68DA687E
:10480C00164B1B681B6842F02002DA60134B1B68C6
:10481C001B685A69114B1B681B6842F001025A61F4
:10482C000E4B1B681B68DA680C4B1B681B6842F448
:10483C008072DA600F4800F027F80F4800F024F877
:10484C000E4800F021F80E4800F01EF80D4800F05C
:10485C001BF800BF1837BD4680BD00BFC00200204A
:10486C00C8050020CA050020C8030020CC07002082
:10487C00CC0500206061000888610008A061000878
:10488C00C0610008E461000890B583B000AF7860A7
:10489C007B68002B11D00B4B1B68002B0DD0094BE8
:1048AC001C687868FBF7CCFF03469AB24FF0FF33D5
:1048BC0079682046FEF70CFF00E000BF0C37BD46C0
:1048CC0090BD00BFC002002080B584B000AF7860FE
:1048DC007B68002B44D07868FBF7B2FF0346FB6083
:1048EC0007E0FB68013BFB60FB687A68134400221D
:1048FC001A70FB68002B0CDDFB68013B7A681344D3
:10490C001B780133184A13441B7803F00803002B5F
:10491C00E7D10023BB6002E0BB680133BB60BB681E
:10492C007A6813441B78002B0BD0BB687A6813444D
:10493C001B7801330C4A13441B7803F00803002B3B
:10494C00EAD1BB68002B0CDDBB687A68D118FA6819
:10495C00BB68D31A01331A467868FCF71DF800E0DF
:10496C0000BF1037BD4680BD0C71000880B588B003
:10497C0000AFF860B9607A60BB6816221A707B6869
:10498C0000221A60F868FFF79FFFFB681B78002B6A
:10499C0002D14FF0FF33B6E12021F868FBF7E8FEB7
:1049AC00F861FB69002B0BD0FB6900221A70FB69C4
:1049BC005A1C7B681A607B681B681846FFF784FFDB
:1049CC009B49F868FCF75EF90346002B03D1BB68E2
:1049DC0000221A708FE19749F868FCF753F90346E7
:1049EC00002B06D09449F868FCF74CF90346002BD1
:1049FC0003D1BB6815221A707DE19049F868FCF769
:104A0C0041F90346002B40F0A8807B681B68002B03
:104A1C0002D14FF0FF3376E17B681B68884918465A
:104A2C00FCF730F90346002B06D1BB680A221A703A
:104A3C007B6800221A605EE17B681B68814918461E
:104A4C00FCF720F90346002B06D1BB680B221A7029
:104A5C007B6800221A604EE17B681B687A49184615
:104A6C00FCF710F90346002B06D1BB680C221A7018
:104A7C007B6800221A603EE17B681B68734918460C
:104A8C00FCF700F90346002B06D1BB680D221A7007
:104A9C007B6800221A602EE17B681B686C49184603
:104AAC00FCF7F0F80346002B06D1BB680E221A70F7
:104ABC007B6800221A601EE17B681B6865491846FA
:104ACC00FCF7E0F80346002B06D1BB680F221A70E6
:104ADC007B6800221A600EE17B681B685E491846F1
:104AEC00FCF7D0F80346002B06D1BB6810221A70D5
:104AFC007B6800221A60FEE07B681B6857491846E9
:104B0C00FCF7C0F80346002B06D1BB6811221A70C3
:104B1C007B6800221A60EEE07B681B6850491846DF
:104B2C00FCF7B0F80346002B06D1BB6812221A70B2
:104B3C007B6800221A60DEE07B681B6849491846D6
:104B4C00FCF7A0F80346002B40F0D580BB6813227D
:104B5C001A707B6800221A60CDE04349F868FCF7B4
:104B6C0091F80346002B40F0C6807B681B68002B35
:104B7C0002D14FF0FF33C6E07B681B68BB6120217C
:104B8C00B869FBF7F5FD78617B69002B00F0B38009
:104B9C007B6900221A707B6901337B617869FFF7AE
:104BAC0093FE2749B869FCF76DF80346002B06D134
:104BBC00BB6801221A707B687A691A609BE02149F4
:104BCC00B869FCF75FF80346002B06D1BB680222DC
:104BDC001A707B687A691A608DE01B49B869FCF71A
:104BEC0051F80346002B06D1BB6803221A707B6870
:104BFC007A691A607FE01549B869FCF743F80346F7
:104C0C00002B06D1BB6804221A707B687A691A6083
:104C1C0071E00F49B869FCF735F80346002B25D134
:104C2C00BB6805221A707B687A691A6063E000BF62
:104C3C00E8610008F0610008F8610008FC610008F8
:104C4C0000620008106200081C620008286200085C
:104C5C00346200084062000848620008586200088C
:104C6C006862000878620008806200082849B86908
:104C7C00FCF708F80346002B06D1BB6806221A7015
:104C8C007B687A691A6036E02249B869FBF7FAFF4B
:104C9C000346002B06D1BB6807221A707B687A6921
:104CAC001A6028E01C49B869FBF7ECFF0346002B9F
:104CBC0006D1BB6808221A707B687A691A601AE000
:104CCC001649B869FBF7DEFF0346002B06D1BB681B
:104CDC0009221A707B687A691A600CE01049B8696D
:104CEC00FBF7D0FF0346002B05D1BB6814221A70CA
:104CFC007B687A691A60BB681B78162B02D14FF05F
:104D0C00FF3300E0002318462037BD4680BD00BFAE
:104D1C004062000848620008586200087862000887
:104D2C008462000880B582B000AF0346FB71FB794A
:104D3C00142B11D0142B13DC002B05D0002B0FDB04
:104D4C00013B072B0CD803E000F060FE034608E0A3
:104D5C0000F048FE034604E000F064FE034600E069
:104D6C00012318460837BD4680BD000080B598B0B9
:104D7C0000AF00F0E3FD0346184600F001FE0346C9
:104D8C003846064A6021FCF79BF83B461846FFF76D
:104D9C007BFD00BF6037BD4680BD00BF946200083C
:104DAC0080B5AEB002AF03463960FB71FB79184693
:104DBC00FFF7B8FF0346002B03D1FFF7D7FF00F036
:104DCC004FBCFB79152B00F2478401A252F823F05B
:104DDC00354E0008514E0008CD4E000833530008E4
:104DEC00AD5300080F510008FD510008275400086E
:104DFC009D5400089D500008454F0008634F000863
:104E0C00814F00089F4F0008BD4F0008DB4F000882
:104E1C00FF4F00081D5000083B5000087750000859
:104E2C0065550008D3550008FFF7B0F90346002B71
:104E3C0004D1B948FFF728FD00F012BCFFF796FF2C
:104E4C0000F00EBC3B68002B03D03B681B78002B9A
:104E5C0004D1B248FFF718FD00F002BC3868FBF72C
:104E6C0019FEC7F8AC00D7F8AC30002B24DDD7F80E
:104E7C00AC304EF6602293421EDCD7F8AC301846AC
:104E8C00FFF70EFB0346002B08D1D7F8AC3007F127
:104E9C000800A34A8021FCF713F807E0D7F8AC30E0
:104EAC0007F108009F4A8021FCF70AF807F1080374
:104EBC001846FFF7E9FCD3E39B48FFF7E5FCCFE38B
:104ECC003B68002B03D03B681B78002B03D1974821
:104EDC00FFF7DAFCC4E33868FBF7DCFDC7F8AC007D
:104EEC00D7F8AC30002B23DBD7F8AC30B3F5FA7F16
:104EFC001EDCD7F8AC301846FFF720FB0346002B1E
:104F0C0008D1D7F8AC3007F10800894A8021FBF7AB
:104F1C00D7FF07E0D7F8AC3007F10800854A8021AD
:104F2C00FBF7CEFF07F108031846FFF7ADFC97E33C
:104F3C008148FFF7A9FC93E3FFF77CFB034607F1DD
:104F4C0008007E4A8021FBF7BBFF07F108031846D7
:104F5C00FFF79AFC84E3FFF782FB034607F1080096
:104F6C00774A8021FBF7ACFF07F108031846FFF7DF
:104F7C008BFC75E3FFF765FB034607F10800714AEC
:104F8C008021FBF79DFF07F108031846FFF77CFC17
:104F9C0066E3FFF75DFB034607F108006A4A8021D0
:104FAC00FBF78EFF07F108031846FFF76DFC57E37C
:104FBC00FFF75CFB034607F10800644A8021FBF70E
:104FCC007FFF07F108031846FFF75EFC48E3FFF785
:104FDC0025FAC7F8A40007F10800D7F8A4305C4AFA
:104FEC008021FBF76DFF07F108031846FFF74CFC17
:104FFC0036E3FFF742FB034607F10800554A8021D0
:10500C00FBF75EFF07F108031846FFF73DFC27E3AB
:10501C00FFF73AFB034607F108004F4A8021FBF7E4
:10502C004FFF07F108031846FFF72EFC18E3402149
:10503C004A48FDF79DFF034687F8AB3097F8AB2045
:10504C0097F8AB30012B01D1454B00E0454B07F1F4
:10505C00080000931346444A8021FBF731FF07F107
:10506C0008031846FFF710FCFAE200F067FC034651
:10507C00184600F085FC034607F108003B4A8021E6
:10508C00FBF71EFF07F108031846FFF7FDFBE7E2ED
:10509C003B68002B03D03B681B78002B03D13448B2
:1050AC00FFF7F2FBDCE233493868FBF7EBFD034614
:1050BC00002B0BD100F0C2FC0346002B03D12E4871
:1050CC00FFF7E2FBCCE2FFF751FEC9E22B4938684F
:1050DC00FBF7D8FD0346002B0FD100F02FFC034645
:1050EC00032B02D0FFF742FEBAE2FFF769F800F09B
:1050FC00B4FC2348FFF7C8FBB2E22248FFF7C4FB1D
:10510C00AEE23B68002B03D03B681B78002B3DD1F3
:10511C001D48FFF7B9FBA3E2BC620008D46200088B
:10512C000C6300083C630008706300089C63000873
:10513C00D0630008F8630008246400084C6400087D
:10514C007064000888640008A4640008C86400083F
:10515C00E86400080465000828650008000C01409C
:10516C004C650008546500085865000888650008FF
:10517C00A4650008DC650008E46500080466000806
:10518C000C66000828660008546600083868FBF7AF
:10519C0081FCC7F8AC00D7F8AC30002B24DDD7F875
:1051AC00AC3042F2107293421EDCD7F8AC30184689
:1051BC00FFF7FCF80346002B08D1D7F8AC3007F109
:1051CC000800B94A8021FBF77BFE07E0D7F8AC302A
:1051DC0007F10800B54A8021FBF772FE07F10803BE
:1051EC001846FFF751FB3BE2B148FFF74DFB37E2A6
:1051FC003B68002B03D03B681B78002B23D1AD4BB5
:10520C00C7F88C30FFF732FA03461846FBF772F8F2
:10521C000346D7F88C101846FBF7C4F8034618461B
:10522C00FBF786FA0346C7F8883007F10800D7F871
:10523C008830A14A8021FBF743FE07F1080318468A
:10524C00FFF722FB0CE23868FBF724FCC7F8AC0034
:10525C00D7F8AC30002B42DBD7F8AC301846FFF750
:10526C00BFF80346002B2CD1D7F8AC301846FFF70B
:10527C003FF8C7F898008F4BC7F89430FFF7F6F952
:10528C0003461846FBF736F80346D7F89410184631
:10529C00FBF788F803461846FBF74AFA0346C7F8AB
:1052AC009030D7F8AC2007F10800D7F89030019374
:1052BC00D7F8983000931346804A8021FBF700FE04
:1052CC0007E0D7F8AC3007F108007D4A8021FBF7E6
:1052DC00F7FD07F108031846FFF7D6FAC0E1754B46
:1052EC00C7F8A030FFF7C2F903461846FBF702F8DF
:1052FC000346D7F8A0101846FBF754F80346184697
:10530C00FBF716FA0346C7F89C3007F10800D7F8EC
:10531C009C306C4A8021FBF7D3FD07F1080318463B
:10532C00FFF7B2FA9CE13B68002B03D03B681B787B
:10533C00002B03D16448FFF7A7FA91E13868FBF71B
:10534C00A9FBC7F8AC00D7F8AC30002B24DBD7F89E
:10535C00AC3042F2107293421EDCD7F8AC301846D7
:10536C00FFF7B8F80346002B08D1D7F8AC3007F19B
:10537C000800564A8021FBF7A3FD07E0D7F8AC30B4
:10538C0007F10800524A8021FBF79AFD07F1080348
:10539C001846FFF779FA63E14E48FFF775FA5FE1BB
:1053AC003B68002B03D03B681B78002B03D14A4889
:1053BC00FFF76AFA54E13868FBF76CFBC7F8AC00EE
:1053CC00D7F8AC30002B24DBD7F8AC3042F210729B
:1053DC0093421EDCD7F8AC301846FFF795F803461D
:1053EC00002B08D1D7F8AC3007F108003B4A8021DC
:1053FC00FBF766FD07E0D7F8AC3007F10800384A38
:10540C008021FBF75DFD07F108031846FFF73CFA16
:10541C0026E13048FFF738FA22E13B68002B03D035
:10542C003B681B78002B03D12E48FFF72DFA17E1B0
:10543C003868FBF72FFBC7F8AC00D7F8AC30002B63
:10544C0003D0D7F8AC30012B1ED1D7F8AC301846AE
:10545C00FFF7A8F80346002B08D1D7F8AC3007F1BA
:10546C000800214A8021FBF72BFD07E0D7F8AC3070
:10547C0007F108001D4A8021FBF722FD07F1080304
:10548C001846FFF701FAEBE01948FFF7FDF9E7E0E2
:10549C003B68002B03D03B681B78002B2CD11548A4
:1054AC00FFF7F2F9DCE000BF88660008B46600087C
:1054BC00E4660008DCCB96411067000858670008CA
:1054CC00AC670008DC670008206800085468000816
:1054DC0080680008B0680008DC68000810690008E3
:1054EC00446900087C690008B4690008E869000890
:1054FC00206A0008486A00083868FBF7CBFAC7F83E
:10550C00AC00D7F8AC30002B03D0D7F8AC30012B63
:10551C001ED1D7F8AC301846FFF768F80346002BBD
:10552C0008D1D7F8AC3007F108004F4A8021FBF7BF
:10553C00C7FC07E0D7F8AC3007F108004B4A8021D4
:10554C00FBF7BEFC07F108031846FFF79DF987E04F
:10555C004748FFF799F983E03B68002B03D03B6881
:10556C001B78002B03D14348FFF78EF978E038689D
:10557C00FBF790FAC7F8AC00D7F8AC30002B1DDB6A
:10558C00D7F8AC30B3F5FA7F18DCD7F8AC30184646
:10559C00FEF7EEFF0346002B0DD1D7F8AC3007F128
:1055AC000800354A8021FBF78BFC07F108031846ED
:1055BC00FFF76AF906E0FFF7D9FB03E02F48FFF786
:1055CC0063F94DE04CE02E48FFF75EF92D48FFF7EC
:1055DC005BF92D48FFF758F92C48FFF755F92C4883
:1055EC00FFF752F92B48FFF74FF92B48FFF74CF90F
:1055FC002A48FFF749F92A48FFF746F92948FFF7E7
:10560C0043F92948FFF740F92848FFF73DF92848A6
:10561C00FFF73AF92748FFF737F92748FFF734F92E
:10562C002648FFF731F92648FFF72EF92548FFF7F2
:10563C002BF92548FFF728F92448FFF725F92448CA
:10564C00FFF722F92348FFF71FF92348FFF71CF94E
:10565C002248FFF719F903E02148FFF715F900BFBD
:10566C00B037BD4680BD00BF806A0008B46A000830
:10567C00206A0008EC6A0008246B00082464000807
:10568C00586B0008706B0008A46B0008D86B0008FE
:10569C00186C0008546C0008906C0008D86C00085A
:1056AC00146D00084C6D0008846D0008BC6D00087A
:1056BC00146E0008506E00088C6E0008C46E000852
:1056CC00086F0008406F0008746F0008B46F000882
:1056DC00F46F00083870000870700008A0700008A3
:1056EC00A470000880B400AF094B1B88002B0BD0B2
:1056FC00074B1B88013B9AB2054B1A80044B1B8845
:10570C001A46044B0021995400BFBD4680BC70471B
:10571C00CC070020CC05002080B582B000AF03463A
:10572C00FB71FB790D2B02D0FB790A2B0DD11D4B94
:10573C001B88002B07D01B4B1B881A461A4B0021C9
:10574C009954012329E0002327E0FB79082B02D090
:10575C00FB797F2B03D1FFF7C5FF00231DE0FB79FD
:10576C001F2B02D9FB797E2B01D9002315E00D4BA1
:10577C001B88B3F5FF7F0FD80A4B1B885A1C91B2BC
:10578C00084A11801946084AFB795354054B1B886B
:10579C001A46054B00219954002318460837BD467C
:1057AC0080BD00BFCC070020CC05002080B584B0A4
:1057BC0000AF7860274B1B687A689A4246D17B68A9
:1057CC00002B43D07B681B681B68FB60FB6803F0F5
:1057DC002003002B14BF01230023DBB2FB72FB68F8
:1057EC0003F00F03002B14BF01230023DBB2BB72A9
:1057FC00FB7A002B0BD07B681B685B687B72BB7AD7
:10580C00002B0AD17B7A1846FEF746FF05E0BB7ADF
:10581C00002B02D07B681B685B687B681B68DA68AE
:10582C007B681B6842F02002DA607B681B685A694F
:10583C007B681B6842F001025A617B681B68DA685E
:10584C007B681B6842F48072DA6000E000BF10379E
:10585C00BD4680BDC002002080B5ADF5047D00AF13
:10586C004AE097F80B321846FFF756FF0346002B19
:10587C0042D00023C7F804323B1D40F2FF122649E8
:10588C001846FBF7C9F907F50473A3F50373002257
:10589C0083F8FF2107F5017207F20A213B1D184618
:1058AC00FFF764F8C7F80C02D7F80C32002B08D1BC
:1058BC0097F80A32D7F8042211461846FFF770FA07
:1058CC0008E0D7F80C3213F1020F03D00021162098
:1058DC00FFF766FA114B00221A804FF40072002178
:1058EC000D48FBF703F8D7F80C3213F1020F0CD06C
:1058FC000B48FEF7C9FF08E007F20B231846FEF72A
:10590C00F7FE0346002BACD100E000BF00BF07F54B
:10591C000477BD4680BD00BFCC050020CC0700201D
:10592C00E461000880B400AF034B00221A7000BF82
:10593C00BD4680BC704700BFCE07002080B400AFCE
:10594C00034B1B78DBB21846BD4680BC704700BFCA
:10595C00CE07002080B483B000AF0346FB71FB7907
:10596C00042B01D9012303E0044AFB7913700023B3
:10597C0018460C37BD4680BC704700BFCE070020D0
:10598C0080B483B000AF0346FB71FB79042B17D8AE
:10599C0001A252F823F000BFB9590008BD59000804
:1059AC00C1590008C5590008C9590008074B08E03F
:1059BC00074B06E0074B04E0074B02E0074B00E007
:1059CC00074B18460C37BD4680BC7047DC7000088E
:1059DC00E4700008EC700008F4700008FC7000081B
:1059EC000471000880B582B000AFFFF7A7FF034633
:1059FC00FB71FB79012B02D0FB79032B01D1012325
:105A0C0000E0002318460837BD4680BD80B500AFC6
:105A1C00FFF794FF0346012B01D1012300E0002383
:105A2C00184680BD80B500AFFFF788FF0346032BF7
:105A3C0001D1012300E00023184680BD80B500AFE2
:105A4C00FFF77CFF0346012B01D0012303E0032069
:105A5C00FFF780FF0346184680BD80B500AFFFF707
:105A6C006DFF0346032B01D0012303E00120FFF758
:105A7C0071FF0346184680BD80B483B000AF7860D8
:105A8C007B681A687B685B681A447B689B681A445D
:105A9C007B68DB681A447B681B691A447B685B690A
:105AAC001A447B689B69134418460C37BD4680BC6E
:105ABC00704780B483B000AF78607B681A687B68ED
:105ACC005B681A447B689B681A447B68DB681A44E1
