:020000040800F2
:1000000000500020613A0008A11E0008A71E000849
:10001000AD1E0008B31E0008B91E00080000000055
:10002000000000000000000000000000BF1E0008EB
:10003000CB1E000800000000D71E0008E31E0008C9
:10004000A93A0008A93A0008A93A0008A93A000804
:10005000A93A0008A93A0008A93A0008A93A0008F4
:10006000A93A0008A93A0008A93A0008A93A0008E4
:10007000A93A0008A93A0008A93A0008A93A0008D4
:10008000A93A0008A93A0008A93A0008A93A0008C4
:10009000A93A0008A93A0008A93A0008F11E000888
:1000A000A93A0008A93A0008A93A0008A93A0008A4
:1000B000A93A0008A93A0008A93A0008A93A000894
:1000C000A93A0008A93A0008A93A0008A93A000884
:1000D000A93A0008A93A0008A93A0008A93A000874
:1000E000A93A0008A93A0008A93A0008000000004F
:1000F0000000000000000000000000000000000000
:0C01000000000000000000005FF808F1A3
:10010C000348044B834202D0034B03B1184770479A
:10011C008C0000208C0000200000000005480649DF
:10012C000B1AD90F01EBA301491002D0034B03B1F9
:10013C00184770478C0000208C0000200000000045
:10014C0010B5064C237843B9FFF7DAFF044B13B113
:10015C000448AFF300800123237010BD90000020F1
:10016C0000000000005A000808B5044B1BB10449FC
:10017C000448AFF30080BDE80840CFE70000000062
:10018C0094000020005A000880F0004002E000BFFC
:10019C0081F0004142001FBF5FEA410392EA030F66
:1001AC007FEA226C7FEA236C6AD04FEA1262D2EBB0
:1001BC001363C1BFD218414048404140B8BF5B42B5
:1001CC00192B88BF704710F0004F40F4000020F04E
:1001DC007F4018BF404211F0004F41F4000121F064
:1001EC007F4118BF494292EA030F3FD0A2F10102AE
:1001FC0041FA03FC10EB0C00C3F1200301FA03F1EC
:10020C0000F0004302D5494260EB4000B0F5000F0E
:10021C0013D3B0F1807F06D340084FEA310102F1CD
:10022C000102FE2A51D2B1F1004F40EBC25008BF7F
:10023C0020F0010040EA03007047490040EB000049
:10024C00013A28BFB0F5000FEDD2B0FA80FCACF14A
:10025C00080CB2EB0C0200FA0CF0AABF00EBC25077
:10026C0052421843BCBFD0401843704792F0000F65
:10027C0081F4000106BF80F400000132013BB5E7B8
:10028C004FEA41037FEA226C18BF7FEA236C21D02E
:10029C0092EA030F04D092F0000F08BF0846704793
:1002AC0090EA010F1CBF0020704712F07F4F04D161
:1002BC00400028BF40F00040704712F100723CBF74
:1002CC0000F50000704700F0004343F0FE4040F49E
:1002DC00000070477FEA226216BF08467FEA23635C
:1002EC000146420206BF5FEA412390EA010F40F447
:1002FC00800070474FF0000304E000BF10F0004393
:10030C0048BF40425FEA000C08BF704743F0964379
:10031C0001464FF000001CE050EA010208BF704794
:10032C004FF000030AE000BF50EA010208BF70471B
:10033C0011F0004302D5404261EB41015FEA010C30
:10034C0002BF84460146002043F0B64308BFA3F128
:10035C008053A3F50003BCFA8CF2083AA3EBC2530A
:10036C0010DB01FA02FC634400FA02FCC2F1200229
:10037C00BCF1004F20FA02F243EB020008BF20F060
:10038C000100704702F1200201FA02FCC2F12002C6
:10039C0050EA4C0021FA02F243EB020008BF20EABB
:1003AC00DC7070474FF0FF0C1CEAD0521EBF1CEAE9
:1003BC00D15392EA0C0F93EA0C0F6FD01A4480EAD7
:1003CC00010C400218BF5FEA41211ED04FF00063C0
:1003DC0043EA501043EA5111A0FB01310CF00040EC
:1003EC00B1F5000F3EBF490041EAD3715B0040EA12
:1003FC00010062F17F02FD2A1DD8B3F1004F40EBE2
:10040C00C25008BF20F00100704790F0000F0CF0B4
:10041C00004C08BF49024CEA502040EA51207F3A78
:10042C00C2BFD2F1FF0340EAC250704740F4000053
:10043C004FF00003013A5DDC12F1190FDCBF00F044
:10044C0000407047C2F10002410021FA02F1C2F1F2
:10045C00200200FA02FC5FEA310040F1000053EA8E
:10046C004C0308BF20EADC70704792F0000F00F0DC
:10047C00004C02BF400010F4000F013AF9D040EAE2
:10048C000C0093F0000F01F0004C02BF490011F476
:10049C00000F013BF9D041EA0C018FE70CEAD15374
:1004AC0092EA0C0F18BF93EA0C0F0AD030F0004CF4
:1004BC0018BF31F0004CD8D180EA010000F00040A8
:1004CC00704790F0000F17BF90F0004F084691F066
:1004DC00000F91F0004F14D092EA0C0F01D14202A0
:1004EC000FD193EA0C0F03D14B0218BF084608D169
:1004FC0080EA010000F0004040F0FE4040F40000B3
:10050C00704740F0FE4040F4400070474FF0FF0C45
:10051C001CEAD0521EBF1CEAD15392EA0C0F93EA8C
:10052C000C0F69D0A2EB030280EA010C49024FEADE
:10053C00402037D04FF0805343EA111143EA101397
:10054C000CF000408B4238BF5B0042F17D024FF44F
:10055C00000C8B4224BF5B1A40EA0C00B3EB510F2A
:10056C0024BFA3EB510340EA5C00B3EB910F24BF13
:10057C00A3EB910340EA9C00B3EBD10F24BFA3EB98
:10058C00D10340EADC001B0118BF5FEA1C1CE0D160
:10059C00FD2A3FF650AF8B4240EBC25008BF20F013
:1005AC00010070470CF0004C4CEA50207F32C2BF67
:1005BC00D2F1FF0340EAC250704740F400004FF004
:1005CC000003013A37E792F0000F00F0004C02BF35
:1005DC00400010F4000F013AF9D040EA0C0093F0FF
:1005EC00000F01F0004C02BF490011F4000F013B59
:1005FC00F9D041EA0C0195E70CEAD15392EA0C0FC1
:10060C0008D142027FF47DAF93EA0C0F7FF470AFF8
:10061C00084676E793EA0C0F04D14B023FF44CAF3B
:10062C0008466EE730F0004C18BF31F0004CCAD1D0
:10063C0030F000427FF45CAF31F000437FF43CAF0C
:10064C005FE700BF4FF0FF3C06E000BF4FF0010C2E
:10065C0002E000BF4FF0010C4DF804CD4FEA400210
:10066C004FEA41037FEA226C18BF7FEA236C11D05A
:10067C0001B052EA530C18BF90EA010F58BFB2EB0D
:10068C00030088BFC81738BF6FEAE17018BF40F08D
:10069C00010070477FEA226C02D15FEA402C05D141
:1006AC007FEA236CE4D15FEA412CE1D05DF8040BC6
:1006BC00704700BF844608466146FFE70FB5FFF759
:1006CC00C9FF002848BF10F1000F0FBD4DF808ED11
:1006DC00FFF7F4FF0CBF012000205DF808FB00BF02
:1006EC004DF808EDFFF7EAFF34BF012000205DF85C
:1006FC0008FB00BF4DF808EDFFF7E0FF94BF0120A9
:10070C0000205DF808FB00BF4DF808EDFFF7D2FFA5
:10071C0094BF012000205DF808FB00BF4DF808EDE8
:10072C00FFF7C8FF34BF012000205DF808FB00BFB5
:10073C0042000ED2B2F1FE4F0BD34FF09E03B3EB3F
:10074C00126209D44FEA002343F0004323FA02F06B
:10075C0070474FF00000704712F1610F01D1420257
:10076C0002D14FF0FF3070474FF00000704700BFD0
:10077C000A22002100F0D4BB0A23002200F0AEBBF9
:10078C00014B1868704700BF0000002070B50D4E7B
:10079C000D4D761BB61006D0002455F8043B0134E1
:1007AC009847A642F9D1094E094D05F023F9761B5D
:1007BC00B61006D0002455F8043B01349847A642E5
:1007CC00F9D170BD6C6800086C680008706800088E
:1007DC006C68000888420DD98B1883420AD900EB4B
:1007EC00020CBAB1624613F801CD994202F801CD60
:1007FC00F9D170470F2A0ED8034602F1FF3C4AB1DB
:10080C000CF1010C013B8C4411F8012B614503F8F0
:10081C00012FF9D1704740EA01039B074FD1A2F198
:10082C00100370B501F1200C23F00F0501F1100E2F
:10083C0000F11004AC441B095EF8105C0EF1100EB4
:10084C0044F8105C5EF81C5C103444F81C5C5EF8D8
:10085C00185C44F8185C5EF8145CE64544F8145CCB
:10086C00EAD1013312F00C0F01EB031102F00F046B
:10087C0000EB031327D08E46043C24F003064FEA0A
:10088C00940C1E441C1F5EF8045B44F8045FB442D5
:10089C00F9D10CF1010402F0030203EB840301EB28
:1008AC00840102F1FF3C4AB10CF1010C013B8C4478
:1008BC0011F8012B614503F8012FF9D170BD0346E6
:1008CC0002F1FF3C9CE72246EBE700BF830730B503
:1008DC0048D0541E002A3FD00346CAB201E0013C66
:1008EC003AD303F8012B9D07F9D1032C2DD9CDB2A6
:1008FC0045EA05250F2C45EA054536D9A4F1100229
:10090C0022F00F0C03F1200EE6444FEA121C03F107
:10091C00100242E9045542E9025510327245F8D1F1
:10092C000CF1010214F00C0F03EB021204F00F0C8B
:10093C0013D0ACF1040323F003030433134442F843
:10094C00045B9342FBD10CF003042CB1CAB21C44DF
:10095C0003F8012B9C42FBD130BD64461346002C9E
:10096C00F4D1F9E703461446BFE71A46A446E0E77C
:10097C0008B410B5002A04469DB031DB4FF4027365
:10098C004FF6FF7CADF814300291069120AB15D0D8
:10099C00013A0492079202A91F9A0193ADF816C06E
:1009AC0000F0B4FB421C01DA8B2323600022029B73
:1009BC001A701DB0BDE8104001B070470492079248
:1009CC0002A91F9A0193ADF816C000F09FFB431CBF
:1009DC0001DA8B2323601DB0BDE8104001B07047D5
:1009EC008B234FF0FF302360F5E700BF0CB410B53C
:1009FC001E4B00291C689CB033DB4FF402734FF67E
:100A0C00FF7CADF81430029006901FAB16D0013964
:100A1C001E9A04910791204602A90193ADF816C0C5
:100A2C0000F074FB421C01DA8B2323600022029B32
:100A3C001A701CB0BDE8104002B0704704910791C9
:100A4C0020461E9A02A90193ADF816C000F05EFB79
:100A5C00431C01DA8B2323601CB0BDE8104002B0AC
:100A6C0070478B234FF0FF302360F5E70000002028
:100A7C0011F0FF01034644D0820732D110B504684F
:100A8C0041EA012E4EEA0E4E8EEA0402A2F1013327
:100A9C0023EA0203A4F1013222EA0402134313F005
:100AAC00803F0FD150F8044F84EA0E0CA4F10133AF
:100ABC00ACF1013223EA040322EA0C02134313F0D3
:100ACC00803FEFD0037823B936E010F8013F002BBC
:100ADC0032D09942F9D110BD8A4211D09A071846EA
:100AEC00CCD0184613F8012B002AF5D110467047CC
:100AFC009907184607D0184602780133002AF7D117
:100B0C0070478207F7D10268A2F1013323EA02038E
:100B1C0013F0803F08D150F8042FA2F1013323EADF
:100B2C00020313F0803FF6D00378002BE8D010F8C6
:100B3C00013F002BFBD17047184610BD80EA010C19
:100B4C001CF0030F37D110F0030C20F0030021F040
:100B5C00030150F8042B08BF51F8043B0ED08CF065
:100B6C00030C6FF07F434FEACC0C23FA0CFC51F8CA
:100B7C00043B42EA0C0243EA0C0300BFA2F1013C25
:100B8C009A4201BF2CEA020C1CF0803F50F8042B57
:100B9C0051F8043BF2D04FEA02604FEA12220128CE
:100BAC0028BFB0EB036F08BF1B0AF4D003F0FF03A0
:100BBC00000EC01A704710F0030F0AD010F8012B6A
:100BCC0011F8013B012A28BF9A42F4D0A2EB030092
:100BDC0070474DF8045D50F8042B01F0030521F02B
:100BEC00030151F8043B022D26D04DD822F07F454D
:100BFC00B5EB132FA2F1013C2CEA020C0DD11CF029
:100C0C00803C08BF51F8043B0AD185EA0205B5EBDC
:100C1C00036F0CD150F8042BE8E74FEA13235BE089
:100C2C003CF07F4C54D10B784FEA126554E04FEAFC
:100C3C00126503F0FF034FE04FEA0245A2F1013CBD
:100C4C004FEA15452CEA020CB5EB134F18D11CF0EA
:100C5C00803C08BF51F8043B07D185EA0205B5EB8F
:100C6C00034F09D150F8042BE6E75FEA0C4C2FD167
:100C7C000B884FEA12452FE04FEA03434FEA124527
:100C8C004FEA134328E000BF02F0FF05B5EB136FEA
:100C9C00A2F1013C2CEA020C0DD11CF0803C08BFE7
:100CAC0051F8043B0AD185EA0205B5EB032F0AD1B2
:100CBC0050F8042BE8E74FEA13630DE012F0FF0F36
:100CCC0006D051F8043B4FEA122523F07F4303E092
:100CDC004FF0000020BC704705F0FF0203F0FF004E
:100CEC00012828BF904204BF2D0A1B0AF4D0A2EBA6
:100CFC00000020BC704700BF20F0030110F003007F
:100D0C00C0F1000051F8043B00F1040C4FEACC0C8C
:100D1C006FF000021CBF22FA0CF213434FF0010CCF
:100D2C004CEA0C2C4CEA0C4CA3EB0C0222EA03020E
:100D3C0012EACC1204BF51F8043B0430F4D0C2F1D7
:100D4C00000102EA0102B2FA82F2C2F11F0200EBC8
:100D5C00D200704730B540EA0104A30722D1032A20
:100D6C0020D90B468446194653F8045BA5F101348F
:100D7C0024EA050414F0803F15D1043A032A1946DD
:100D8C004CF8045BEFD801F1FF3E52B163461EF8FC
:100D9C00011F541E03F8011B41B122469C46002A38
:100DAC00F4D130BD844601F1FF3EEEE76244002CE5
:100DBC00F7D003F8011B9342FBD130BD2DE9F04F66
:100DCC0081468E46444D70461EF801CB15F80C40FA
:100DDC0014F00804F7D1BCF12D0FE34653D06FF09B
:100DEC000048BCF12B0F04BF9EF800B000F1020EBE
:100DFC001BB1102B4FD01F4604E0BBF1300F55D068
:100E0C000A231F460025B8FBF7F6284607FB168A6F
:100E1C0007E0864215D329D0012507FB00C01EF838
:100E2C0001BBABF1300CBCF1090F06D9ABF1410C95
:100E3C00BCF1190F08D8ABF1370C63450DDD002D53
:100E4C00E7DA4FF0FF35EAE7ABF1610CBCF1190FB3
:100E5C0003D8ABF1570C6345F1DC002D0BDB04B16F
:100E6C0040420AB195BB1160BDE8F08FE245D3DA80
:100E7C004FF0FF35D3E72223C9F800301AB34046B0
:100E8C000EF1FF31EFE79EF800B04FF0004801245F
:100E9C0000F1020EACE7BBF1300FACD19EF80000B4
:100EAC0000F0DF00582807D01F46ABE79EF8003053
:100EBC0003F0DF03582B0BD110279EF801B03B46F3
:100ECC000EF1020E9EE74046BDE8F08F8046D6E755
:100EDC0008231F4696E700BF01670008012B02D0CC
:100EEC00242B00D86AE710B5FFF74AFC16230360E1
:100EFC00002010BD012A10B509D0242A07D8074CB0
:100F0C0013460A4601462068BDE8104056E7FFF735
:100F1C0037FC16230360002010BD00BF000000202A
:100F2C00012A10B509D0242A07D8074C13460A46C3
:100F3C0001462068BDE8104040E7FFF721FC16236E
:100F4C000360002010BD00BF000000202DE9F04719
:100F5C008F680C469F421D46164638D882468889B3
:100F6C0010F4906F0ED13D4608682A463146FFF7C3
:100F7C0031FC0020A2682368D21B2B44A2602360A2
:100F8C00BDE8F0874B69096903EB4308236808EB5C
:100F9C00D878A3EB01096B1C4FEA68084B44434516
:100FAC00424684BF98464246430513D511465046E7
:100FBC0000F0D6FC074608B34A46216900F0F4FB62
:100FCC00A38923F4906343F08003A38107E01F46B9
:100FDC000868CAE7504600F01FFD074650B107EB02
:100FEC000900A8EB09032761C4F814802F46A360FD
:100FFC002060BAE75046216900F04CFC0C23CAF87B
:10100C000030A3894FF0FF3043F04003A381B7E7D2
:10101C002DE9F04F9368914683B0002B6ED0176882
:10102C0080460C4608688D68083744E0B4F80CC05C
:10103C001CF4906F2ED0D4E90413451A03EB430330
:10104C0003EBD373AA194FEA630A531C5345524658
:10105C0084BF9A4652461CF4806F36D011464046E7
:10106C0000F07EFC00283AD02A462169019000F05D
:10107C009BFBA289019B22F4906242F08002A28128
:10108C005819AAEB0505A560C4F814A03546B2465C
:10109C002361206059465246FFF79CFBD9F8083073
:1010AC00A16820684D1B50449E1BA5602060C9F8A8
:1010BC0008601EB3083757E902B6002EFAD0B542C5
:1010CC00AA46B3D93546B246E4E7404600F0A4FC44
:1010DC0003460028D4D14046216900F0DBFB0C23E9
:1010EC0000224FF0FF30C8F80030A38943F04003D2
:1010FC00A381C9E9012203B0BDE8F08F0023184693
:10110C00C9F8043003B0BDE8F08F00BF2DE9F04FF3
:10111C001C468B890F461D06804692469DB003D512
:10112C000B69002B00F0F38000230993302320225D
:10113C008DF82A309AF80030039401257B4C8DF8F9
:10114C002920002B76D0D14603E019F8013F002B63
:10115C0079D0252BF9D1B9EB0A0B77D199F800206E
:10116C00002A67D000234FF0FF3209F10109CDE9C5
:10117C000523049307938DF853301A9304E0001B56
:10118C0005FA00F018430490CA460522204619F8C7
:10119C00011B00F0C1FA049B0028F0D1D80644BF13
:1011AC0020228DF85320190748BF2B229AF80010E3
:1011BC0048BF8DF853202A2956D1039A116804325E
:1011CC00002903927EDB07919AF801100AF1010ABB
:1011DC002E295BD0DFF858910322484600F09CFA88
:1011EC0048B14022049BA0EB090002FA00F0034333
:1011FC000AF1010A04931AF8011B06224D488DF8D6
:10120C00281000F089FA002862D04B4B002B52D0EA
:10121C0003A900913A464046484B04A9AFF300801D
:10122C000646721C06D0099B334409939AF8003089
:10123C00002B88D1BB895B064CBF4FF0FF3009985F
:10124C001DB0BDE8F08FB9EB0A0BF3D05B465246EC
:10125C0039464046FFF77AFE0130EBD0099B99F8EE
:10126C0000205B4409937BE7A1F13002092AAFD837
:10127C00079B1AF8011F03EB830302EB4303A1F155
:10128C003002092AF5D92E290793A3D19AF8011017
:10129C002A2927D1039B0AF102001A680433002A79
:1012AC000393B8BF4FF0FF339AF8021005928246B1
:1012BC00B8BF05938EE7039B073323F0070308336E
:1012CC000393B0E7494243F00203079104937BE791
:1012DC0003A900913A464046184B04A900F0C6F801
:1012EC0006469EE70023A1F13002092A0AF1010A01
:1012FC0005933FF66FAF1AF8011F03EB830302EB64
:10130C004303A1F13002092AF5D9059362E7402184
:10131C0000F026FB3860386110B140237B6103E795
:10132C000C234FF0FF30C8F8003089E73068000814
:10133C00386800083C68000800000000590F0008DD
:10134C002DE9F04791461E460A698B680C469A4275
:10135C00B8BF1A46C9F8002091F843300546DDF8AD
:10136C00208013B10132C9F80020226891065DD5A6
:10137C00D9F800300233C9F80030226812F0060F99
:10138C0011461ED1E168CB1A002BD8BF114618DDCF
:10139C00002704F1190A06E0D9F80030E268A2EB44
:1013AC00030CBC450CDD0123524631462846C04790
:1013BC00013007F10107EFD14FF0FF30BDE8F087A6
:1013CC00216894F84330003B18BF01238A060AD5E4
:1013DC003021E21882F8431094F845105A1C22442C
:1013EC00023382F843103146284604F14302C047C9
:1013FC000130E1D0236803F00603042B1DD0A36851
:10140C002269934225DD00279B1A1F4404F11A0917
:10141C00002401E0BC421CDA01234A46314628462E
:10142C00C047013004F10104F4D1C5E712F0060FF6
:10143C0012D0003B18BF0123D5E7D9F80030E16882
:10144C002269C91AA36821EAE1779342DCDC0029FE
:10145C00DCDC0020BDE8F087E168D9F80030CB1A5D
:10146C00002BD8BF114693DCABE700BF2DE9F0434E
:10147C0017460A7E85B00C46064698460C9D01F12F
:10148C00430C002A33D0A2F15803D9B2202967D8D3
:10149C00202B65D8DFE813F0DD00640064006400E5
:1014AC006400640064006400640064006400A300D1
:1014BC006E0064006400640064006E0064006400EC
:1014CC006400640021007F00BF0064006400AE0073
:1014DC0064007F0064006400E40023681A0640F195
:1014EC0002812B686269191D29601B681A60002330
:1014FC00E14623613B4621463046CDF8008003AAE5
:10150C00FFF71EFF013020D04A463946304623698A
:10151C00C047013019D02368E0689B07039919D59F
:10152C00431A002B16DD002504F1190904E0E068CC
:10153C000399431AAB420DDD01234A463946304626
:10154C00C047013005F10105F1D14FF0FF3005B076
:10155C00BDE8F0838842B8BF084605B0BDE8F0830B
:10156C00012384F8422004F142092361002384F80A
:10157C004330BFE72368190602D45A0600F1BF8036
:10158C0029680A68043129601146002A6ADB0A2599
:10159C00DFF87CE110E02368180640F19A802B6894
:1015AC00191D296019686F2A0CBF08250A25DFF858
:1015BC0060E1002384F843306268002AA2607DDB7E
:1015CC00236823F004032360002959D1002A77D122
:1015DC00E146082D63D0ACEB090323618AE70122B5
:1015EC002B6804F14209196804332B6084F842100B
:1015FC002261BBE72B6800211A1D2A60D3F80090EA
:10160C006268484600F088F800287FD0A0EB0900FB
:10161C0060602061AAE7236843F0200323607822EE
:10162C00DFF8F0E084F845202A68111D29601906BE
:10163C0042D45D0640D51188D80744BF43F020033F
:10164C002360002943D12368102523F02003236055
:10165C00AFE75823DFF8B8E084F845302368E3E7B8
:10166C002368DCE72D2284F8432062684942002A73
:10167C00A26002DB23F0040323600A25DFF890E06C
:10168C00E146B1FBF5F30A4605FB131019461EF8AB
:10169C000030AA4209F8013DF3D2082D9BD12368F2
:1016AC00D90798D5626823699A4294DC302309F1F2
:1016BC00FF3989F800308EE71168BDE70029DFD1CA
:1016CC009EF8003004F1420984F8423081E710257D
:1016DC006FE713F0400F2B6803F1040129600CBF76
:1016EC00196819885FE713F0400F2B68626903F1E2
:1016FC00040129601B6814BF1A801A60F7E62A6877
:10170C00B2F9001004322A600A463EE7606880E7AE
:10171C0044680008586800085FFA81FC810710D003
:10172C000346511E2AB90AE09A0718460AD0013915
:10173C0005D3184613F8012B6245F5D170470020EC
:10174C007047114603290CD80029F8D003460144F0
:10175C0001E08B42F3D0184613F8012B6245F8D107
:10176C00ECE7024610B54CEA0C2444EA044410465B
:10177C00036804326340A3F1013E2EEA030313F025
:10178C00803F04D1043903291046F0D851B10346E7
:10179C00014401E08B4205D0184613F8012B624539
:1017AC00F8D110BD002010BD844641EA000313F0AF
:1017BC00030349D1403A23D30B6803604B68436061
:1017CC008B688360CB68C3600B6903614B694361B1
:1017DC008B698361CB69C3610B6A03624B6A436299
:1017EC008B6A8362CB6AC3620B6B03634B6B436381
:1017FC008B6B8363CB6BC36340304031403ADBD29D
:10180C0030320BD30B6803604B6843608B6883608A
:10181C00CB68C36010301031103AF3D20C3205D3C0
:10182C0051F8043B40F8043B043AF9D2043208D096
:10183C00D2071CBF11F8013B00F8013B01D30B8808
:10184C0003806046704700BF082A13D38B07B1D0C2
:10185C0010F00303AED0C3F10403D21ADB071CBF94
:10186C0011F8013B00F8013BA4D331F8023B20F8FE
:10187C00023B9FE7043AD9D3013A11F8013B00F837
:10188C00013BF9D20B7803704B7843708B788370E3
:10189C0060467047002952D038B551F8043C0C1FF3
:1018AC00002BB8BFE418054600F0F0F82B4A13687B
:1018BC00002B45D0A3420CD921686018834228D054
:1018CC00636028461460BDE8384000F0E1B8A342DC
:1018DC000FD81A465B68002BF9D111685018844256
:1018EC001DD034D3636054602846BDE8384000F006
:1018FC00CFB811685018A04215D028D821686018AC
:10190C008342EFD118685B680144C4E9001354604A
:10191C00EAE718685B680144C4E90013D1E723685F
:10192C0019441160E0E720680144501883421160AB
:10193C00DAD1D3E900030144C2E90013D4E77047BC
:10194C00284663601460BDE8384000F0A1B80C2351
:10195C0028462B60BDE8384000F09AB8AC00002057
:10196C00F8B5CD1C25F0030508350C2D38BF0C251A
:10197C00002D064623DBA94221D8264F00F086F81D
:10198C003A6822B3144603E063682246FBB11C4656
:10199C0023685B1BF8D40B2B15D8636894420CBFDF
:1019AC003B605360304600F073F804F10B00231DCC
:1019BC0020F00700C21A01D01B1AA350F8BD0C234B
:1019CC0000203360F8BD23601C442560EAE7796889
:1019DC00D1B12946304600F047F8431C01460CD0E3
:1019EC00C41C24F00304A04205D03046611A00F058
:1019FC003BF8013001D02560D4E70C23304633602E
:101A0C0000F046F80020F8BD304600F02DF8786064
:101A1C00DFE700BFAC000020F8B51446F9B1CAB13D
:101A2C0006460D4600F036F8A04202D32F46384643
:101A3C00F8BD21463046FFF793FF07460028F6D045
:101A4C0022462946FFF7B0FE30462946FFF722FF13
:101A5C003846F8BD2746FFF71DFF3846F8BD11463E
:101A6C00BDE8F840FFF77CBF002238B5064D0446B0
:101A7C0008462A6000F07AFA431C00D038BD2B6867
:101A8C00002BFBD0236038BDB4000020704700BF92
:101A9C00704700BF51F8040C0028A0F10400BCBF33
:101AAC000B58C018704700BF80B500AF02F028FC7F
:101ABC0000F012F800F05AF800F0CAF800F074F9CF
:101ACC0000F08AFA034800F093FD01F08FFC00F05F
:101ADC00BBFAFAE70001002080B590B000AF07F127
:101AEC001803282200211846FEF7F0FE3B1D0022A9
:101AFC001A605A609A60DA601A610123BB614FF474
:101B0C008033FB6100233B620123BB6202237B63B6
:101B1C004FF48033BB634FF4E013FB6307F11803FE
:101B2C00184602F04FFC0346002B01D000F019F8C8
:101B3C000F237B600223BB600023FB604FF48063A8
:101B4C003B6100237B613B1D0221184602F0BCFE69
:101B5C000346002B01D000F004F800BF4037BD460F
:101B6C0080BD80B400AF72B600BFFEE780B588B010
:101B7C0000AF07F1100300221A605A609A60DA6015
:101B8C00304B9B692F4A43F0100393612D4B9B699B
:101B9C0003F01003FB60FB682A4B9B69294A43F056
:101BAC0020039361274B9B6903F02003BB60BB6848
:101BBC00244B9B69234A43F004039361214B9B699B
:101BCC0003F004037B607B681E4B9B691D4A43F04A
:101BDC00080393611B4B9B6903F008033B603B6854
:101BEC0000228021184803F098F901224FF48071EB
:101BFC00154803F092F940233B61144B7B6102239F
:101C0C00BB6107F1100319460F4802F0EBFF4FF4CC
:101C1C00C0733B6101237B610223BB610123FB6128
:101C2C0007F110031946084802F0DCFF00220021DE
:101C3C00172003F084FA172003F09DFA00BF203719
:101C4C00BD4680BD00100240000C01400000111088
:101C5C0080B58AB000AF07F1200300221A605A60E9
:101C6C003B1D00221A605A609A60DA601A615A6150
:101C7C009A61224B224A1A60204B47225A601F4B12
:101C8C0000229A601D4B40F2F312DA601B4B0022CB
:101C9C001A611A4B80229A61184801F006FF03461C
:101CAC00002B01D0FFF75DFF00233B6200237B621A
:101CBC0007F120031946114802F0C4FA0346002B21
:101CCC0001D0FFF74EFF60237B600023BB60002335
:101CDC00FB6000237B613B1D0C221946074801F079
:101CEC00D5FF0346002B01D0FFF73BFF034800F064
:101CFC0027F800BF2837BD4680BD00BFB8000020C4
:101D0C000008004080B485B000AF78607B681B6829
:101D1C00094A93420BD1094BDB69084A43F004038F
:101D2C00D361064BDB6903F00403FB60FB6800BF67
:101D3C001437BD4680BC70470008004000100240BC
:101D4C0080B588B000AF786007F1100300221A60EC
:101D5C005A609A60DA607B681B68104A934218D10B
:101D6C000F4B9B690E4A43F0080393610C4B9B6924
:101D7C0003F00803FB60FB684FF400733B61022324
:101D8C007B610223FB6107F110031946054802F041
:101D9C0029FF00BF2037BD4680BD00BF00080040B2
:101DAC0000100240000C014080B500AF114B124AEC
:101DBC001A60104B4FF4E1325A600E4B00229A60BD
:101DCC000C4B0022DA600B4B00221A61094B0C22DF
:101DDC005A61084B00229A61064B0022DA610548D1
:101DEC0003F0E4FB0346002B01D0FFF7BAFE00BF63
:101DFC0080BD00BF000100200038014080B588B0D4
:101E0C0000AF786007F1100300221A605A609A60E4
:101E1C00DA607B681B681C4A934231D11B4B9B696F
:101E2C001A4A43F480439361184B9B6903F4804333
:101E3C00FB60FB68154B9B69144A43F004039361E8
:101E4C00124B9B6903F00403BB60BB684FF4007337
:101E5C003B6102237B610323FB6107F110031946ED
:101E6C000B4802F0BFFE4FF480633B6100237B61A3
:101E7C000023BB6107F110031946054802F0B2FEBE
:101E8C0000BF2037BD4680BD003801400010024025
:101E9C000008014080B400AFFEE780B400AFFEE75D
:101EAC0080B400AFFEE780B400AFFEE780B400AFB3
:101EBC00FEE780B400AF00BFBD4680BC704780B465
:101ECC0000AF00BFBD4680BC704780B400AF00BF00
:101EDC00BD4680BC704780B500AF02F057FA00BF1A
:101EEC0080BD000080B500AF4021064802F0FEFF27
:101EFC000346012B01D100F09BF8402003F026F89B
:101F0C0000BF80BD000C014080B485B000AF154B04
:101F1C009B69144A43F001039361124B9B6903F0D4
:101F2C000103BB60BB680F4BDB690E4A43F0805367
:101F3C00D3610C4BDB6903F080537B607B680A4BED
:101F4C005B68FB60FB6823F0E063FB60FB6843F0BD
:101F5C000073FB60044AFB68536000BF1437BD4636
:101F6C0080BC7047001002400000014080B586B074
:101F7C0000AF7860144A154BD31A7B617B693B61C7
:101F8C00134B1B68002B02D1114B124A1A60104BD9
:101F9C001A687B6813443A699A4207D2FEF7F0FB41
:101FAC0003460C221A604FF0FF3309E0084B1B6804
:101FBC00FB60074B1A687B681344054A1360FB6887
:101FCC0018461837BD4680BD0050002000040000A4
:101FDC00480100209007002080B500AF01F004FC00
:101FEC000C21104801F0B0FD0E4B1B684FF4FA7237
:101FFC001A6401F0A1FC0346DBB21A464FF480715F
:10200C00094802F08AFF01F0B9FC0346DBB21A461C
:10201C008021054802F081FF044B00221A7000BF9A
:10202C0080BD00BFB8000020000C01404C01002016
:10203C0080B400AF034B01221A7000BFBD4680BCB8
:10204C00704700BF5401002090B583B000AF02F080
:10205C00AFF978602E4B1B78032B54D801A252F8A1
:10206C0023F000BF812000089F200008D120000829
:10207C00EB200008274B1B78DBB2002B3ED0254B06
:10208C0000221A70244A7B681360214B01221A70BB
:10209C0034E0214B1B687A68D41A01F007FC034624
:1020AC009C422DD31D4B1C6801F0E0FB03462364BE
:1020BC001B4B01221A70184A7B681360144B0222C6
:1020CC001A701DE0144B1B687A68D41A01F0AEFB31
:1020DC0003469C4216D30E4B03221A7012E00F4B90
:1020EC001B684FF4FA721A640D4B00221A70094BDC
:1020FC0000221A70064B00221A7004E000BF02E0A6
:10210C0000BF00E000BF00BF0C37BD4690BD00BF54
:10211C004C0100205401002050010020B800002088
:10212C005501002090B587B000AF78602A4B3B6119
:10213C007868FEF7DFF8034639691846FEF7E6F9CA
:10214C000346FB604FF00001F868FEF7D3FA034634
:10215C00002B02D04FF4FA733AE001F0CBFB0346AC
:10216C001846FEF7C7F803461946F868FEF7CCFA8E
:10217C000346002B01D000232AE001F0BBFB0346F1
:10218C001846FEF7B7F80346F9681846FEF700F84C
:10219C0003461C4601F0AEFB03461846FEF7AAF8B0
:1021AC00034619462046FEF7B1F903460B4918467B
:1021BC00FEF7F8F803461846FEF7BAFA03467B61B9
:1021CC007B69B3F5FA7F02D94FF4FA737B617B69B3
:1021DC0018461C37BD4690BDDCCB96410000FA4337
:1021EC0080B582B000AF7860786801F069FB034677
:1021FC00002B01D0012302E001F0CAFB0346184674
:10220C000837BD4680BD80B584B000AF7860786873
:10221C00FFF788FFF860F86801F012FB0346002B0B
:10222C0001D0012302E001F0B3FB0346184610373E
:10223C00BD4680BD90B585B000AF1D4BBB6001F0B5
:10224C0015FB03461846FEF755F803461949184680
:10225C00FEF75CF9034619464FF07E50FDF798FFE8
:10226C0003461C4601F046FB03461846FEF742F8AF
:10227C00034619462046FEF795F803467B60B9687D
:10228C007868FEF78FF80346FB604FF00001F868A2
:10229C00FEF726FA0346002B02D04FF00003FB603A
:1022AC00F868FEF745FA034618461437BD4690BD4C
:1022BC00DCCB96410000FA4380B582B000AF786069
:1022CC00786801F099FA0346002B01D0012302E053
:1022DC0001F05EFB034618460837BD4680BD80B54D
:1022EC0082B000AF7860786801F0CAFA0346002B20
:1022FC0001D0012302E001F04BFB034618460837DE
:10230C00BD4680BD80B582B000AF7860786801F0C2
:10231C0097FA0346002B01D0012302E001F038FBB1
:10232C00034618460837BD4680BD000080B582B014
:10233C0000AF7860786801F0E7FA0346002B01D013
:10234C0001230AE07B68DBB21A464FF48071054822
:10235C0002F0E3FD01F01CFB034618460837BD46AE
:10236C0080BD00BF000C014080B582B000AF78602A
:10237C00786801F0EBFA0346002B01D0012309E049
:10238C007B68DBB21A468021044802F0C6FD01F0DE
:10239C00FFFA034618460837BD4680BD000C0140C5
:1023AC0080B500AF01F042FA0346184680BD80B5F7
:1023BC0000AF01F07BFA0346184680BD80B500AF34
:1023CC0001F054FA0346184680BD80B500AF01F009
:1023DC0091FA0346184680BD80B500AF01F0ACFA07
:1023EC000346184680BD80B500AF01F0C7FA03461E
:1023FC00184680BD80B485B000AF0346FB71104B0E
:10240C001B889BB201335A42C3F30803C2F3080280
:10241C0058BF5342FB810B4B1B889BB2FA899A42E3
:10242C0009D0074B1B889BB21946074AFB795354BA
:10243C00034AFB89138000BF1437BD4680BC70472C
:10244C0060040020620400206002002080B483B08D
:10245C0000AF7860124B1B889AB2124B1B889BB250
:10246C009A4201D1002316E00E4B1B889BB21A46F0
:10247C000D4B9A5C7B681A700A4B1B889BB201331C
:10248C005A42C3F30803C2F3080258BF53429AB22C
:10249C00044B1A80012318460C37BD4680BC70478C
:1024AC0060040020620400206002002080B485B02B
:1024BC0000AF0346FB710F4B1B889BB201335A4292
:1024CC00DBB2D2B258BF5342FB810B4B1B889BB281
:1024DC00FA899A4209D0074B1B889BB21946074AC6
:1024EC00FB795354034AFB89138000BF1437BD4654
:1024FC0080BC704764050020660500206404002041
:10250C0080B483B000AF7860114B1B889AB2114B2A
:10251C001B889BB29A4201D1002314E00D4B1B88FF
:10252C009BB21A460C4B9A5C7B681A70094B1B8841
:10253C009BB201335A42DBB2D2B258BF53429AB269
:10254C00044B1A80012318460C37BD4680BC7047DB
:10255C0064050020660500206404002080B582B06C
:10256C0000AF0346FB71FB791846FFF79FFF00BFD6
:10257C000837BD4680BD80B582B000AF78607B68FF
:10258C00002B0CD006E07B685A1C7A601B7818462E
:10259C00FFF78CFF7B681B78002BF4D100E000BFA9
:1025AC000837BD4680BD000080B582B000AF0F4B30
:1025BC001B68002B14D00D4B1B681B681B6803F0A9
:1025CC008003802B0ED1FB1D1846FFF799FF0346A5
:1025DC00002B08D0FA79054B1B681B685A6002E087
:1025EC0000BF00E000BF0837BD4680BD5801002089
:1025FC0080B582B000AF78601D4A7B6813601C4BBD
:10260C00002283F806211B4B00221A801A4B002251
:10261C001A804FF4007200211848FEF757F9184B36
:10262C0000221A80174B00221A804FF4807200216E
:10263C001548FEF74BF9154B00221A804FF4007227
:10264C0000211348FEF742F9124800F02DF8124809
:10265C0000F02AF8114800F027F8114800F024F88F
:10266C00104800F021F800BF0837BD4680BD00BF00
:10267C005801002060040020620400206002002049
:10268C006405002066050020640400206807002013
:10269C0068050020185A0008405A0008585A0008CB
:1026AC00785A00089C5A000890B583B000AF786047
:1026BC007B68002B11D00B4B1B68002B0DD0094BEA
:1026CC001C687868FEF718FB03469AB24FF0FF338C
:1026DC007968204602F0BAFF00E000BF0C37BD4617
:1026EC0090BD00BF5801002080B584B000AF786069
:1026FC007B68002B44D07868FEF7FEFA0346FB603B
:10270C0007E0FB68013BFB60FB687A68134400221E
:10271C001A70FB68002B0CDDFB68013B7A681344D4
:10272C001B780133184A13441B7803F00803002B61
:10273C00E7D10023BB6002E0BB680133BB60BB6820
:10274C007A6813441B78002B0BD0BB687A6813444F
:10275C001B7801330C4A13441B7803F00803002B3D
:10276C00EAD1BB68002B0CDDBB687A68D118FA681B
:10277C00BB68D31A01331A467868FEF72BF800E0D1
:10278C0000BF1037BD4680BD0067000880B58CB017
:10279C0000AFF860B9607A60BB6812221A707B686F
:1027AC0000221A60F868FFF79FFFFB681B78002B6C
:1027BC0002D14FF0FF33A4E12021F868FEF758F95D
:1027CC00F862FB6A002B0BD0FB6A00221A70FB6AC2
:1027DC005A1C7B681A607B681B681846FFF784FFDD
:1027EC009949F868FEF7AAF90346002B03D1BB6898
:1027FC0000221A707DE19549F868FEF79FF90346AF
:10280C00002B06D09249F868FEF798F90346002B86
:10281C0003D1BB6811221A706BE18E49F868FEF780
:10282C008DF90346002B40F088807B681B68002BD9
:10283C0002D14FF0FF3364E17B681B688649184670
:10284C00FEF77CF90346002B06D1BB6808221A70F0
:10285C007B6800221A604CE17B681B687F49184634
:10286C00FEF76CF90346002B06D1BB6809221A70DF
:10287C007B6800221A603CE17B681B68784918462B
:10288C00FEF75CF90346002B06D1BB680A221A70CE
:10289C007B6800221A602CE17B681B687149184622
:1028AC00FEF74CF90346002B06D1BB680B221A70BD
:1028BC007B6800221A601CE17B681B686A49184619
:1028CC00FEF73CF90346002B06D1BB680C221A70AC
:1028DC007B6800221A600CE17B681B686349184610
:1028EC00FEF72CF90346002B06D1BB680D221A709B
:1028FC007B6800221A60FCE07B681B685C49184608
:10290C00FEF71CF90346002B06D1BB680E221A7089
:10291C007B6800221A60ECE07B681B6855491846FE
:10292C00FEF70CF90346002B40F0E380BB680F2246
:10293C001A707B6800221A60DBE04F49F868FEF7DA
:10294C00FDF80346002B40F0D4807B681B68002BFD
:10295C0002D14FF0FF33D4E07B681B68BB622021AF
:10296C00B86AFEF785F878627B6A002B00F0C180AC
:10297C007B6A00221A707B6A01337B62786AFFF7EC
:10298C00B3FE3549B86AFEF7D9F80346002B06D1D9
:10299C00BB6801221A707B687A6A1A60A9E02F4919
:1029AC00B86AFEF7CBF80346002B06D1BB680222AF
:1029BC001A707B687A6A1A609BE02949B86AFEF73C
:1029CC00BDF80346002B06D1BB6803221A707B6846
:1029DC007A6A1A608DE02349B86AFEF7AFF80346AD
:1029EC00002B06D1BB6804221A707B687A6A1A60C5
:1029FC007FE01D49B86AFEF7A1F80346002B06D10B
:102A0C00BB6805221A707B687A6A1A6071E01749F4
:102A1C00B86AFEF793F80346002B06D1BB68062272
:102A2C001A707B687A6A1A6063E01149B86AFEF71B
:102A3C0085F80346002B21D1BB6807221A707B68EE
:102A4C007A6A1A6055E000BFA05A0008A85A00081C
:102A5C00B05A0008B45A0008B85A0008C85A0008FE
:102A6C00D45A0008E05A0008EC5A0008F45A00083E
:102A7C00045B0008145B0008245B00082349B86A57
:102A8C00FEF75CF80346002B33D17B6A002B2AD06F
:102A9C007B6A1B78002B26D0786AFDF769FE3862BA
:102AAC003B6A002B1BDB3B6AB3F5FA7F17DC184B38
:102ABC001B683A6A1A641748FFF7F6FD07F1100015
:102ACC003B6A154A1021FDF791FF07F110031846D8
:102ADC00FFF7EAFD1148FFF7E7FD00BF06E01048DD
:102AEC00FFF7E2FD02E00F48FFF7DEFD6FF0010398
:102AFC0007E0BB681B78122B02D14FF0FF3300E0CC
:102B0C00002318463037BD4680BD00BF285B000847
:102B1C00B8000020385B0008545B0008585B0008C4
:102B2C00745B00089C5B000880B5AEB002AF034636
:102B3C003960FB71FB79112B00F22E8301A252F844
:102B4C0023F000BF992B0008A52B00081F2C0008B0
:102B5C00C52F0008AB2D0008252E00083F300008BB
:102B6C00B5300008972C0008B52C0008D32C0008B1
:102B7C00F12C00080F2D0008332D0008512D0008F2
:102B8C006F2D0008A53100082B310008FFF750FA13
:102B9C00B748FFF789FD03E33B68002B03D03B6884
:102BAC001B78002B03D1B348FFF77EFDF8E23868A1
:102BBC00FDF7DEFDC7F8A400D7F8A430002B24DD08
:102BCC00D7F8A4304EF6602293421EDCD7F8A4301E
:102BDC001846FFF771FB0346002B08D1D7F8A43039
:102BEC0007F10800A44A8021FDF700FF07E0D7F8A1
:102BFC00A43007F10800A14A8021FDF7F7FE07F188
:102C0C0008031846FFF750FDCAE29D48FFF74CFD3C
:102C1C00C6E23B68002B03D03B681B78002B03D12A
:102C2C009848FFF741FDBBE23868FDF7A1FDC7F8F6
:102C3C00A400D7F8A430002B23DBD7F8A430B3F5CD
:102C4C00FA7F1EDCD7F8A4301846FFF75BFB03466F
:102C5C00002B08D1D7F8A43007F108008A4A80214C
:102C6C00FDF7C4FE07E0D7F8A43007F10800874A47
:102C7C008021FDF7BBFE07F108031846FFF714FD92
:102C8C008EE28348FFF710FD8AE2FFF789FB0346CB
:102C9C0007F108007F4A8021FDF7A8FE07F1080321
:102CAC001846FFF701FD7BE2FFF788FB034607F1AF
:102CBC000800794A8021FDF799FE07F108031846B0
:102CCC00FFF7F2FC6CE2FFF772FB034607F108001A
:102CDC00724A8021FDF78AFE07F108031846FFF7B8
:102CEC00E3FC5DE2FFF771FB034607F108006C4A59
:102CFC008021FDF77BFE07F108031846FFF7D4FC93
:102D0C004EE2FFF797FAC7F8A80007F10800D7F8CA
:102D1C00A830644A8021FDF769FE07F108031846C4
:102D2C00FFF7C2FC3CE2FFF757FB034607F1080034
:102D3C005D4A8021FDF75AFE07F108031846FFF79C
:102D4C00B3FC2DE2FFF74FFB034607F10800574A8F
:102D5C008021FDF74BFE07F108031846FFF7A4FC92
:102D6C001EE24021524802F0C1F8034687F8AF300A
:102D7C0097F8AF2097F8AF30012B01D14D4B00E005
:102D8C004D4B07F10800009313464C4A8021FDF788
:102D9C002DFE07F108031846FFF786FC00E23B689E
:102DAC00002B03D03B681B78002B03D14448FFF762
:102DBC007BFCF5E13868FDF7DBFCC7F8A400D7F81D
:102DCC00A430002B24DDD7F8A43042F210729342C9
:102DDC001EDCD7F8A4301846FFF702FA0346002B86
:102DEC0008D1D7F8A43007F10800364A8021FDF746
:102DFC00FDFD07E0D7F8A43007F10800324A802126
:102E0C00FDF7F4FD07F108031846FFF74DFCC7E189
:102E1C002E48FFF749FCC3E13B68002B03D03B680D
:102E2C001B78002B58D12A4BC7F88C30FFF7CDFA02
:102E3C0003461846FDF75EFA0346D7F88C10184681
:102E4C00FDF7B0FA03461846FDF772FC0346C7F8C7
:102E5C00883007F10800D7F888301E4A8021FDF72A
:102E6C00C5FD07F108031846FFF71EFC98E100BFEB
:102E7C00D85B0008F05B0008285C0008585C000870
:102E8C008C5C0008B85C0008EC5C0008145D000861
:102E9C00405D0008685D00088C5D0008A45D0008BA
:102EAC00C05D0008E05D0008FC5D0008205E0008C5
:102EBC00000C0140445E00084C5E0008505E0008A7
:102ECC00805E0008B45E0008E05E0008105F000839
:102EDC00DCCB96413C5F00083868FDF749FCC7F82D
:102EEC00A400D7F8A430002B42DBD7F8A430184646
:102EFC00FFF789F90346002B2CD1D7F8A4301846DC
:102F0C00FFF710F9C7F89800A74BC7F89430FFF7F4
:102F1C005CFA03461846FDF7EDF90346D7F8941012
:102F2C001846FDF73FFA03461846FDF701FC034629
:102F3C00C7F89030D7F8A42007F10800D7F89030E4
:102F4C000193D7F8983000931346984A8021FDF7E7
:102F5C004DFD07E0D7F8A43007F10800944A802112
:102F6C00FDF744FD07F108031846FFF79DFB17E139
:102F7C008D4BC7F8A030FFF728FA03461846FDF72B
:102F8C00B9F90346D7F8A0101846FDF70BFA03461B
:102F9C001846FDF7CDFB0346C7F89C3007F1080037
:102FAC00D7F89C30834A8021FDF720FD07F10803F8
:102FBC001846FFF779FBF3E03B68002B03D03B6826
:102FCC001B78002B03D17C48FFF76EFBE8E03868D8
:102FDC00FDF7CEFBC7F8A400D7F8A430002B24DBF8
:102FEC00D7F8A43042F2107293421EDCD7F8A4300A
:102FFC001846FFF774F90346002B08D1D7F8A43014
:10300C0007F108006D4A8021FDF7F0FC07E0D7F8C6
:10301C00A43007F108006A4A8021FDF7E7FC07F1AC
:10302C0008031846FFF740FBBAE06648FFF73CFB85
:10303C00B6E03B68002B03D03B681B78002B03D118
:10304C006148FFF731FBABE03868FDF791FBC7F83F
:10305C00A400D7F8A430002B03D0D7F8A430012B50
:10306C001ED1D7F8A4301846FFF760F90346002BA1
:10307C0008D1D7F8A43007F10800544A8021FDF795
:10308C00B5FC07E0D7F8A43007F10800504A8021BE
:10309C00FDF7ACFC07F108031846FFF705FB7FE0D2
:1030AC004C48FFF701FB7BE03B68002B03D03B68EF
:1030BC001B78002B03D14848FFF7F6FA70E038680C
:1030CC00FDF756FBC7F8A400D7F8A430002B03D0AB
:1030DC00D7F8A430012B1ED1D7F8A4301846FFF72F
:1030EC0043F90346002B08D1D7F8A43007F10800A8
:1030FC003A4A8021FDF77AFC07E0D7F8A43007F1B3
:10310C000800374A8021FDF771FC07F108031846C7
:10311C00FFF7CAFA44E02F48FFF7C6FA40E03148FF
:10312C00FFF7C2FA3048FFF7BFFA3048FFF7BCFA96
:10313C002F48FFF7B9FA2F48FFF7B6FA2E48FFF7DA
:10314C00B3FA2E48FFF7B0FA2D48FFF7ADFA2D4829
:10315C00FFF7AAFA2C48FFF7A7FA2C48FFF7A4FAB6
:10316C002B48FFF7A1FA2B48FFF79EFA2A48FFF7E6
:10317C009BFA2A48FFF798FA2948FFF795FA29484D
:10318C00FFF792FA2848FFF78FFA2848FFF78CFAD6
:10319C002748FFF789FA03E02648FFF785FA00BFB6
:1031AC0000BFB037BD4680BDDCCB9641845F0008C4
:1031BC00D85F0008086000084C60000880600008B8
:1031CC00AC600008DC600008086100084061000881
:1031DC0074610008AC610008D46100080C6200083E
:1031EC00406200087862000890620008C46200081F
:1031FC0004630008406300087C630008B86300089F
:10320C00F06300082864000860640008B0640008DB
:10321C00EC640008286500086065000898650008E3
:10322C00CC6500080C6600084C6600089066000827
:10323C00C0660008C466000880B400AF0A4B1B6867
:10324C00002B01D100230AE0074B1B681B681B688D
:10325C0003F02003202B0CBF01230023DBB2184604
:10326C00BD4680BC704700BF5801002080B400AF41
:10327C00074B1B68002B01D1002304E0044B1B6897
:10328C001B685B68DBB21846BD4680BC704700BF4C
:10329C005801002080B582B000AF07E0FFF7E6FFD1
:1032AC000346FB71FB791846FFF7A4F8FFF7C4FF40
:1032BC000346002BF2D100BF00BF0837BD4680BDCE
:1032CC0080B582B000AF0346FB71FB790D2B02D0A9
:1032DC00FB790A2B03D10E48FFF74DF914E0FB796B
:1032EC00082B02D0FB797F2B03D10A48FFF743F957
:1032FC000AE0FB791F2B07D9FB797E2B04D8FB79CD
:10330C001846FFF72BF9FFE700BF0837BD4680BD15
:10331C00C0660008FC66000880B500AF0A4B1B882D
:10332C00002B0ED0084B1B88013B9AB2064B1A801F
:10333C00054B1B881A46054B002199540820FFF7B2
:10334C00BFFF00BF80BD00BF6807002068050020DC
:10335C0080B582B000AF0346FB71FB790D2B02D018
:10336C00FB790A2B0DD11F4B1B88002B07D01D4B53
:10337C001B881A461C4B0021995401232DE0002375
:10338C002BE0FB79082B02D0FB797F2B03D1FFF7C5
:10339C00C3FF002321E0FB791F2B02D9FB797E2B85
:1033AC0001D9002319E00F4B1B88B3F5FF7F13D80D
:1033BC000C4B1B885A1C91B20A4A118019460A4AB6
:1033CC00FB795354074B1B881A46074B0021995421
:1033DC00FB791846FFF774FF002318460837BD46E3
:1033EC0080BD00BF680700206805002080B5ADF5E2
:1033FC00047D00AFFFF74EFFFFF7D6F84AE097F8D1
:10340C000B321846FFF7A4FF0346002B42D00023D3
:10341C00C7F804323B1D40F2FF1227491846FDF74E
:10342C0099FC07F50473A3F50373002283F8FF21BD
:10343C0007F5017207F20A213B1D1846FFF7A6F9A2
:10344C00C7F80C02D7F80C32002B08D197F80A32C7
:10345C00D7F8042211461846FFF766FB08E0D7F8A8
:10346C000C3213F1020F03D000211220FFF75CFB8A
:10347C00124B00221A804FF4007200210E48FDF707
:10348C0025FAD7F80C3213F1020F0CD00C48FFF7C9
:10349C0072F808E007F20B231846FEF7D7FF034635
:1034AC00002BACD100E000BFFFF77EF800BF07F5A2
:1034BC000477BD4680BD00BF68050020680700206A
:1034CC009C5A000880B483B000AF78607B681A689F
:1034DC007B685B681A447B689B681A447B68DB6872
:1034EC001A447B681B691A447B685B691344184651
:1034FC000C37BD4680BC704780B483B000AF786099
:10350C00104B1A687B681A600F4B1A687B685A60FC
:10351C000E4B1A687B689A600D4B1A687B68DA60F0
:10352C000C4B1A687B681A610B4B1A687B685A61E2
:10353C000A4B1A687B689A61002318460C37BD4603
:10354C0080BC704700FC000804FC000808FC000864
:10355C000CFC000810FC000814FC000818FC000807
:10356C002DE9B04F90B000AF7862786AFFF7AAFFF0
:10357C0002467B6A9A6101F089FE0023BB625C4BB8
:10358C003B6301237B6307F1380207F128031146E3
:10359C00184601F063FF034687F83F3097F83F3039
:1035AC00002B04D001F098FE97F83F309BE07B6A2B
:1035BC001B6800221C46154622462B464C4902200D
:1035CC0001F0F4FD034687F83F3097F83F30002BAD
:1035DC0004D001F081FE97F83F3084E07B6A5B6891
:1035EC0000229846914642464B464249022001F041
:1035FC00DDFD034687F83F3097F83F30002B04D0B1
:10360C0001F06AFE97F83F306DE07B6A9B68002200
:10361C009A46934652465B463749022001F0C6FD56
:10362C00034687F83F3097F83F30002B04D001F069
:10363C0053FE97F83F3056E07B6ADB680022BB6193
:10364C00FA61D7E906232D49022001F0AFFD0346AC
:10365C0087F83F3097F83F30002B04D001F03CFE48
:10366C0097F83F303FE07B6A1B6900223B617A612F
:10367C00D7E904232249022001F098FD034687F87C
:10368C003F3097F83F30002B04D001F025FE97F81F
:10369C003F3028E07B6A5B690022BB60FA60D7E9A7
:1036AC0002231849022001F081FD034687F83F30C0
:1036BC0097F83F30002B04D001F00EFE97F83F3006
:1036CC0011E07B6A9B6900223B607A60D7E900239A
:1036DC000D49022001F06AFD034687F83F3001F0E6
:1036EC00FBFD97F83F3018464037BD46BDE8B08F1C
:1036FC0000FC000804FC000808FC00080CFC000896
:10370C0010FC000814FC000818FC000890B583B0ED
:10371C0000AF78607B681B68B3F1FF3F18D07B6803
:10372C005B68B3F1FF3F13D07B689B68B3F1FF3F3D
:10373C000ED07B68DB68B3F1FF3F09D07B681B6957
:10374C00B3F1FF3F04D07B685B69B3F1FF3F01D15C
:10375C00002345E07B681B68002B05D07B681B6849
:10376C004EF66022934201D9002339E07B685B68F6
:10377C00B3F5FA7F01D9002332E07B689B6842F2F3
:10378C001072934201D900232AE07B68DB68002B7E
:10379C0005D07B68DB6842F21072934201D900239A
:1037AC001EE07B681B69002B05D07B681B69012B15
:1037BC0001D0002314E07B685B69002B05D07B688B
:1037CC005B69012B01D000230AE07B689C69786857
:1037DC00FFF778FE03469C4201D0002300E0012352
:1037EC0018460C37BD4690BD80B500AF00F0F0F820
:1037FC000346184680BD000080B483B000AF7860EB
:10380C007B68002B04D07B684EF66022934201D972
:10381C00012303E0044A7B681360002318460C372D
:10382C00BD4680BC704700BF6400002080B400AF70
:10383C00024B1B681846BD4680BC704764000020D4
:10384C0080B483B000AF7860074B9B687A689A426B
:10385C0001D9012303E0044A7B6853600023184616
:10386C000C37BD4680BC70476400002080B400AFAC
:10387C00024B5B681846BD4680BC70476400002054
:10388C0080B483B000AF78607B6842F210729342D0
:10389C0001D9012303E0044A7B68D3600023184656
:1038AC000C37BD4680BC70476400002080B400AF6C
:1038BC00024BDB681846BD4680BC70476400002094
:1038CC0080B483B000AF78607B68002B04D07B6839
:1038DC0042F21072934201D9012303E0044A7B683F
:1038EC001361002318460C37BD4680BC704700BFDF
:1038FC006400002080B400AF024B1B691846BD4623
:10390C0080BC70476400002080B483B000AF786046
:10391C007B68002B04D07B68012B01D0012303E0D2
:10392C00044A7B685361002318460C37BD4680BCA3
:10393C00704700BF6400002080B400AF024B5B698D
:10394C001846BD4680BC70476400002080B483B02C
:10395C0000AF78607B68002B04D07B68012B01D012
:10396C00012303E0044A7B689361002318460C375B
:10397C00BD4680BC704700BF6400002080B400AF1F
:10398C00024B9B691846BD4680BC70476400002002
:10399C0080B588B000AF0D4B1B687B600B4B5B6830
:1039AC00BB600A4BDB68FB60084B1B693B61074B38
:1039BC005B697B61054B9B69BB613B1D1846FFF73F
:1039CC00CFFD034618462037BD4680BD640000205D
:1039DC0080B588B000AF3B1D1846FFF78DFD034640
:1039EC00002B1AD13B1D1846FFF790FE0346002B07
:1039FC0013D07B68164A1360BB68154A5360FB688A
:103A0C00134AD3603B69124A13617B69104A5361B4
:103A1C00BB690F4A9361002316E00D4B1B687B605A
:103A2C000B4B5B68BB600A4BDB68FB60084B1B698C
:103A3C003B61074B5B697B61054B9B69BB613B1D24
:103A4C001846FFF78DFD012318462037BD4680BD73
:103A5C006400002000F023F80B480C490C4A0023AA
:103A6C0002E0D458C4500433C4188C42F9D3094A28
:103A7C00094C002301E013600432A242FBD3FCF793
:103A8C0085FEFEF711F87047000000208C00002026
:103A9C00746800088C00002090070020FEE780B4BA
:103AAC0000AF00BFBD4680BC704780B582B000AF90
:103ABC0078607B68002B01D1012341E07B6893F88F
:103ACC003D30DBB2002B06D17B68002283F83C2012
:103ADC007868FEF717F97B68022283F83D207B6833
:103AEC001A687B6804331946104600F091F97B681C
:103AFC00012283F846207B68012283F83E207B68F4
:103B0C00012283F83F207B68012283F840207B68E8
:103B1C00012283F841207B68012283F842207B68D4
:103B2C00012283F843207B68012283F844207B68C0
:103B3C00012283F845207B68012283F83D20002375
:103B4C0018460837BD4680BD80B584B000AF78609C
:103B5C0039603B68002B09D17B6893F83E30DBB2AF
:103B6C00012B14BF01230023DBB222E03B68042BA2
:103B7C0009D17B6893F83F30DBB2012B14BF0123D2
:103B8C000023DBB215E03B68082B09D17B6893F866
:103B9C004030DBB2012B14BF01230023DBB208E061
:103BAC007B6893F84130DBB2012B14BF0123002357
:103BBC00DBB2002B01D001235EE03B68002B04D16B
:103BCC007B68022283F83E2013E03B68042B04D16F
:103BDC007B68022283F83F200BE03B68082B04D162
:103BEC007B68022283F8402003E07B68022283F882
:103BFC0041207B681B6801223968184600F0FEFAE8
:103C0C007B681B681E4A934207D17B681B685A6C01
:103C1C007B681B6842F400425A647B681B68184A34
:103C2C0093420ED07B681B68B3F1804F09D07B6840
:103C3C001B68144A934204D07B681B68124A934257
:103C4C0011D17B681B689B6803F00703FB60FB6862
:103C5C00062B10D07B681B681A687B681B6842F0C7
:103C6C0001021A6007E07B681B681A687B681B6896
:103C7C0042F001021A60002318461037BD4680BD81
:103C8C00002C0140000400400008004080B586B0C4
:103C9C0000AFF860B9607A600023FB75FB6893F89D
:103CAC003C30012B01D10223AEE0FB68012283F8EA
:103CBC003C207B680C2B00F29F8001A252F823F071
:103CCC00013D0008053E0008053E0008053E0008C1
:103CDC00413D0008053E0008053E0008053E000871
:103CEC00833D0008053E0008053E0008053E00081F
:103CFC00C33D0008FB681B68B968184600F0F6F86D
:103D0C00FB681B689A69FB681B6842F008029A61A1
:103D1C00FB681B689A69FB681B6822F004029A61B5
:103D2C00FB681B689969BB681A69FB681B680A43C6
:103D3C009A6164E0FB681B68B968184600F03CF9AE
:103D4C00FB681B689A69FB681B6842F400629A6105
:103D5C00FB681B689A69FB681B6822F480629A6195
:103D6C00FB681B689969BB681B691A02FB681B68B6
:103D7C000A439A6143E0FB681B68B968184600F077
:103D8C0085F9FB681B68DA69FB681B6842F008025E
:103D9C00DA61FB681B68DA69FB681B6822F00402B5
:103DAC00DA61FB681B68D969BB681A69FB681B6818
:103DBC000A43DA6123E0FB681B68B968184600F017
:103DCC00CFF9FB681B68DA69FB681B6842F4006278
:103DDC00DA61FB681B68DA69FB681B6822F4806295
:103DEC00DA61FB681B68D969BB681B691A02FB683E
:103DFC001B680A43DA6102E00123FB7500BFFB6814
:103E0C00002283F83C20FB7D18461837BD4680BD48
:103E1C0080B485B000AF786039607B681B68FB604C
:103E2C007B682F4A93420BD07B68B3F1804F07D04D
:103E3C007B682C4A934203D07B682B4A934208D16F
:103E4C00FB6823F07003FB603B685B68FA68134304
:103E5C00FB607B68224A93420BD07B68B3F1804FA6
:103E6C0007D07B681F4A934203D07B681E4A93425B
:103E7C0008D1FB6823F44073FB603B68DB68FA688D
:103E8C001343FB60FB6823F080023B685B691343C0
:103E9C00FB607B68FA681A603B689A687B68DA6238
:103EAC003B681A687B689A627B680D4A934203D11F
:103EBC003B681A697B681A637B6801225A617B68CC
:103ECC001B6903F00103002B05D07B681B6923F0F1
:103EDC0001027B681A6100BF1437BD4680BC704775
:103EEC00002C0140000400400008004080B487B062
:103EFC0000AF786039607B681B6A7B617B681B6AEA
:103F0C0023F001027B681A627B685B683B617B680B
:103F1C009B69FB60FB6823F07003FB60FB6823F07C
:103F2C000303FB603B681B68FA681343FB607B6907
:103F3C0023F002037B613B689B687A6913437B61C6
:103F4C007B681C4A93420CD17B6923F008037B618C
:103F5C003B68DB687A6913437B617B6923F004035C
:103F6C007B617B68134A934211D13B6923F48073C4
:103F7C003B613B6923F400733B613B685B693A69C5
:103F8C0013433B613B689B693A6913433B617B6814
:103F9C003A695A607B68FA689A613B685A687B6830
:103FAC005A637B687A691A6200BF1C37BD4680BCB5
:103FBC00704700BF002C014080B487B000AF786020
:103FCC0039607B681B6A7B617B681B6A23F010027B
:103FDC007B681A627B685B683B617B689B69FB60F2
:103FEC00FB6823F4E043FB60FB6823F44073FB6045
:103FFC003B681B681B02FA681343FB607B6923F068
:10400C0020037B613B689B681B017A6913437B61CE
:10401C007B681D4A93420DD17B6923F080037B6141
:10402C003B68DB681B017A6913437B617B6923F076
:10403C0040037B617B68144A934213D13B6923F4A0
:10404C0080633B613B6923F400633B613B685B69C4
:10405C009B003A6913433B613B689B699B003A693F
:10406C0013433B617B683A695A607B68FA689A61D2
:10407C003B685A687B689A637B687A691A6200BFEE
:10408C001C37BD4680BC7047002C014080B487B003
:10409C0000AF786039607B681B6A7B617B681B6A48
:1040AC0023F480727B681A627B685B683B617B6877
:1040BC00DB69FB60FB6823F07003FB60FB6823F09B
:1040CC000303FB603B681B68FA681343FB607B6966
:1040DC0023F400737B613B689B681B027A69134372
:1040EC007B617B681D4A93420DD17B6923F400638D
:1040FC007B613B68DB681B027A6913437B617B69DC
:10410C0023F480637B617B68144A934213D13B692F
:10411C0023F480533B613B6923F400533B613B68C0
:10412C005B691B013A6913433B613B689B691B014B
:10413C003A6913433B617B683A695A607B68FA6859
:10414C00DA613B685A687B68DA637B687A691A6261
:10415C0000BF1C37BD4680BC704700BF002C01401F
:10416C0080B487B000AF786039607B681B6A3B61B4
:10417C007B681B6A23F480527B681A627B685B68DD
:10418C007B617B68DB69FB60FB6823F4E043FB60CD
:10419C00FB6823F44073FB603B681B681B02FA68E6
:1041AC001343FB603B6923F400533B613B689B6802
:1041BC001B033A6913433B617B680F4A934209D155
:1041CC007B6923F480437B613B685B699B017A6963
:1041DC0013437B617B687A695A607B68FA68DA61A1
:1041EC003B685A687B681A647B683A691A6200BF3C
:1041FC001C37BD4680BC7047002C014080B487B092
:10420C0000AFF860B9607A60BB6803F01F0301224D
:10421C0002FA03F37B61FB681A6A7B69DB431A4081
:10422C00FB681A62FB681A6ABB6803F01F037968A3
:10423C0001FA03F31A43FB681A6200BF1C37BD4630
:10424C0080BC704780B485B000AF786039607B6803
:10425C0093F83C30012B01D1022346E07B6801220C
:10426C0083F83C207B68022283F83D207B681B6826
:10427C005B68FB607B681B689B68BB60FB6823F01A
:10428C007003FB603B681B68FA681343FB607B6838
:10429C001B68FA685A607B681B68164A93420ED0FA
:1042AC007B681B68B3F1804F09D07B681B68124A8E
:1042BC00934204D07B681B68104A93420CD1BB68B4
:1042CC0023F08003BB603B685B68BA681343BB6038
:1042DC007B681B68BA689A607B68012283F83D2072
:1042EC007B68002283F83C20002318461437BD4617
:1042FC0080BC7047002C01400004004000080040C6
:10430C0080B500AF084B1B68074A43F010031360DD
:10431C00032000F009FF0F2000F008F8FDF7F4FD72
:10432C000023184680BD00BF0020024080B582B03B
:10433C0000AF7860124B1A68124B1B7819464FF479
:10434C007A73B3FBF1F3B2FBF3F3184600F021FFE1
:10435C000346002B01D001230EE07B680F2B0AD8FB
:10436C00002279684FF0FF3000F0E9FE064A7B68C6
:10437C001360002300E0012318460837BD4680BDBA
:10438C0080000020880000208400002080B400AF52
:10439C00054B1B781A46054B1B681344034A1360E4
:1043AC0000BFBD4680BC7047880000206C07002011
:1043BC0080B400AF024B1B681846BD4680BC7047EA
:1043CC006C07002080B586B000AF78607B68002B4E
:1043DC0001D1012372E27B681B6803F00103002BFF
:1043EC0000F08780924B5B6803F00C03042B0CD01D
:1043FC008F4B5B6803F00C03082B12D18C4B5B6862
:10440C0003F48033B3F5803F0BD1894B1B6803F465
:10441C000033002B6CD07B685B68002B68D10123C8
:10442C004CE27B685B68B3F5803F06D1804B1B6820
:10443C007F4A43F4803313602EE07B685B68002B6B
:10444C000CD17B4B1B687A4A23F480331360784B76
:10445C001B68774A23F4802313601DE07B685B683C
:10446C00B3F5A02F0CD1724B1B68714A43F4802317
:10447C0013606F4B1B686E4A43F4803313600BE080
:10448C006B4B1B686A4A23F480331360684B1B68C0
:10449C00674A23F4802313607B685B68002B13D07E
:1044AC00FFF786FF386108E0FFF782FF02463B69A1
:1044BC00D31A642B01D9032300E25D4B1B6803F470
:1044CC000033002BF0D014E0FFF772FF386108E0E6
:1044DC00FFF76EFF02463B69D31A642B01D9032305
:1044EC00ECE1534B1B6803F40033002BF0D100E0DC
:1044FC0000BF7B681B6803F00203002B63D04C4B9E
:10450C005B6803F00C03002B0BD0494B5B6803F08A
:10451C000C03082B1CD1464B5B6803F48033002B37
:10452C0016D1434B1B6803F00203002B05D07B68AC
:10453C001B69012B01D00123C0E13D4B1B6823F00B
:10454C00F8027B685B69DB00394913430B603AE086
:10455C007B681B69002B20D0364B01221A60FFF7B9
:10456C0027FF386108E0FFF723FF02463B69D31AA7
:10457C00022B01D90323A1E12D4B1B6803F002038D
:10458C00002BF0D02A4B1B6823F0F8027B685B6988
:10459C00DB00274913430B6015E0264B00221A6001
:1045AC00FFF706FF386108E0FFF702FF02463B69A0
:1045BC00D31A022B01D9032380E11D4B1B6803F096
:1045CC000203002BF0D17B681B6803F00803002B5F
:1045DC003AD07B689B69002B19D0174B01221A60CB
:1045EC00FFF7E6FE386108E0FFF7E2FE02463B69A2
:1045FC00D31A022B01D9032360E10D4B5B6A03F044
:10460C000203002BF0D0012000F0CEFA1CE00A4B84
:10461C0000221A60FFF7CCFE38610FE0FFF7C8FEEE
:10462C0002463B69D31A022B08D9032346E100BF8B
:10463C00001002400000424280044242924B5B6AEE
:10464C0003F00203002BE9D17B681B6803F0040321
:10465C00002B00F0A6800023FB758B4BDB6903F06D
:10466C008053002B0DD1884BDB69874A43F0805374
:10467C00D361854BDB6903F08053BB60BB680123BE
:10468C00FB75824B1B6803F48073002B18D17F4B96
:10469C001B687E4A43F480731360FFF789FE386110
:1046AC0008E0FFF785FE02463B69D31A642B01D95B
:1046BC00032303E1754B1B6803F48073002BF0D0CC
:1046CC007B68DB68012B06D16F4B1B6A6E4A43F08B
:1046DC00010313622DE07B68DB68002B0CD16A4B65
:1046EC001B6A694A23F001031362674B1B6A664A13
:1046FC0023F0040313621CE07B68DB68052B0CD1F0
:10470C00614B1B6A604A43F0040313625E4B1B6AE5
:10471C005D4A43F0010313620BE05B4B1B6A5A4A80
:10472C0023F001031362584B1B6A574A23F004030E
:10473C0013627B68DB68002B15D0FFF739FE3861FC
:10474C000AE0FFF735FE02463B69D31A41F2883284
:10475C00934201D90323B1E04B4B1B6A03F00203D4
:10476C00002BEED014E0FFF723FE38610AE0FFF7D0
:10477C001FFE02463B69D31A41F28832934201D99B
:10478C0003239BE0404B1B6A03F00203002BEED18A
:10479C00FB7D012B05D13C4BDB693B4A23F080535D
:1047AC00D3617B68DB69002B00F08780364B5B683C
:1047BC0003F00C03082B61D07B68DB69022B46D11C
:1047CC00334B00221A60FFF7F3FD386108E0FFF766
:1047DC00EFFD02463B69D31A022B01D903236DE08E
:1047EC00294B1B6803F00073002BF0D17B681B6A0C
:1047FC00B3F5803F08D1244B5B6823F400327B680F
:10480C009B68214913434B601F4B5B6823F4741264
:10481C007B68196A7B685B6A0B431B4913434B60CB
:10482C001B4B01221A60FFF7C3FD386108E0FFF74C
:10483C00BFFD02463B69D31A022B01D903233DE08D
:10484C00114B1B6803F00073002BF0D035E0104BBC
:10485C0000221A60FFF7ACFD386108E0FFF7A8FDF5
:10486C0002463B69D31A022B01D9032326E0064BDF
:10487C001B6803F00073002BF0D11EE07B68DB6932
:10488C00012B07D1012319E00010024000700040F9
:10489C00600042420B4B5B68FB60FB6803F48032A8
:1048AC007B681B6A9A4206D1FB6803F470127B6822
:1048BC005B6A9A4201D0012300E0002318461837A6
:1048CC00BD4680BD0010024080B584B000AF78605A
:1048DC0039607B68002B01D10123D0E06A4B1B6847
:1048EC0003F007033A689A4210D9674B1B6823F010
:1048FC00070265493B6813430B60634B1B6803F06D
:10490C0007033A689A4201D00123B8E07B681B6820
:10491C0003F00203002B20D07B681B6803F0040318
:10492C00002B05D0594B5B68584A43F4E063536045
:10493C007B681B6803F00803002B05D0534B5B68A6
:10494C00524A43F460535360504B5B6823F0F002BF
:10495C007B689B684D4913434B607B681B6803F075
:10496C000103002B40D07B685B68012B07D1474BC0
:10497C001B6803F40033002B15D101237FE07B6807
:10498C005B68022B07D1414B1B6803F00073002BB3
:10499C0009D1012373E03D4B1B6803F00203002B8C
:1049AC0001D101236BE0394B5B6823F003027B6878
:1049BC005B68364913434B60FFF7FAFCF8600AE07A
:1049CC00FFF7F6FC0246FB68D31A41F28832934299
:1049DC0001D9032353E02D4B5B6803F00C027B6879
:1049EC005B689B009A42EBD1274B1B6803F00703D3
:1049FC003A689A4210D2244B1B6823F007022249D2
:104A0C003B6813430B60204B1B6803F007033A68A9
:104A1C009A4201D0012332E07B681B6803F0040347
:104A2C00002B08D0194B5B6823F4E0627B68DB68D1
:104A3C00164913434B607B681B6803F00803002B7B
:104A4C0009D0124B5B6823F460527B681B69DB0056
:104A5C000E4913434B6000F021F802460B4B5B6888
:104A6C001B0903F00F030A49CB5C22FA03F3094A32
:104A7C001360094B1B681846FFF758FC00231846B7
:104A8C001037BD4680BD00BF002002400010024020
:104A9C0004680008800000208400002080B487B0E7
:104AAC0000AF0023FB600023BB6000237B6100236D
:104ABC007B6000233B611E4B5B68FB60FB6803F073
:104ACC000C03042B02D0082B03D027E0194B3B61BD
:104ADC0027E0FB689B0C03F00F03174AD35C7B6049
:104AEC00FB6803F48033002B10D0114B5B685B0C1C
:104AFC0003F00103114AD35CBB607B680D4A03FBD6
:104B0C0002F2BB68B2FBF3F37B6104E07B680C4AF6
:104B1C0002FB03F37B617B693B6102E0054B3B616C
:104B2C0000BF3B6918461C37BD4680BC704700BFB0
:104B3C000010024000127A001C6800082C68000863
:104B4C0000093D0080B400AF024B1B681846BD46FF
:104B5C0080BC70478000002080B500AFFFF7F2FFEB
:104B6C000246054B5B681B0A03F007030349CB5C49
:104B7C0022FA03F3184680BD0010024014680008A6
:104B8C0080B500AFFFF7DEFF0246054B5B68DB0A22
:104B9C0003F007030349CB5C22FA03F3184680BDEC
:104BAC00001002401468000880B485B000AF786033
:104BBC000A4B1B680A4AA2FB03235B0A7A6802FBB6
:104BCC0003F3FB6000BFFB685A1EFA60002BF9D19F
:104BDC0000BF00BF1437BD4680BC7047800000206A
:104BEC00D34D621080B48BB000AF78603960002375
:104BFC007B6200233B6269E101227B6A02FA03F3C8
:104C0C00FB613B681B68FA691340BB61BA69FB69BD
:104C1C009A4240F058813B685B689A4A93425ED056
:104C2C00984A934275D8984A934258D0964A9342E0
:104C3C006FD8964A934252D0944A934269D8944A78
:104C4C0093424CD0924A934263D8924A934246D0B4
:104C5C00904A93425DD8122B2AD8122B59D801A214
:104C6C0052F823F0EB4C0008C54C0008D74C000858
:104C7C00194D00081F4D00081F4D00081F4D00085E
:104C8C001F4D00081F4D00081F4D00081F4D000848
:104C9C001F4D00081F4D00081F4D00081F4D000838
:104CAC001F4D00081F4D0008CD4C0008E14C0008BA
:104CBC00794A934213D02CE03B68DB683B6229E0D5
:104CCC003B68DB6804333B6224E03B68DB680833F9
:104CDC003B621FE03B68DB680C333B621AE03B68CD
:104CEC009B68002B02D104233B6213E03B689B685A
:104CFC00012B05D108233B627B68FA691A6109E034
:104D0C0008233B627B68FA695A6103E000233B622B
:104D1C0000E000BFBB69FF2B01D87B6801E07B681A
:104D2C0004337B61BB69FF2B02D87B6A9B0002E0DA
:104D3C007B6A083B9B003B617B691A680F213B69CE
:104D4C0001FA03F3DB431A40396A3B6901FA03F3B6
:104D5C001A437B691A603B685B6803F08053002B35
:104D6C0000F0B1804D4B9B694C4A43F001039361B9
:104D7C004A4B9B6903F00103BB60BB68484A7B6AE2
:104D8C009B08023352F82330FB607B6A03F0030369
:104D9C009B000F2202FA03F3DB43FA681340FB601B
:104DAC007B68404A934213D07B683F4A93420DD0B4
:104DBC007B683E4A934207D07B683D4A934201D1BF
:104DCC00032306E0042304E0022302E0012300E0B5
:104DDC0000237A6A02F0030292009340FA681343AC
:104DEC00FB602F497B6A9B080233FA6841F8232049
:104DFC003B685B6803F48013002B06D02D4B9A683C
:104E0C002C49BB6913438B6006E02A4B9A68BB693B
:104E1C00DB43284913408B603B685B6803F4001349
:104E2C00002B06D0234BDA682249BB691343CB60B5
:104E3C0006E0204BDA68BB69DB431E491340CB60AC
:104E4C003B685B6803F40033002B06D0194B5A689F
:104E5C001849BB6913434B6006E0164B5A68BB6993
:104E6C00DB43144913404B603B685B6803F48033AD
:104E7C00002B21D00F4B1A680E49BB6913430B60F2
:104E8C0021E000BF000032100000311000002210A1
:104E9C000000211000001210000011100010024040
:104EAC000000014000080140000C014000100140CE
:104EBC0000140140000401400B4B1A68BB69DB4332
:104ECC00094913400B607B6A01337B623B681A68AB
:104EDC007B6A22FA03F3002B7FF48EAE00BF00BF77
:104EEC002C37BD4680BC70470004014080B485B0AF
:104EFC0000AF78600B467B807B689A687B88134098
:104F0C00002B02D00123FB7301E00023FB73FB7B1E
:104F1C0018461437BD4680BC704780B483B000AFD0
:104F2C0078600B467B8013467B707B78002B03D01C
:104F3C007A887B681A6103E07B881A047B681A61A3
:104F4C0000BF0C37BD4680BC7047000080B582B0F6
:104F5C0000AF0346FB80084B5A69FB881340002BBB
:104F6C0006D0054AFB885361FB88184600F006F80A
:104F7C0000BF0837BD4680BD0004014080B483B03B
:104F8C0000AF0346FB8000BF0C37BD4680BC7047AA
:104F9C0080B485B000AF78607B6803F00703FB60DA
:104FAC000C4BDB68BB60BA684FF6FF031340BB6069
:104FBC00FB681A02BB68134343F0BF6343F400332E
:104FCC00BB60044ABB68D36000BF1437BD4680BCCD
:104FDC00704700BF00ED00E080B400AF044BDB680D
:104FEC001B0A03F007031846BD4680BC704700BF80
:104FFC0000ED00E080B483B000AF0346FB7197F97D
:10500C000730002B0BDBFB7903F01F02064997F9E5
:10501C0007305B09012000FA02F241F8232000BF9F
:10502C000C37BD4680BC704700E100E080B483B013
:10503C0000AF03463960FB7197F90730002B0ADB90
:10504C003B68DAB20C4997F907301201D2B20B4423
:10505C0083F800230AE03B68DAB20849FB7903F0D5
:10506C000F03043B1201D2B20B441A7600BF0C376B
:10507C00BD4680BC704700BF00E100E000ED00E0E1
:10508C0080B489B000AFF860B9607A60FB6803F057
:10509C000703FB61FB69C3F10703042B28BF04233F
:1050AC00BB61FB690433062B02D9FB69033B00E0AF
:1050BC0000237B614FF0FF32BB6902FA03F3DA4342
:1050CC00BB681A407B699A404FF0FF317B6901FA4B
:1050DC0003F3D9437B680B40134318462437BD4672
:1050EC0080BC704780B582B000AF78607B68013BB4
:1050FC00B3F1807F01D301230FE00A4A7B68013BA7
:10510C0053600F214FF0FF30FFF790FF054B00224B
:10511C009A60044B07221A60002318460837BD46D4
:10512C0080BD00BF10E000E080B582B000AF7860B9
:10513C007868FFF72DFF00BF0837BD4680BD80B5EE
:10514C0086B000AF0346B9607A60FB7300237B61C5
:10515C00FFF742FF78617A68B9687869FFF790FFCA
:10516C00024697F90F3011461846FFF75FFF00BF54
:10517C001837BD4680BD80B582B000AF0346FB71C9
:10518C0097F907301846FFF735FF00BF0837BD46C3
:10519C0080BD80B582B000AF78607868FFF7A2FF61
:1051AC00034618460837BD4680BD0000F0B587B0F1
:1051BC0000AFF860B960C7E900230123FB75002339
:1051CC00BB7500237B752F4B1B7E012B01D102235A
:1051DC0054E02C4B01221A764CF2503000F0A8F817
:1051EC000346FB75FB7D002B44D1FB68012B02D1E0
:1051FC0001237B7507E0FB68022B02D102237B7530
:10520C0001E004237B750023BB752DE0BB7D5A00A8
:10521C00BB6802EB030CBB7D1901D7E90023C1F17C
:10522C002006A1F1200022FA01F403FA06F6344319
:10523C0023FA00F0044323FA01F5A3B219466046A1
:10524C0000F05AF84CF2503000F072F80346FB753F
:10525C000D4B1B690C4A23F001031361FB7D002BE2
:10526C0007D1BB7D0133BB75BA7D7B7D9A42CDD313
:10527C0000E000BF034B00221A76FB7D18461C375A
:10528C00BD46F0BD700700200020024080B483B002
:10529C0000AF0023FB710D4B1B6903F08003002B47
:1052AC000DD00A4B0A4A5A60084B0A4A5A60074BFF
:1052BC001B6903F08003002B01D00123FB71FB79E8
:1052CC0018460C37BD4680BC704700BF002002401A
:1052DC0023016745AB89EFCD80B400AF054B1B694B
:1052EC00044A43F08003136100231846BD4680BC7A
:1052FC00704700BF0020024080B483B000AF7860DC
:10530C000B467B80084B0022DA61084B1B69074A6D
:10531C0043F0010313617B687A881A8000BF0C3755
:10532C00BD4680BC704700BF7007002000200240C3
:10533C0080B584B000AF7860FFF73AF8F86010E001
:10534C007B68B3F1FF3F0CD07B68002B07D0FFF7D5
:10535C002FF80246FB68D31A7A689A4201D20323CB
:10536C0025E0154BDB6803F00103002BE8D1124B51
:10537C00DB6803F02003002B02D00F4B2022DA60F5
:10538C000D4BDB6803F01003002B0BD10A4BDB69D0
:10539C0003F00103002B05D1074BDB6803F004037A
:1053AC00002B03D000F00AF8012300E0002318467C
:1053BC001037BD4680BD00BF0020024080B483B0D2
:1053CC0000AF00237B60234BDB6803F01003002B42
:1053DC0009D0214BDB6943F002031F4AD3617B6880
:1053EC0043F010037B601B4BDB6803F00403002BC2
:1053FC0009D0194BDB6943F00103174AD3617B6871
:10540C0043F004037B60134BDB6903F00103002BB7
:10541C000BD0114BDB6943F004030F4AD3610D4BE6
:10542C00DB690C4A23F00103D3617B6840F2011263
:10543C00934206D1074BDB69064A23F00103D36183
:10544C0002E0044A7B68D36000BF0C37BD4680BCC9
:10545C00704700BF002002407007002080B584B068
:10546C0000AF786039600123FB730023BB602F4BC6
:10547C001B7E012B01D1022353E02C4B01221A7607
:10548C007B681B68022B16D14CF25030FFF750FF93
:10549C000346002B41D1012000F04CF84CF2503067
:1054AC00FFF746FF0346FB73214B1B69204A23F091
:1054BC000403136131E04CF25030FFF739FF03461F
:1054CC00002B2AD13B684FF0FF321A607B689B6837
:1054DC00BB6019E0B86800F049F84CF25030FFF7A7
:1054EC0027FF0346FB73124B1B69114A23F002037F
:1054FC001361FB7B002B03D03B68BA681A600CE08D
:10550C00BB6803F58063BB607B68DB689A027B68D1
:10551C009B681344BA689A42DCD3044B00221A7677
:10552C00FB7B18461037BD4680BD00BF70070020BE
:10553C000020024080B483B000AF7860094B002299
:10554C00DA61094B1B69084A43F004031361064BEB
:10555C001B69054A43F04003136100BF0C37BD467D
:10556C0080BC7047700700200020024080B483B0DC
:10557C0000AF78600B4B0022DA610B4B1B690A4AB7
:10558C0043F002031361084A7B685361064B1B69A5
:10559C00054A43F04003136100BF0C37BD4680BC85
:1055AC00704700BF700700200020024080B582B019
:1055BC0000AF78607B68002B01D1012342E07B684F
:1055CC0093F84130DBB2002B06D17B68002283F8C4
:1055DC0040207868FCF712FC7B68242283F8412079
:1055EC007B681B68DA687B681B6822F40052DA60FF
:1055FC00786800F071F97B681B681A697B681B6816
:10560C0022F490421A617B681B685A697B681B689C
:10561C0022F02A025A617B681B68DA687B681B6877
:10562C0042F40052DA607B6800225A647B682022C4
:10563C0083F841207B68202283F842207B6800227B
:10564C005A63002318460837BD4680BD80B58AB022
:10565C0002AFF860B9603B601346FB8000237B61AE
:10566C00FB6893F84130DBB2202B75D1BB68002B63
:10567C0002D0FB88002B01D101236EE0FB680022D5
:10568C005A64FB68212283F84120FEF791FE786171
:10569C00FB68FA889A84FB68FA88DA84FB689B6852
:1056AC00B3F5805F08D1FB681B69002B04D1002384
:1056BC00FB61BB68BB6103E0BB68FB610023BB61A2
:1056CC002EE03B6800937B6900228021F86800F093
:1056DC0048F80346002B05D0FB68202283F84120B4
:1056EC0003233AE0FB69002B0BD1BB691B881A46DC
:1056FC00FB681B68C2F308025A60BB690233BB61CA
:10570C0007E0FB691A78FB681B685A60FB69013378
:10571C00FB61FB68DB8C9BB2013B9AB2FB68DA84C1
:10572C00FB68DB8C9BB2002BCBD13B6800937B6975
:10573C0000224021F86800F014F80346002B05D035
:10574C00FB68202283F84120032306E0FB6820221B
:10575C0083F84120002300E0022318462037BD4681
:10576C0080BD80B586B000AFF860B9603B60134671
:10577C00FB713BE03B6AB3F1FF3F37D0FEF718FEFD
:10578C0002463B68D31A3A6A9A4202D33B6A002B10
:10579C0001D103233AE0FB681B68DB6803F00403C8
:1057AC00002B23D0BB68802B20D0BB68402B1DD096
:1057BC00FB681B681B6803F00803082B16D1002339
:1057CC007B61FB681B681B687B61FB681B685B6803
:1057DC007B617B69F86800F01DF8FB6808225A644D
:1057EC00FB68002283F8402001230FE0FB681B6854
:1057FC001A68BB681340BA689A420CBF0123002395
:10580C00DBB21A46FB799A42B4D0002318461837FB
:10581C00BD4680BD80B495B000AF78607B681B68D6
:10582C000C337B637B6B53E8003F3B633B6B23F494
:10583C009073FB647B681B680C33FA6C3A64FB63F3
:10584C00F96B3A6C41E80023BB63BB6B002BE5D1D1
:10585C007B681B6814333B623B6A53E8003FFB6177
:10586C00FB6923F00103BB647B681B681433BA6CBF
:10587C00FA62BB62B96AFA6A41E800237B627B6A0E
:10588C00002BE5D17B681B6B012B19D17B681B6846
:10589C000C33FB60FB6853E8003FBB60BB6823F034
:1058AC0010037B647B681B680C337A6CBA617B6178
:1058BC007969BA6941E800233B613B69002BE5D16A
:1058CC007B68202283F842207B6800221A6300BF89
:1058DC005437BD4680BC704780B584B000AF78604B
:1058EC007B681B681B6923F440517B68DA687B6812
:1058FC001B680A431A617B689A687B681B691A43A8
:10590C007B685B691343BB607B681B68DB6823F4B3
:10591C00B05323F00C037A681268B9680B43D36058
:10592C007B681B685B6923F440717B689A697B68B0
:10593C001B680A435A617B681B682C4A934203D14B
:10594C00FFF71EF9F86002E0FFF706F9F860FA6855
:10595C0013469B0013449A001A447B685B689B00B7
:10596C00B2FBF3F3224AA2FB03235B091901FA6889
:10597C0013469B0013449A001A447B685B689B0097
:10598C00B2FBF3F21A4BA3FB02035B09642000FB8E
:10599C0003F3D31A1B013233154AA2FB03235B0911
:1059AC0003F0F0031944FA6813469B0013449A0061
:1059BC001A447B685B689B00B2FBF3F20C4BA3FBB5
:1059CC0002035B09642000FB03F3D31A1B0132337F
:1059DC00074AA2FB03235B0903F00F027B681B68D9
:1059EC000A449A6000BF1037BD4680BD00380140A4
:1059FC001F85EB51F8B500BFF8BC08BC9E4670473C
:0C5A0C00F8B500BFF8BC08BC9E4670470F
:105A18000D0A3D3D3D3D3D3D3D3D3D3D3D3D3D3D11
:105A28003D3D3D3D3D3D3D3D3D3D3D3D3D3D3D3D9E
:105A38003D3D0D0A000000002020434C4920696EBE
:105A4800697469616C697A65642E0D0A000000004A
:105A5800202054797065202768656C702720666F50
:105A68007220636F6D6D616E64732E0D0A00000005
:105A78003D3D3D3D3D3D3D3D3D3D3D3D3D3D3D3D4E
:105A88003D3D3D3D3D3D3D3D3D3D3D3D3D3D3D3D3E
:105A98000D0A00003E20000073746172740000005B
:105AA80068656C70000000003F00000067657400C6
:105AB800646972656374696F6E5F74696D6500000F
:105AC80070776D5F647574790000000077616974A0
